{
  "_format": "hh-sol-artifact-1",
  "contractName": "CertDao",
  "sourceName": "contracts/CertDao.sol",
  "abi": [
    {
      "inputs": [],
      "stateMutability": "nonpayable",
      "type": "constructor"
    },
    {
      "anonymous": false,
      "inputs": [
        {
          "indexed": true,
          "internalType": "address",
          "name": "contractAddress",
          "type": "address"
        },
        {
          "indexed": true,
          "internalType": "string",
          "name": "url",
          "type": "string"
        },
        {
          "indexed": false,
          "internalType": "enum CertDao.DomainStatus",
          "name": "status",
          "type": "uint8"
        }
      ],
      "name": "ContractApproved",
      "type": "event"
    },
    {
      "anonymous": false,
      "inputs": [
        {
          "indexed": true,
          "internalType": "address",
          "name": "contractAddress",
          "type": "address"
        },
        {
          "indexed": true,
          "internalType": "string",
          "name": "url",
          "type": "string"
        },
        {
          "indexed": false,
          "internalType": "string",
          "name": "description",
          "type": "string"
        }
      ],
      "name": "ContractExpired",
      "type": "event"
    },
    {
      "anonymous": false,
      "inputs": [
        {
          "indexed": true,
          "internalType": "address",
          "name": "contractAddress",
          "type": "address"
        },
        {
          "indexed": true,
          "internalType": "string",
          "name": "url",
          "type": "string"
        },
        {
          "indexed": false,
          "internalType": "string",
          "name": "description",
          "type": "string"
        }
      ],
      "name": "ContractManuallyFlag",
      "type": "event"
    },
    {
      "anonymous": false,
      "inputs": [
        {
          "indexed": true,
          "internalType": "address",
          "name": "contractAddress",
          "type": "address"
        },
        {
          "indexed": true,
          "internalType": "string",
          "name": "url",
          "type": "string"
        },
        {
          "indexed": false,
          "internalType": "string",
          "name": "description",
          "type": "string"
        }
      ],
      "name": "ContractRejected",
      "type": "event"
    },
    {
      "anonymous": false,
      "inputs": [
        {
          "indexed": true,
          "internalType": "address",
          "name": "contractAddress",
          "type": "address"
        },
        {
          "indexed": true,
          "internalType": "string",
          "name": "url",
          "type": "string"
        },
        {
          "indexed": false,
          "internalType": "enum CertDao.DomainStatus",
          "name": "status",
          "type": "uint8"
        }
      ],
      "name": "ContractRenewed",
      "type": "event"
    },
    {
      "anonymous": false,
      "inputs": [
        {
          "indexed": true,
          "internalType": "address",
          "name": "contractAddress",
          "type": "address"
        },
        {
          "indexed": true,
          "internalType": "string",
          "name": "url",
          "type": "string"
        },
        {
          "indexed": false,
          "internalType": "string",
          "name": "description",
          "type": "string"
        }
      ],
      "name": "ContractRevoked",
      "type": "event"
    },
    {
      "anonymous": false,
      "inputs": [
        {
          "indexed": true,
          "internalType": "address",
          "name": "contractAddress",
          "type": "address"
        },
        {
          "indexed": true,
          "internalType": "string",
          "name": "url",
          "type": "string"
        }
      ],
      "name": "ContractSubmittedForValidation",
      "type": "event"
    },
    {
      "anonymous": false,
      "inputs": [
        {
          "indexed": true,
          "internalType": "address",
          "name": "previousOwner",
          "type": "address"
        },
        {
          "indexed": true,
          "internalType": "address",
          "name": "newOwner",
          "type": "address"
        }
      ],
      "name": "OwnershipTransferred",
      "type": "event"
    },
    {
      "inputs": [],
      "name": "CERTDAO_DOMAIN",
      "outputs": [
        {
          "internalType": "string",
          "name": "",
          "type": "string"
        }
      ],
      "stateMutability": "view",
      "type": "function"
    },
    {
      "inputs": [
        {
          "internalType": "enum CertDao.DomainStatus",
          "name": "status",
          "type": "uint8"
        }
      ],
      "name": "DomainStatusToString",
      "outputs": [
        {
          "internalType": "string",
          "name": "",
          "type": "string"
        }
      ],
      "stateMutability": "pure",
      "type": "function"
    },
    {
      "inputs": [],
      "name": "EXPIRATION_PERIOD",
      "outputs": [
        {
          "internalType": "uint32",
          "name": "",
          "type": "uint32"
        }
      ],
      "stateMutability": "view",
      "type": "function"
    },
    {
      "inputs": [],
      "name": "PAY_AMOUNT",
      "outputs": [
        {
          "internalType": "uint64",
          "name": "",
          "type": "uint64"
        }
      ],
      "stateMutability": "view",
      "type": "function"
    },
    {
      "inputs": [
        {
          "internalType": "address",
          "name": "contractAddress",
          "type": "address"
        }
      ],
      "name": "approve",
      "outputs": [],
      "stateMutability": "nonpayable",
      "type": "function"
    },
    {
      "inputs": [
        {
          "internalType": "address[]",
          "name": "contractAddresses",
          "type": "address[]"
        }
      ],
      "name": "batchApprove",
      "outputs": [],
      "stateMutability": "nonpayable",
      "type": "function"
    },
    {
      "inputs": [
        {
          "internalType": "address[]",
          "name": "contractAddresses",
          "type": "address[]"
        }
      ],
      "name": "batchRevoke",
      "outputs": [],
      "stateMutability": "nonpayable",
      "type": "function"
    },
    {
      "inputs": [
        {
          "internalType": "string",
          "name": "a",
          "type": "string"
        },
        {
          "internalType": "string",
          "name": "b",
          "type": "string"
        }
      ],
      "name": "compareStrings",
      "outputs": [
        {
          "internalType": "bool",
          "name": "",
          "type": "bool"
        }
      ],
      "stateMutability": "pure",
      "type": "function"
    },
    {
      "inputs": [
        {
          "internalType": "address",
          "name": "",
          "type": "address"
        }
      ],
      "name": "contractAddressToDomainOwner",
      "outputs": [
        {
          "internalType": "string",
          "name": "url",
          "type": "string"
        },
        {
          "internalType": "address",
          "name": "ownerAddress",
          "type": "address"
        },
        {
          "internalType": "enum CertDao.DomainStatus",
          "name": "status",
          "type": "uint8"
        },
        {
          "internalType": "uint256",
          "name": "timestamp",
          "type": "uint256"
        },
        {
          "internalType": "string",
          "name": "description",
          "type": "string"
        }
      ],
      "stateMutability": "view",
      "type": "function"
    },
    {
      "inputs": [
        {
          "internalType": "address",
          "name": "_ownerAddress",
          "type": "address"
        }
      ],
      "name": "getContractAddress",
      "outputs": [
        {
          "internalType": "address[]",
          "name": "",
          "type": "address[]"
        }
      ],
      "stateMutability": "view",
      "type": "function"
    },
    {
      "inputs": [
        {
          "internalType": "address",
          "name": "contractAddress",
          "type": "address"
        }
      ],
      "name": "getDomainDescription",
      "outputs": [
        {
          "internalType": "string",
          "name": "",
          "type": "string"
        }
      ],
      "stateMutability": "view",
      "type": "function"
    },
    {
      "inputs": [
        {
          "internalType": "address",
          "name": "contractAddress",
          "type": "address"
        }
      ],
      "name": "geturl",
      "outputs": [
        {
          "internalType": "string",
          "name": "",
          "type": "string"
        }
      ],
      "stateMutability": "view",
      "type": "function"
    },
    {
      "inputs": [
        {
          "internalType": "address",
          "name": "contractAddress",
          "type": "address"
        }
      ],
      "name": "getDomainOwner",
      "outputs": [
        {
          "internalType": "address",
          "name": "",
          "type": "address"
        }
      ],
      "stateMutability": "view",
      "type": "function"
    },
    {
      "inputs": [
        {
          "internalType": "address",
          "name": "contractAddress",
          "type": "address"
        }
      ],
      "name": "getDomainStatus",
      "outputs": [
        {
          "internalType": "string",
          "name": "",
          "type": "string"
        }
      ],
      "stateMutability": "view",
      "type": "function"
    },
    {
      "inputs": [
        {
          "internalType": "address",
          "name": "contractAddress",
          "type": "address"
        },
        {
          "internalType": "string",
          "name": "url",
          "type": "string"
        },
        {
          "internalType": "string",
          "name": "description",
          "type": "string"
        }
      ],
      "name": "manualFlag",
      "outputs": [],
      "stateMutability": "nonpayable",
      "type": "function"
    },
    {
      "inputs": [],
      "name": "owner",
      "outputs": [
        {
          "internalType": "address",
          "name": "",
          "type": "address"
        }
      ],
      "stateMutability": "view",
      "type": "function"
    },
    {
      "inputs": [
        {
          "internalType": "address",
          "name": "",
          "type": "address"
        },
        {
          "internalType": "uint256",
          "name": "",
          "type": "uint256"
        }
      ],
      "name": "ownerToContractAddresses",
      "outputs": [
        {
          "internalType": "address",
          "name": "",
          "type": "address"
        }
      ],
      "stateMutability": "view",
      "type": "function"
    },
    {
      "inputs": [
        {
          "internalType": "address",
          "name": "contractAddress",
          "type": "address"
        },
        {
          "internalType": "string",
          "name": "url",
          "type": "string"
        }
      ],
      "name": "renew",
      "outputs": [],
      "stateMutability": "payable",
      "type": "function"
    },
    {
      "inputs": [],
      "name": "renounceOwnership",
      "outputs": [],
      "stateMutability": "nonpayable",
      "type": "function"
    },
    {
      "inputs": [
        {
          "internalType": "address",
          "name": "contractAddress",
          "type": "address"
        }
      ],
      "name": "returnAllContractInfo",
      "outputs": [
        {
          "internalType": "string",
          "name": "",
          "type": "string"
        },
        {
          "internalType": "address",
          "name": "",
          "type": "address"
        },
        {
          "internalType": "string",
          "name": "",
          "type": "string"
        },
        {
          "internalType": "uint256",
          "name": "",
          "type": "uint256"
        },
        {
          "internalType": "string",
          "name": "",
          "type": "string"
        }
      ],
      "stateMutability": "view",
      "type": "function"
    },
    {
      "inputs": [
        {
          "internalType": "address",
          "name": "contractAddress",
          "type": "address"
        }
      ],
      "name": "revoke",
      "outputs": [],
      "stateMutability": "nonpayable",
      "type": "function"
    },
    {
      "inputs": [
        {
          "internalType": "address",
          "name": "contractAddress",
          "type": "address"
        },
        {
          "internalType": "string",
          "name": "url",
          "type": "string"
        },
        {
          "internalType": "string",
          "name": "description",
          "type": "string"
        }
      ],
      "name": "submitForValidation",
      "outputs": [],
      "stateMutability": "payable",
      "type": "function"
    },
    {
      "inputs": [],
      "name": "totalContractAddressMappings",
      "outputs": [
        {
          "internalType": "uint64",
          "name": "",
          "type": "uint64"
        }
      ],
      "stateMutability": "view",
      "type": "function"
    },
    {
      "inputs": [
        {
          "internalType": "address",
          "name": "newContractAddress",
          "type": "address"
        },
        {
          "internalType": "string",
          "name": "domainOwner",
          "type": "string"
        }
      ],
      "name": "transferContractToNewDomain",
      "outputs": [],
      "stateMutability": "payable",
      "type": "function"
    },
    {
      "inputs": [
        {
          "internalType": "address",
          "name": "newOwner",
          "type": "address"
        }
      ],
      "name": "transferOwnership",
      "outputs": [],
      "stateMutability": "nonpayable",
      "type": "function"
    },
    {
      "inputs": [
        {
          "internalType": "address",
          "name": "_contractAddress",
          "type": "address"
        },
        {
          "internalType": "address",
          "name": "_newDomainOwner",
          "type": "address"
        }
      ],
      "name": "updateOwner",
      "outputs": [],
      "stateMutability": "payable",
      "type": "function"
    },
    {
      "inputs": [
        {
          "internalType": "address",
          "name": "contractAddress",
          "type": "address"
        },
        {
          "internalType": "string",
          "name": "url",
          "type": "string"
        }
      ],
      "name": "verify",
      "outputs": [
        {
          "internalType": "bool",
          "name": "",
          "type": "bool"
        }
      ],
      "stateMutability": "view",
      "type": "function"
    }
  ],
  "bytecode": "0x60806040523480156200001157600080fd5b5062000032620000266200021f60201b60201c565b6200022760201b60201c565b60006040518060a001604052806040518060400160405280600b81526020017f6365727464616f2e6e657400000000000000000000000000000000000000000081525081526020016200008a620002eb60201b60201c565b73ffffffffffffffffffffffffffffffffffffffff16815260200160026005811115620000bc57620000bb620003c4565b5b815260200163bc19138042620000d391906200042c565b81526020016040518060400160405280601581526020017f4365727444616f204f776e65722067656e657369730000000000000000000000815250815250905080600260003073ffffffffffffffffffffffffffffffffffffffff1673ffffffffffffffffffffffffffffffffffffffff16815260200190815260200160002060008201518160000190805190602001906200017192919062000314565b5060208201518160010160006101000a81548173ffffffffffffffffffffffffffffffffffffffff021916908373ffffffffffffffffffffffffffffffffffffffff16021790555060408201518160010160146101000a81548160ff02191690836005811115620001e757620001e6620003c4565b5b02179055506060820151816002015560808201518160030190805190602001906200021492919062000314565b5090505050620004ee565b600033905090565b60008060009054906101000a900473ffffffffffffffffffffffffffffffffffffffff169050816000806101000a81548173ffffffffffffffffffffffffffffffffffffffff021916908373ffffffffffffffffffffffffffffffffffffffff1602179055508173ffffffffffffffffffffffffffffffffffffffff168173ffffffffffffffffffffffffffffffffffffffff167f8be0079c531659141344cd1fd0a4f28419497f9722a3daafe3b4186f6b6457e060405160405180910390a35050565b60008060009054906101000a900473ffffffffffffffffffffffffffffffffffffffff16905090565b8280546200032290620004b8565b90600052602060002090601f01602090048101928262000346576000855562000392565b82601f106200036157805160ff191683800117855562000392565b8280016001018555821562000392579182015b828111156200039157825182559160200191906001019062000374565b5b509050620003a19190620003a5565b5090565b5b80821115620003c0576000816000905550600101620003a6565b5090565b7f4e487b7100000000000000000000000000000000000000000000000000000000600052602160045260246000fd5b6000819050919050565b7f4e487b7100000000000000000000000000000000000000000000000000000000600052601160045260246000fd5b60006200043982620003f3565b91506200044683620003f3565b9250827fffffffffffffffffffffffffffffffffffffffffffffffffffffffffffffffff038211156200047e576200047d620003fd565b5b828201905092915050565b7f4e487b7100000000000000000000000000000000000000000000000000000000600052602260045260246000fd5b60006002820490506001821680620004d157607f821691505b60208210811415620004e857620004e762000489565b5b50919050565b614b8e80620004fe6000396000f3fe60806040526004361061019c5760003560e01c80638da5cb5b116100ec578063ca75960b1161008a578063daea85c511610064578063daea85c5146105e4578063e8fc92731461060d578063ea5ed3db1461064a578063f2fde38b146106735761019c565b8063ca75960b14610551578063ce93dceb1461057c578063cec3e317146105b95761019c565b806399006500116100c6578063990065001461049f578063a6348c80146104dc578063bc618391146104f8578063bed34bba146105145761019c565b80638da5cb5b1461040c5780638e7d5a6814610437578063945507cb146104745761019c565b80635036598f11610159578063715018a611610133578063715018a61461037357806372b0a7ed1461038a57806374a8f103146103a65780637e3638b5146103cf5761019c565b80635036598f146102cc57806354c2b809146102f5578063622bc90e146103365761019c565b8063011002df146101a1578063043c6de3146101ca5780630694340e146101e65780630a0d924714610223578063180e5c211461024e57806329b17f7d1461028b575b600080fd5b3480156101ad57600080fd5b506101c860048036038101906101c3919061383a565b61069c565b005b6101e460048036038101906101df9190613938565b6106ea565b005b3480156101f257600080fd5b5061020d60048036038101906102089190613994565b610b9b565b60405161021a9190613a49565b60405180910390f35b34801561022f57600080fd5b50610238610cdf565b6040516102459190613a8e565b60405180910390f35b34801561025a57600080fd5b5061027560048036038101906102709190613adf565b610cea565b6040516102829190613b2e565b60405180910390f35b34801561029757600080fd5b506102b260048036038101906102ad9190613994565b610d38565b6040516102c3959493929190613bcf565b60405180910390f35b3480156102d857600080fd5b506102f360048036038101906102ee9190613c30565b610eab565b005b34801561030157600080fd5b5061031c60048036038101906103179190613994565b611046565b60405161032d959493929190613cbb565b60405180910390f35b34801561034257600080fd5b5061035d60048036038101906103589190613994565b61120b565b60405161036a9190613de1565b60405180910390f35b34801561037f57600080fd5b506103886112d8565b005b6103a4600480360381019061039f9190613c30565b6112ec565b005b3480156103b257600080fd5b506103cd60048036038101906103c89190613994565b6118c0565b005b3480156103db57600080fd5b506103f660048036038101906103f19190613994565b611b62565b6040516104039190613a49565b60405180910390f35b34801561041857600080fd5b50610421611ca6565b60405161042e9190613b2e565b60405180910390f35b34801561044357600080fd5b5061045e60048036038101906104599190613994565b611ccf565b60405161046b9190613a49565b60405180910390f35b34801561048057600080fd5b50610489611f97565b6040516104969190613a49565b60405180910390f35b3480156104ab57600080fd5b506104c660048036038101906104c19190613994565b611fd0565b6040516104d39190613b2e565b60405180910390f35b6104f660048036038101906104f19190613e03565b61203c565b005b610512600480360381019061050d9190613938565b6123fe565b005b34801561052057600080fd5b5061053b60048036038101906105369190613e43565b612694565b6040516105489190613ed6565b60405180910390f35b34801561055d57600080fd5b506105666126ed565b6040516105739190613f10565b60405180910390f35b34801561058857600080fd5b506105a3600480360381019061059e9190613f50565b6126f5565b6040516105b09190613a49565b60405180910390f35b3480156105c557600080fd5b506105ce6129b0565b6040516105db9190613a8e565b60405180910390f35b3480156105f057600080fd5b5061060b60048036038101906106069190613994565b6129ca565b005b34801561061957600080fd5b50610634600480360381019061062f9190613938565b612c6f565b6040516106419190613ed6565b60405180910390f35b34801561065657600080fd5b50610671600480360381019061066c919061383a565b61307f565b005b34801561067f57600080fd5b5061069a60048036038101906106959190613994565b6130cd565b005b6106a4613151565b60005b81518110156106e6576106d38282815181106106c6576106c5613f7d565b5b60200260200101516118c0565b80806106de90613fdb565b9150506106a7565b5050565b8181600081511415610731576040517f08c379a000000000000000000000000000000000000000000000000000000000815260040161072890614070565b60405180910390fd5b600073ffffffffffffffffffffffffffffffffffffffff168273ffffffffffffffffffffffffffffffffffffffff1614156107a1576040517f08c379a0000000000000000000000000000000000000000000000000000000008152600401610798906140dc565b60405180910390fd5b600260008573ffffffffffffffffffffffffffffffffffffffff1673ffffffffffffffffffffffffffffffffffffffff16815260200190815260200160002060010160009054906101000a900473ffffffffffffffffffffffffffffffffffffffff1673ffffffffffffffffffffffffffffffffffffffff163373ffffffffffffffffffffffffffffffffffffffff16148061086f5750610840611ca6565b73ffffffffffffffffffffffffffffffffffffffff163373ffffffffffffffffffffffffffffffffffffffff16145b6108ae576040517f08c379a00000000000000000000000000000000000000000000000000000000081526004016108a590614194565b60405180910390fd5b600260058111156108c2576108c1613b49565b5b600260008673ffffffffffffffffffffffffffffffffffffffff1673ffffffffffffffffffffffffffffffffffffffff16815260200190815260200160002060010160149054906101000a900460ff16600581111561092457610923613b49565b5b1415610b9557426301e1338063ffffffff16600260008773ffffffffffffffffffffffffffffffffffffffff1673ffffffffffffffffffffffffffffffffffffffff1681526020019081526020016000206002015461098391906141b4565b1015610b555766b1a2bc2ec5000067ffffffffffffffff1634146109dc576040517f08c379a00000000000000000000000000000000000000000000000000000000081526004016109d39061427c565b60405180910390fd5b42600260008673ffffffffffffffffffffffffffffffffffffffff1673ffffffffffffffffffffffffffffffffffffffff16815260200190815260200160002060020181905550600080610a2e611ca6565b73ffffffffffffffffffffffffffffffffffffffff1666b1a2bc2ec5000067ffffffffffffffff16604051610a62906142cd565b60006040518083038185875af1925050503d8060008114610a9f576040519150601f19603f3d011682016040523d82523d6000602084013e610aa4565b606091505b509150915084604051610ab7919061431e565b60405180910390208673ffffffffffffffffffffffffffffffffffffffff167fd9229190af804fd9bd07bfdc0d8e7c2d91d5f3173cc97b9ef1d6bbcbce817c5b6002604051610b069190614335565b60405180910390a381610b4e576040517f08c379a0000000000000000000000000000000000000000000000000000000008152600401610b459061439c565b60405180910390fd5b5050610b94565b610b936040518060400160405280601a81526020017f446f6d61696e206973206e6f742065787069726564207965742e0000000000008152506131cf565b5b5b50505050565b6060600073ffffffffffffffffffffffffffffffffffffffff168273ffffffffffffffffffffffffffffffffffffffff161415610c0d576040517f08c379a0000000000000000000000000000000000000000000000000000000008152600401610c04906140dc565b60405180910390fd5b600260008373ffffffffffffffffffffffffffffffffffffffff1673ffffffffffffffffffffffffffffffffffffffff1681526020019081526020016000206003018054610c5a906143eb565b80601f0160208091040260200160405190810160405280929190818152602001828054610c86906143eb565b8015610cd35780601f10610ca857610100808354040283529160200191610cd3565b820191906000526020600020905b815481529060010190602001808311610cb657829003601f168201915b50505050509050919050565b66b1a2bc2ec5000081565b60016020528160005260406000208181548110610d0657600080fd5b906000526020600020016000915091509054906101000a900473ffffffffffffffffffffffffffffffffffffffff1681565b6002602052806000526040600020600091509050806000018054610d5b906143eb565b80601f0160208091040260200160405190810160405280929190818152602001828054610d87906143eb565b8015610dd45780601f10610da957610100808354040283529160200191610dd4565b820191906000526020600020905b815481529060010190602001808311610db757829003601f168201915b5050505050908060010160009054906101000a900473ffffffffffffffffffffffffffffffffffffffff16908060010160149054906101000a900460ff1690806002015490806003018054610e28906143eb565b80601f0160208091040260200160405190810160405280929190818152602001828054610e54906143eb565b8015610ea15780601f10610e7657610100808354040283529160200191610ea1565b820191906000526020600020905b815481529060010190602001808311610e8457829003601f168201915b5050505050905085565b610eb3613151565b600073ffffffffffffffffffffffffffffffffffffffff168373ffffffffffffffffffffffffffffffffffffffff161415610f23576040517f08c379a0000000000000000000000000000000000000000000000000000000008152600401610f1a906140dc565b60405180910390fd5b6000600260008573ffffffffffffffffffffffffffffffffffffffff1673ffffffffffffffffffffffffffffffffffffffff168152602001908152602001600020905060058160010160146101000a81548160ff02191690836005811115610f8e57610f8d613b49565b5b02179055506000835114610fb65782816000019080519060200190610fb49291906135cc565b505b6000825114610fd95781816003019080519060200190610fd79291906135cc565b505b80600001604051610fea91906144b1565b60405180910390208473ffffffffffffffffffffffffffffffffffffffff167f333fcfe85110a1e880e493c16a2a2c2eb62ab038f109ca7467d26d641bb5699d846040516110389190613a49565b60405180910390a350505050565b606060006060600060606000600260008873ffffffffffffffffffffffffffffffffffffffff1673ffffffffffffffffffffffffffffffffffffffff1681526020019081526020016000209050806000018160010160009054906101000a900473ffffffffffffffffffffffffffffffffffffffff166110d68360010160149054906101000a900460ff166126f5565b8360020154846003018480546110eb906143eb565b80601f0160208091040260200160405190810160405280929190818152602001828054611117906143eb565b80156111645780601f1061113957610100808354040283529160200191611164565b820191906000526020600020905b81548152906001019060200180831161114757829003601f168201915b50505050509450808054611177906143eb565b80601f01602080910402602001604051908101604052809291908181526020018280546111a3906143eb565b80156111f05780601f106111c5576101008083540402835291602001916111f0565b820191906000526020600020905b8154815290600101906020018083116111d357829003601f168201915b50505050509050955095509550955095505091939590929450565b6060600160008373ffffffffffffffffffffffffffffffffffffffff1673ffffffffffffffffffffffffffffffffffffffff1681526020019081526020016000208054806020026020016040519081016040528092919081815260200182805480156112cc57602002820191906000526020600020905b8160009054906101000a900473ffffffffffffffffffffffffffffffffffffffff1673ffffffffffffffffffffffffffffffffffffffff1681526020019060010190808311611282575b50505050509050919050565b6112e0613151565b6112ea6000613268565b565b8282600081511415611333576040517f08c379a000000000000000000000000000000000000000000000000000000000815260040161132a90614070565b60405180910390fd5b600073ffffffffffffffffffffffffffffffffffffffff168273ffffffffffffffffffffffffffffffffffffffff1614156113a3576040517f08c379a000000000000000000000000000000000000000000000000000000000815260040161139a906140dc565b60405180910390fd5b6113e36040518060400160405280601d81526020017f446f6d61696e204e616d653a2025732c20436f6e74726163743a202573000000815250858761332c565b66b1a2bc2ec5000067ffffffffffffffff163414611436576040517f08c379a000000000000000000000000000000000000000000000000000000000815260040161142d9061453a565b60405180910390fd5b611519600260008773ffffffffffffffffffffffffffffffffffffffff1673ffffffffffffffffffffffffffffffffffffffff1681526020019081526020016000206000018054611486906143eb565b80601f01602080910402602001604051908101604052809291908181526020018280546114b2906143eb565b80156114ff5780601f106114d4576101008083540402835291602001916114ff565b820191906000526020600020905b8154815290600101906020018083116114e257829003601f168201915b505050505060405180602001604052806000815250612694565b611558576040517f08c379a000000000000000000000000000000000000000000000000000000000815260040161154f906145cc565b60405180910390fd5b60006040518060a001604052808681526020013373ffffffffffffffffffffffffffffffffffffffff1681526020016000600581111561159b5761159a613b49565b5b815260200142815260200185815250905080600260008873ffffffffffffffffffffffffffffffffffffffff1673ffffffffffffffffffffffffffffffffffffffff16815260200190815260200160002060008201518160000190805190602001906116089291906135cc565b5060208201518160010160006101000a81548173ffffffffffffffffffffffffffffffffffffffff021916908373ffffffffffffffffffffffffffffffffffffffff16021790555060408201518160010160146101000a81548160ff0219169083600581111561167b5761167a613b49565b5b02179055506060820151816002015560808201518160030190805190602001906116a69291906135cc565b50905050600160003373ffffffffffffffffffffffffffffffffffffffff1673ffffffffffffffffffffffffffffffffffffffff168152602001908152602001600020869080600181540180825580915050600190039060005260206000200160009091909190916101000a81548173ffffffffffffffffffffffffffffffffffffffff021916908373ffffffffffffffffffffffffffffffffffffffff1602179055506003600081819054906101000a900467ffffffffffffffff1680929190611770906145ec565b91906101000a81548167ffffffffffffffff021916908367ffffffffffffffff160217905550506000806117a2611ca6565b73ffffffffffffffffffffffffffffffffffffffff1666b1a2bc2ec5000067ffffffffffffffff166040516117d6906142cd565b60006040518083038185875af1925050503d8060008114611813576040519150601f19603f3d011682016040523d82523d6000602084013e611818565b606091505b50915091508161185d576040517f08c379a00000000000000000000000000000000000000000000000000000000081526004016118549061439c565b60405180910390fd5b8660405161186b919061431e565b60405180910390208873ffffffffffffffffffffffffffffffffffffffff167fe56a1dcfd351f0a9dc4f9bda49d191d54001ff53db4f795b8e146cf12660d13960405160405180910390a35050505050505050565b6118c8613151565b80600260008373ffffffffffffffffffffffffffffffffffffffff1673ffffffffffffffffffffffffffffffffffffffff1681526020019081526020016000206000018054611916906143eb565b80601f0160208091040260200160405190810160405280929190818152602001828054611942906143eb565b801561198f5780601f106119645761010080835404028352916020019161198f565b820191906000526020600020905b81548152906001019060200180831161197257829003601f168201915b50505050506000815114156119d9576040517f08c379a00000000000000000000000000000000000000000000000000000000081526004016119d090614070565b60405180910390fd5b600073ffffffffffffffffffffffffffffffffffffffff168273ffffffffffffffffffffffffffffffffffffffff161415611a49576040517f08c379a0000000000000000000000000000000000000000000000000000000008152600401611a40906140dc565b60405180910390fd5b6000600260008573ffffffffffffffffffffffffffffffffffffffff1673ffffffffffffffffffffffffffffffffffffffff168152602001908152602001600020905060046005811115611aa057611a9f613b49565b5b8160010160149054906101000a900460ff166005811115611ac457611ac3613b49565b5b14611b5c5760048160010160146101000a81548160ff02191690836005811115611af157611af0613b49565b5b021790555080600001604051611b0791906144b1565b60405180910390208473ffffffffffffffffffffffffffffffffffffffff167fcf5a73a37bc6f798de8cf5a014571f0f3005949c4f8911c44ec304ee24941a78604051611b5390614669565b60405180910390a35b50505050565b6060600073ffffffffffffffffffffffffffffffffffffffff168273ffffffffffffffffffffffffffffffffffffffff161415611bd4576040517f08c379a0000000000000000000000000000000000000000000000000000000008152600401611bcb906140dc565b60405180910390fd5b600260008373ffffffffffffffffffffffffffffffffffffffff1673ffffffffffffffffffffffffffffffffffffffff1681526020019081526020016000206000018054611c21906143eb565b80601f0160208091040260200160405190810160405280929190818152602001828054611c4d906143eb565b8015611c9a5780601f10611c6f57610100808354040283529160200191611c9a565b820191906000526020600020905b815481529060010190602001808311611c7d57829003601f168201915b50505050509050919050565b60008060009054906101000a900473ffffffffffffffffffffffffffffffffffffffff16905090565b6060600073ffffffffffffffffffffffffffffffffffffffff168273ffffffffffffffffffffffffffffffffffffffff161415611d41576040517f08c379a0000000000000000000000000000000000000000000000000000000008152600401611d38906140dc565b60405180910390fd5b6000600260008473ffffffffffffffffffffffffffffffffffffffff1673ffffffffffffffffffffffffffffffffffffffff1681526020019081526020016000206040518060a0016040529081600082018054611d9d906143eb565b80601f0160208091040260200160405190810160405280929190818152602001828054611dc9906143eb565b8015611e165780601f10611deb57610100808354040283529160200191611e16565b820191906000526020600020905b815481529060010190602001808311611df957829003601f168201915b505050505081526020016001820160009054906101000a900473ffffffffffffffffffffffffffffffffffffffff1673ffffffffffffffffffffffffffffffffffffffff1673ffffffffffffffffffffffffffffffffffffffff1681526020016001820160149054906101000a900460ff166005811115611e9a57611e99613b49565b5b6005811115611eac57611eab613b49565b5b815260200160028201548152602001600382018054611eca906143eb565b80601f0160208091040260200160405190810160405280929190818152602001828054611ef6906143eb565b8015611f435780601f10611f1857610100808354040283529160200191611f43565b820191906000526020600020905b815481529060010190602001808311611f2657829003601f168201915b5050505050815250509050426301e1338063ffffffff168260600151611f6991906141b4565b1015611f8157611f7960016126f5565b915050611f92565b611f8e81604001516126f5565b9150505b919050565b6040518060400160405280600b81526020017f6365727464616f2e6e657400000000000000000000000000000000000000000081525081565b6000600260008373ffffffffffffffffffffffffffffffffffffffff1673ffffffffffffffffffffffffffffffffffffffff16815260200190815260200160002060010160009054906101000a900473ffffffffffffffffffffffffffffffffffffffff169050919050565b6000600260008473ffffffffffffffffffffffffffffffffffffffff1673ffffffffffffffffffffffffffffffffffffffff16815260200190815260200160002090508060010160009054906101000a900473ffffffffffffffffffffffffffffffffffffffff1673ffffffffffffffffffffffffffffffffffffffff163373ffffffffffffffffffffffffffffffffffffffff1614612111576040517f08c379a0000000000000000000000000000000000000000000000000000000008152600401612108906146fb565b60405180910390fd5b600073ffffffffffffffffffffffffffffffffffffffff168373ffffffffffffffffffffffffffffffffffffffff161415612181576040517f08c379a0000000000000000000000000000000000000000000000000000000008152600401612178906140dc565b60405180910390fd5b600073ffffffffffffffffffffffffffffffffffffffff168273ffffffffffffffffffffffffffffffffffffffff1614156121f1576040517f08c379a00000000000000000000000000000000000000000000000000000000081526004016121e890614070565b60405180910390fd5b66b1a2bc2ec5000067ffffffffffffffff163414612244576040517f08c379a000000000000000000000000000000000000000000000000000000000815260040161223b90614767565b60405180910390fd5b818160010160006101000a81548173ffffffffffffffffffffffffffffffffffffffff021916908373ffffffffffffffffffffffffffffffffffffffff160217905550600160008373ffffffffffffffffffffffffffffffffffffffff1673ffffffffffffffffffffffffffffffffffffffff168152602001908152602001600020839080600181540180825580915050600190039060005260206000200160009091909190916101000a81548173ffffffffffffffffffffffffffffffffffffffff021916908373ffffffffffffffffffffffffffffffffffffffff16021790555061233183336133cb565b60008061233c611ca6565b73ffffffffffffffffffffffffffffffffffffffff1666b1a2bc2ec5000067ffffffffffffffff16604051612370906142cd565b60006040518083038185875af1925050503d80600081146123ad576040519150601f19603f3d011682016040523d82523d6000602084013e6123b2565b606091505b5091509150816123f7576040517f08c379a00000000000000000000000000000000000000000000000000000000081526004016123ee9061439c565b60405180910390fd5b5050505050565b8181600081511415612445576040517f08c379a000000000000000000000000000000000000000000000000000000000815260040161243c90614070565b60405180910390fd5b600073ffffffffffffffffffffffffffffffffffffffff168273ffffffffffffffffffffffffffffffffffffffff1614156124b5576040517f08c379a00000000000000000000000000000000000000000000000000000000081526004016124ac906140dc565b60405180910390fd5b600260008573ffffffffffffffffffffffffffffffffffffffff1673ffffffffffffffffffffffffffffffffffffffff16815260200190815260200160002060010160009054906101000a900473ffffffffffffffffffffffffffffffffffffffff1673ffffffffffffffffffffffffffffffffffffffff163373ffffffffffffffffffffffffffffffffffffffff1614612585576040517f08c379a000000000000000000000000000000000000000000000000000000000815260040161257c906147f9565b60405180910390fd5b6002600581111561259957612598613b49565b5b600260008673ffffffffffffffffffffffffffffffffffffffff1673ffffffffffffffffffffffffffffffffffffffff16815260200190815260200160002060010160149054906101000a900460ff1660058111156125fb576125fa613b49565b5b1461263b576040517f08c379a000000000000000000000000000000000000000000000000000000000815260040161263290614865565b60405180910390fd5b66b1a2bc2ec5000067ffffffffffffffff16341461268e576040517f08c379a0000000000000000000000000000000000000000000000000000000008152600401612685906148f7565b60405180910390fd5b50505050565b6000816040516020016126a7919061431e565b60405160208183030381529060405280519060200120836040516020016126ce919061431e565b6040516020818303038152906040528051906020012014905092915050565b6301e1338081565b60606000600581111561270b5761270a613b49565b5b82600581111561271e5761271d613b49565b5b1415612761576040518060400160405280600781526020017f70656e64696e670000000000000000000000000000000000000000000000000081525090506129ab565b6001600581111561277557612774613b49565b5b82600581111561278857612787613b49565b5b14156127cb576040518060400160405280600781526020017f657870697265640000000000000000000000000000000000000000000000000081525090506129ab565b600260058111156127df576127de613b49565b5b8260058111156127f2576127f1613b49565b5b1415612835576040518060400160405280600881526020017f617070726f76656400000000000000000000000000000000000000000000000081525090506129ab565b6003600581111561284957612848613b49565b5b82600581111561285c5761285b613b49565b5b141561289f576040518060400160405280600881526020017f72656a656374656400000000000000000000000000000000000000000000000081525090506129ab565b600460058111156128b3576128b2613b49565b5b8260058111156128c6576128c5613b49565b5b1415612909576040518060400160405280600781526020017f7265766f6b65640000000000000000000000000000000000000000000000000081525090506129ab565b60058081111561291c5761291b613b49565b5b82600581111561292f5761292e613b49565b5b1415612972576040518060400160405280600a81526020017f6d616e75616c466c61670000000000000000000000000000000000000000000081525090506129ab565b6040518060400160405280600781526020017f756e6b6e6f776e0000000000000000000000000000000000000000000000000081525090505b919050565b600360009054906101000a900467ffffffffffffffff1681565b6129d2613151565b80600260008373ffffffffffffffffffffffffffffffffffffffff1673ffffffffffffffffffffffffffffffffffffffff1681526020019081526020016000206000018054612a20906143eb565b80601f0160208091040260200160405190810160405280929190818152602001828054612a4c906143eb565b8015612a995780601f10612a6e57610100808354040283529160200191612a99565b820191906000526020600020905b815481529060010190602001808311612a7c57829003601f168201915b5050505050600081511415612ae3576040517f08c379a0000000000000000000000000000000000000000000000000000000008152600401612ada90614070565b60405180910390fd5b600073ffffffffffffffffffffffffffffffffffffffff168273ffffffffffffffffffffffffffffffffffffffff161415612b53576040517f08c379a0000000000000000000000000000000000000000000000000000000008152600401612b4a906140dc565b60405180910390fd5b6000600260008573ffffffffffffffffffffffffffffffffffffffff1673ffffffffffffffffffffffffffffffffffffffff168152602001908152602001600020905060026005811115612baa57612ba9613b49565b5b8160010160149054906101000a900460ff166005811115612bce57612bcd613b49565b5b14612c695760028160010160146101000a81548160ff02191690836005811115612bfb57612bfa613b49565b5b021790555080600001604051612c1191906144b1565b60405180910390208473ffffffffffffffffffffffffffffffffffffffff167f8011544f5939f920af965d629972e4c6fc410156953fb0e4be4ae1ddf5e9636a6002604051612c609190614335565b60405180910390a35b50505050565b60008282600081511415612cb8576040517f08c379a0000000000000000000000000000000000000000000000000000000008152600401612caf90614070565b60405180910390fd5b600073ffffffffffffffffffffffffffffffffffffffff168273ffffffffffffffffffffffffffffffffffffffff161415612d28576040517f08c379a0000000000000000000000000000000000000000000000000000000008152600401612d1f906140dc565b60405180910390fd5b612d686040518060400160405280600e81526020017f496e707574733a2025732c202573000000000000000000000000000000000000815250858761332c565b6000600260008773ffffffffffffffffffffffffffffffffffffffff1673ffffffffffffffffffffffffffffffffffffffff1681526020019081526020016000206040518060a0016040529081600082018054612dc4906143eb565b80601f0160208091040260200160405190810160405280929190818152602001828054612df0906143eb565b8015612e3d5780601f10612e1257610100808354040283529160200191612e3d565b820191906000526020600020905b815481529060010190602001808311612e2057829003601f168201915b505050505081526020016001820160009054906101000a900473ffffffffffffffffffffffffffffffffffffffff1673ffffffffffffffffffffffffffffffffffffffff1673ffffffffffffffffffffffffffffffffffffffff1681526020016001820160149054906101000a900460ff166005811115612ec157612ec0613b49565b5b6005811115612ed357612ed2613b49565b5b815260200160028201548152602001600382018054612ef1906143eb565b80601f0160208091040260200160405190810160405280929190818152602001828054612f1d906143eb565b8015612f6a5780601f10612f3f57610100808354040283529160200191612f6a565b820191906000526020600020905b815481529060010190602001808311612f4d57829003601f168201915b5050505050815250509050612f83816000015186612694565b8015612fb7575060026005811115612f9e57612f9d613b49565b5b81604001516005811115612fb557612fb4613b49565b5b145b1561305057426301e1338063ffffffff168260600151612fd791906141b4565b11156130255761301b6040518060400160405280601481526020017f436f6e74726163742069732076657269666965640000000000000000000000008152506131cf565b6001935050613077565b6130466040518060600160405280603c8152602001614b1d603c91396131cf565b6000935050613077565b6130716040518060800160405280605f8152602001614abe605f91396131cf565b60009350505b505092915050565b613087613151565b60005b81518110156130c9576130b68282815181106130a9576130a8613f7d565b5b60200260200101516129ca565b80806130c190613fdb565b91505061308a565b5050565b6130d5613151565b600073ffffffffffffffffffffffffffffffffffffffff168173ffffffffffffffffffffffffffffffffffffffff161415613145576040517f08c379a000000000000000000000000000000000000000000000000000000000815260040161313c90614989565b60405180910390fd5b61314e81613268565b50565b61315961359b565b73ffffffffffffffffffffffffffffffffffffffff16613177611ca6565b73ffffffffffffffffffffffffffffffffffffffff16146131cd576040517f08c379a00000000000000000000000000000000000000000000000000000000081526004016131c4906149f5565b60405180910390fd5b565b613265816040516024016131e39190613a49565b6040516020818303038152906040527f41304fac000000000000000000000000000000000000000000000000000000007bffffffffffffffffffffffffffffffffffffffffffffffffffffffff19166020820180517bffffffffffffffffffffffffffffffffffffffffffffffffffffffff83818316178352505050506135a3565b50565b60008060009054906101000a900473ffffffffffffffffffffffffffffffffffffffff169050816000806101000a81548173ffffffffffffffffffffffffffffffffffffffff021916908373ffffffffffffffffffffffffffffffffffffffff1602179055508173ffffffffffffffffffffffffffffffffffffffff168173ffffffffffffffffffffffffffffffffffffffff167f8be0079c531659141344cd1fd0a4f28419497f9722a3daafe3b4186f6b6457e060405160405180910390a35050565b6133c683838360405160240161334493929190614a15565b6040516020818303038152906040527f95ed0195000000000000000000000000000000000000000000000000000000007bffffffffffffffffffffffffffffffffffffffffffffffffffffffff19166020820180517bffffffffffffffffffffffffffffffffffffffffffffffffffffffff83818316178352505050506135a3565b505050565b6000600160008373ffffffffffffffffffffffffffffffffffffffff1673ffffffffffffffffffffffffffffffffffffffff168152602001908152602001600020905060005b8180549050811015613595578373ffffffffffffffffffffffffffffffffffffffff1682828154811061344757613446613f7d565b5b9060005260206000200160009054906101000a900473ffffffffffffffffffffffffffffffffffffffff1673ffffffffffffffffffffffffffffffffffffffff1614156135825781600183805490506134a09190614a5a565b815481106134b1576134b0613f7d565b5b9060005260206000200160009054906101000a900473ffffffffffffffffffffffffffffffffffffffff168282815481106134ef576134ee613f7d565b5b9060005260206000200160006101000a81548173ffffffffffffffffffffffffffffffffffffffff021916908373ffffffffffffffffffffffffffffffffffffffff1602179055508180548061354857613547614a8e565b5b6001900381819060005260206000200160006101000a81549073ffffffffffffffffffffffffffffffffffffffff02191690559055613595565b808061358d90613fdb565b915050613411565b50505050565b600033905090565b60008151905060006a636f6e736f6c652e6c6f679050602083016000808483855afa5050505050565b8280546135d8906143eb565b90600052602060002090601f0160209004810192826135fa5760008555613641565b82601f1061361357805160ff1916838001178555613641565b82800160010185558215613641579182015b82811115613640578251825591602001919060010190613625565b5b50905061364e9190613652565b5090565b5b8082111561366b576000816000905550600101613653565b5090565b6000604051905090565b600080fd5b600080fd5b600080fd5b6000601f19601f8301169050919050565b7f4e487b7100000000000000000000000000000000000000000000000000000000600052604160045260246000fd5b6136d182613688565b810181811067ffffffffffffffff821117156136f0576136ef613699565b5b80604052505050565b600061370361366f565b905061370f82826136c8565b919050565b600067ffffffffffffffff82111561372f5761372e613699565b5b602082029050602081019050919050565b600080fd5b600073ffffffffffffffffffffffffffffffffffffffff82169050919050565b600061377082613745565b9050919050565b61378081613765565b811461378b57600080fd5b50565b60008135905061379d81613777565b92915050565b60006137b66137b184613714565b6136f9565b905080838252602082019050602084028301858111156137d9576137d8613740565b5b835b8181101561380257806137ee888261378e565b8452602084019350506020810190506137db565b5050509392505050565b600082601f83011261382157613820613683565b5b81356138318482602086016137a3565b91505092915050565b6000602082840312156138505761384f613679565b5b600082013567ffffffffffffffff81111561386e5761386d61367e565b5b61387a8482850161380c565b91505092915050565b600080fd5b600067ffffffffffffffff8211156138a3576138a2613699565b5b6138ac82613688565b9050602081019050919050565b82818337600083830152505050565b60006138db6138d684613888565b6136f9565b9050828152602081018484840111156138f7576138f6613883565b5b6139028482856138b9565b509392505050565b600082601f83011261391f5761391e613683565b5b813561392f8482602086016138c8565b91505092915050565b6000806040838503121561394f5761394e613679565b5b600061395d8582860161378e565b925050602083013567ffffffffffffffff81111561397e5761397d61367e565b5b61398a8582860161390a565b9150509250929050565b6000602082840312156139aa576139a9613679565b5b60006139b88482850161378e565b91505092915050565b600081519050919050565b600082825260208201905092915050565b60005b838110156139fb5780820151818401526020810190506139e0565b83811115613a0a576000848401525b50505050565b6000613a1b826139c1565b613a2581856139cc565b9350613a358185602086016139dd565b613a3e81613688565b840191505092915050565b60006020820190508181036000830152613a638184613a10565b905092915050565b600067ffffffffffffffff82169050919050565b613a8881613a6b565b82525050565b6000602082019050613aa36000830184613a7f565b92915050565b6000819050919050565b613abc81613aa9565b8114613ac757600080fd5b50565b600081359050613ad981613ab3565b92915050565b60008060408385031215613af657613af5613679565b5b6000613b048582860161378e565b9250506020613b1585828601613aca565b9150509250929050565b613b2881613765565b82525050565b6000602082019050613b436000830184613b1f565b92915050565b7f4e487b7100000000000000000000000000000000000000000000000000000000600052602160045260246000fd5b60068110613b8957613b88613b49565b5b50565b6000819050613b9a82613b78565b919050565b6000613baa82613b8c565b9050919050565b613bba81613b9f565b82525050565b613bc981613aa9565b82525050565b600060a0820190508181036000830152613be98188613a10565b9050613bf86020830187613b1f565b613c056040830186613bb1565b613c126060830185613bc0565b8181036080830152613c248184613a10565b90509695505050505050565b600080600060608486031215613c4957613c48613679565b5b6000613c578682870161378e565b935050602084013567ffffffffffffffff811115613c7857613c7761367e565b5b613c848682870161390a565b925050604084013567ffffffffffffffff811115613ca557613ca461367e565b5b613cb18682870161390a565b9150509250925092565b600060a0820190508181036000830152613cd58188613a10565b9050613ce46020830187613b1f565b8181036040830152613cf68186613a10565b9050613d056060830185613bc0565b8181036080830152613d178184613a10565b90509695505050505050565b600081519050919050565b600082825260208201905092915050565b6000819050602082019050919050565b613d5881613765565b82525050565b6000613d6a8383613d4f565b60208301905092915050565b6000602082019050919050565b6000613d8e82613d23565b613d988185613d2e565b9350613da383613d3f565b8060005b83811015613dd4578151613dbb8882613d5e565b9750613dc683613d76565b925050600181019050613da7565b5085935050505092915050565b60006020820190508181036000830152613dfb8184613d83565b905092915050565b60008060408385031215613e1a57613e19613679565b5b6000613e288582860161378e565b9250506020613e398582860161378e565b9150509250929050565b60008060408385031215613e5a57613e59613679565b5b600083013567ffffffffffffffff811115613e7857613e7761367e565b5b613e848582860161390a565b925050602083013567ffffffffffffffff811115613ea557613ea461367e565b5b613eb18582860161390a565b9150509250929050565b60008115159050919050565b613ed081613ebb565b82525050565b6000602082019050613eeb6000830184613ec7565b92915050565b600063ffffffff82169050919050565b613f0a81613ef1565b82525050565b6000602082019050613f256000830184613f01565b92915050565b60068110613f3857600080fd5b50565b600081359050613f4a81613f2b565b92915050565b600060208284031215613f6657613f65613679565b5b6000613f7484828501613f3b565b91505092915050565b7f4e487b7100000000000000000000000000000000000000000000000000000000600052603260045260246000fd5b7f4e487b7100000000000000000000000000000000000000000000000000000000600052601160045260246000fd5b6000613fe682613aa9565b91507fffffffffffffffffffffffffffffffffffffffffffffffffffffffffffffffff82141561401957614018613fac565b5b600182019050919050565b7f446f6d61696e206e616d6520697320656d707479000000000000000000000000600082015250565b600061405a6014836139cc565b915061406582614024565b602082019050919050565b600060208201905081810360008301526140898161404d565b9050919050565b7f436f6e7472616374206164647265737320697320656d70747900000000000000600082015250565b60006140c66019836139cc565b91506140d182614090565b602082019050919050565b600060208201905081810360008301526140f5816140b9565b9050919050565b7f4f6e6c7920746865206f776e6572206f662074686520636f6e7472616374206f60008201527f722044414f2063616e2072656e65772074686520646f6d61696e206d6170706960208201527f6e672e0000000000000000000000000000000000000000000000000000000000604082015250565b600061417e6043836139cc565b9150614189826140fc565b606082019050919050565b600060208201905081810360008301526141ad81614171565b9050919050565b60006141bf82613aa9565b91506141ca83613aa9565b9250827fffffffffffffffffffffffffffffffffffffffffffffffffffffffffffffffff038211156141ff576141fe613fac565b5b828201905092915050565b7f506c656173652073656e6420302e303520657468657220746f2072656e65772060008201527f74686520646f6d61696e2e000000000000000000000000000000000000000000602082015250565b6000614266602b836139cc565b91506142718261420a565b604082019050919050565b6000602082019050818103600083015261429581614259565b9050919050565b600081905092915050565b50565b60006142b760008361429c565b91506142c2826142a7565b600082019050919050565b60006142d8826142aa565b9150819050919050565b600081905092915050565b60006142f8826139c1565b61430281856142e2565b93506143128185602086016139dd565b80840191505092915050565b600061432a82846142ed565b915081905092915050565b600060208201905061434a6000830184613bb1565b92915050565b7f4661696c656420746f2073656e64204574686572210000000000000000000000600082015250565b60006143866015836139cc565b915061439182614350565b602082019050919050565b600060208201905081810360008301526143b581614379565b9050919050565b7f4e487b7100000000000000000000000000000000000000000000000000000000600052602260045260246000fd5b6000600282049050600182168061440357607f821691505b60208210811415614417576144166143bc565b5b50919050565b60008190508160005260206000209050919050565b6000815461443f816143eb565b61444981866142e2565b945060018216600081146144645760018114614475576144a8565b60ff198316865281860193506144a8565b61447e8561441d565b60005b838110156144a057815481890152600182019150602081019050614481565b838801955050505b50505092915050565b60006144bd8284614432565b915081905092915050565b7f506c656173652073656e6420302e303520657468657220746f2073746172742060008201527f7468652076616c69646174696f6e2070726f636573732e000000000000000000602082015250565b60006145246037836139cc565b915061452f826144c8565b604082019050919050565b6000602082019050818103600083015261455381614517565b9050919050565b7f436f6e7472616374206164647265737320616c7265616479206861732061206460008201527f6f6d61696e207265676973746572656420696e20746865207374727563742e00602082015250565b60006145b6603f836139cc565b91506145c18261455a565b604082019050919050565b600060208201905081810360008301526145e5816145a9565b9050919050565b60006145f782613a6b565b915067ffffffffffffffff82141561461257614611613fac565b5b600182019050919050565b7f436f6e7472616374207265766f6b65642062792044414f000000000000000000600082015250565b60006146536017836139cc565b915061465e8261461d565b602082019050919050565b6000602082019050818103600083015261468281614646565b9050919050565b7f4f6e6c7920746865206f776e6572206f662074686520646f6d61696e2063616e60008201527f2075706461746520746865206f776e6572000000000000000000000000000000602082015250565b60006146e56031836139cc565b91506146f082614689565b604082019050919050565b60006020820190508181036000830152614714816146d8565b9050919050565b7f7570646174654f776e65722072657175696572657320302e3035206574686572600082015250565b60006147516020836139cc565b915061475c8261471b565b602082019050919050565b6000602082019050818103600083015261478081614744565b9050919050565b7f596f7520617265206e6f7420746865206f776e6572206f662074686520636f6e60008201527f747261637420746f207472616e7366657220646f6d61696e732e000000000000602082015250565b60006147e3603a836139cc565b91506147ee82614787565b604082019050919050565b60006020820190508181036000830152614812816147d6565b9050919050565b7f436f6e7472616374206973206e6f7420617070726f7665642e00000000000000600082015250565b600061484f6019836139cc565b915061485a82614819565b602082019050919050565b6000602082019050818103600083015261487e81614842565b9050919050565b7f506c656173652073656e6420302e303520657468657220746f2073746172742060008201527f7472616e73666572436f6e74726163742070726f636573732e00000000000000602082015250565b60006148e16039836139cc565b91506148ec82614885565b604082019050919050565b60006020820190508181036000830152614910816148d4565b9050919050565b7f4f776e61626c653a206e6577206f776e657220697320746865207a65726f206160008201527f6464726573730000000000000000000000000000000000000000000000000000602082015250565b60006149736026836139cc565b915061497e82614917565b604082019050919050565b600060208201905081810360008301526149a281614966565b9050919050565b7f4f776e61626c653a2063616c6c6572206973206e6f7420746865206f776e6572600082015250565b60006149df6020836139cc565b91506149ea826149a9565b602082019050919050565b60006020820190508181036000830152614a0e816149d2565b9050919050565b60006060820190508181036000830152614a2f8186613a10565b90508181036020830152614a438185613a10565b9050614a526040830184613b1f565b949350505050565b6000614a6582613aa9565b9150614a7083613aa9565b925082821015614a8357614a82613fac565b5b828203905092915050565b7f4e487b7100000000000000000000000000000000000000000000000000000000600052603160045260246000fdfe446f6d61696e206e616d6520616e6420636f6e7472616374206164647265737320646f206e6f74206d61746368206f7220636f6e7472616374206973206e6f7420617070726f7665642e20436865636b20636f6e7472616374207374617465446f6d61696e206e616d6520616e6420636f6e74726163742061646472657373206d617463682062757420646f6d61696e2069732065787069726564a2646970667358221220f6fafec8aefdab102615830b2455b88ca3bb63ca90fdab033217306ef28d7faa64736f6c63430008090033",
  "linkReferences": {},
  "deployedLinkReferences": {}
}