{
  "_format": "hh-sol-artifact-1",
  "contractName": "CertDao",
  "sourceName": "contracts/CertDao.sol",
  "abi": [
    {
      "inputs": [],
      "stateMutability": "nonpayable",
      "type": "constructor"
    },
    {
      "anonymous": false,
      "inputs": [
        {
          "indexed": true,
          "internalType": "address",
          "name": "contractAddress",
          "type": "address"
        },
        {
          "indexed": false,
          "internalType": "string",
          "name": "domainName",
          "type": "string"
        },
        {
          "indexed": false,
          "internalType": "enum CertDao.domainStatus",
          "name": "status",
          "type": "uint8"
        }
      ],
      "name": "ContractApproved",
      "type": "event"
    },
    {
      "anonymous": false,
      "inputs": [
        {
          "indexed": true,
          "internalType": "address",
          "name": "contractAddress",
          "type": "address"
        },
        {
          "indexed": false,
          "internalType": "string",
          "name": "domainName",
          "type": "string"
        },
        {
          "indexed": false,
          "internalType": "string",
          "name": "description",
          "type": "string"
        }
      ],
      "name": "ContractExpired",
      "type": "event"
    },
    {
      "anonymous": false,
      "inputs": [
        {
          "indexed": true,
          "internalType": "address",
          "name": "contractAddress",
          "type": "address"
        },
        {
          "indexed": false,
          "internalType": "string",
          "name": "domainName",
          "type": "string"
        },
        {
          "indexed": false,
          "internalType": "string",
          "name": "description",
          "type": "string"
        }
      ],
      "name": "ContractManuallyFlag",
      "type": "event"
    },
    {
      "anonymous": false,
      "inputs": [
        {
          "indexed": true,
          "internalType": "address",
          "name": "contractAddress",
          "type": "address"
        },
        {
          "indexed": false,
          "internalType": "string",
          "name": "domainName",
          "type": "string"
        },
        {
          "indexed": false,
          "internalType": "string",
          "name": "description",
          "type": "string"
        }
      ],
      "name": "ContractRejected",
      "type": "event"
    },
    {
      "anonymous": false,
      "inputs": [
        {
          "indexed": true,
          "internalType": "address",
          "name": "contractAddress",
          "type": "address"
        },
        {
          "indexed": false,
          "internalType": "string",
          "name": "domainName",
          "type": "string"
        },
        {
          "indexed": false,
          "internalType": "enum CertDao.domainStatus",
          "name": "status",
          "type": "uint8"
        }
      ],
      "name": "ContractRenewed",
      "type": "event"
    },
    {
      "anonymous": false,
      "inputs": [
        {
          "indexed": true,
          "internalType": "address",
          "name": "contractAddress",
          "type": "address"
        },
        {
          "indexed": false,
          "internalType": "string",
          "name": "domainName",
          "type": "string"
        },
        {
          "indexed": false,
          "internalType": "string",
          "name": "description",
          "type": "string"
        }
      ],
      "name": "ContractRevoked",
      "type": "event"
    },
    {
      "anonymous": false,
      "inputs": [
        {
          "indexed": true,
          "internalType": "address",
          "name": "contractAddress",
          "type": "address"
        },
        {
          "indexed": false,
          "internalType": "string",
          "name": "domainName",
          "type": "string"
        }
      ],
      "name": "ContractSubmittedForValidation",
      "type": "event"
    },
    {
      "anonymous": false,
      "inputs": [
        {
          "indexed": true,
          "internalType": "address",
          "name": "previousOwner",
          "type": "address"
        },
        {
          "indexed": true,
          "internalType": "address",
          "name": "newOwner",
          "type": "address"
        }
      ],
      "name": "OwnershipTransferred",
      "type": "event"
    },
    {
      "inputs": [],
      "name": "CERTDAO_DOMAIN",
      "outputs": [
        {
          "internalType": "string",
          "name": "",
          "type": "string"
        }
      ],
      "stateMutability": "view",
      "type": "function"
    },
    {
      "inputs": [],
      "name": "EXPIRATION_PERIOD",
      "outputs": [
        {
          "internalType": "uint32",
          "name": "",
          "type": "uint32"
        }
      ],
      "stateMutability": "view",
      "type": "function"
    },
    {
      "inputs": [],
      "name": "PAY_AMOUNT",
      "outputs": [
        {
          "internalType": "uint64",
          "name": "",
          "type": "uint64"
        }
      ],
      "stateMutability": "view",
      "type": "function"
    },
    {
      "inputs": [
        {
          "internalType": "address",
          "name": "contractAddress",
          "type": "address"
        }
      ],
      "name": "approve",
      "outputs": [],
      "stateMutability": "nonpayable",
      "type": "function"
    },
    {
      "inputs": [
        {
          "internalType": "address[]",
          "name": "contractAddresses",
          "type": "address[]"
        }
      ],
      "name": "batchApprove",
      "outputs": [],
      "stateMutability": "nonpayable",
      "type": "function"
    },
    {
      "inputs": [
        {
          "internalType": "address[]",
          "name": "contractAddresses",
          "type": "address[]"
        }
      ],
      "name": "batchRevoke",
      "outputs": [],
      "stateMutability": "nonpayable",
      "type": "function"
    },
    {
      "inputs": [
        {
          "internalType": "string",
          "name": "a",
          "type": "string"
        },
        {
          "internalType": "string",
          "name": "b",
          "type": "string"
        }
      ],
      "name": "compareStrings",
      "outputs": [
        {
          "internalType": "bool",
          "name": "",
          "type": "bool"
        }
      ],
      "stateMutability": "pure",
      "type": "function"
    },
    {
      "inputs": [
        {
          "internalType": "enum CertDao.domainStatus",
          "name": "status",
          "type": "uint8"
        }
      ],
      "name": "domainStatusToString",
      "outputs": [
        {
          "internalType": "string",
          "name": "",
          "type": "string"
        }
      ],
      "stateMutability": "pure",
      "type": "function"
    },
    {
      "inputs": [
        {
          "internalType": "address",
          "name": "ownerAddress",
          "type": "address"
        }
      ],
      "name": "getContractAddress",
      "outputs": [
        {
          "internalType": "address[]",
          "name": "",
          "type": "address[]"
        }
      ],
      "stateMutability": "view",
      "type": "function"
    },
    {
      "inputs": [
        {
          "internalType": "address",
          "name": "contractAddress",
          "type": "address"
        }
      ],
      "name": "getDomainDescription",
      "outputs": [
        {
          "internalType": "string",
          "name": "",
          "type": "string"
        }
      ],
      "stateMutability": "view",
      "type": "function"
    },
    {
      "inputs": [
        {
          "internalType": "address",
          "name": "contractAddress",
          "type": "address"
        }
      ],
      "name": "getDomainName",
      "outputs": [
        {
          "internalType": "string",
          "name": "",
          "type": "string"
        }
      ],
      "stateMutability": "view",
      "type": "function"
    },
    {
      "inputs": [
        {
          "internalType": "address",
          "name": "contractAddress",
          "type": "address"
        }
      ],
      "name": "getDomainOwner",
      "outputs": [
        {
          "internalType": "address",
          "name": "",
          "type": "address"
        }
      ],
      "stateMutability": "view",
      "type": "function"
    },
    {
      "inputs": [
        {
          "internalType": "address",
          "name": "contractAddress",
          "type": "address"
        }
      ],
      "name": "getDomainStatus",
      "outputs": [
        {
          "internalType": "string",
          "name": "",
          "type": "string"
        }
      ],
      "stateMutability": "view",
      "type": "function"
    },
    {
      "inputs": [
        {
          "internalType": "address",
          "name": "contractAddress",
          "type": "address"
        },
        {
          "internalType": "string",
          "name": "domainName",
          "type": "string"
        },
        {
          "internalType": "string",
          "name": "description",
          "type": "string"
        }
      ],
      "name": "manualFlag",
      "outputs": [],
      "stateMutability": "nonpayable",
      "type": "function"
    },
    {
      "inputs": [],
      "name": "owner",
      "outputs": [
        {
          "internalType": "address",
          "name": "",
          "type": "address"
        }
      ],
      "stateMutability": "view",
      "type": "function"
    },
    {
      "inputs": [
        {
          "internalType": "address",
          "name": "",
          "type": "address"
        },
        {
          "internalType": "uint256",
          "name": "",
          "type": "uint256"
        }
      ],
      "name": "ownerToContractAddresses",
      "outputs": [
        {
          "internalType": "address",
          "name": "",
          "type": "address"
        }
      ],
      "stateMutability": "view",
      "type": "function"
    },
    {
      "inputs": [
        {
          "internalType": "address",
          "name": "contractAddress",
          "type": "address"
        },
        {
          "internalType": "string",
          "name": "domainName",
          "type": "string"
        }
      ],
      "name": "renew",
      "outputs": [],
      "stateMutability": "payable",
      "type": "function"
    },
    {
      "inputs": [],
      "name": "renounceOwnership",
      "outputs": [],
      "stateMutability": "nonpayable",
      "type": "function"
    },
    {
      "inputs": [
        {
          "internalType": "address",
          "name": "contractAddress",
          "type": "address"
        }
      ],
      "name": "returnAllContractInfo",
      "outputs": [
        {
          "internalType": "string",
          "name": "",
          "type": "string"
        },
        {
          "internalType": "address",
          "name": "",
          "type": "address"
        },
        {
          "internalType": "string",
          "name": "",
          "type": "string"
        },
        {
          "internalType": "uint256",
          "name": "",
          "type": "uint256"
        },
        {
          "internalType": "string",
          "name": "",
          "type": "string"
        }
      ],
      "stateMutability": "view",
      "type": "function"
    },
    {
      "inputs": [
        {
          "internalType": "address",
          "name": "contractAddress",
          "type": "address"
        }
      ],
      "name": "revoke",
      "outputs": [],
      "stateMutability": "nonpayable",
      "type": "function"
    },
    {
      "inputs": [
        {
          "internalType": "address",
          "name": "contractAddress",
          "type": "address"
        },
        {
          "internalType": "string",
          "name": "domainName",
          "type": "string"
        },
        {
          "internalType": "string",
          "name": "description",
          "type": "string"
        }
      ],
      "name": "submitForValidation",
      "outputs": [],
      "stateMutability": "payable",
      "type": "function"
    },
    {
      "inputs": [],
      "name": "totalContractAddressMappings",
      "outputs": [
        {
          "internalType": "uint64",
          "name": "",
          "type": "uint64"
        }
      ],
      "stateMutability": "view",
      "type": "function"
    },
    {
      "inputs": [
        {
          "internalType": "address",
          "name": "newContractAddress",
          "type": "address"
        },
        {
          "internalType": "string",
          "name": "domainOwner",
          "type": "string"
        }
      ],
      "name": "transferContractToNewDomain",
      "outputs": [],
      "stateMutability": "payable",
      "type": "function"
    },
    {
      "inputs": [
        {
          "internalType": "address",
          "name": "newOwner",
          "type": "address"
        }
      ],
      "name": "transferOwnership",
      "outputs": [],
      "stateMutability": "nonpayable",
      "type": "function"
    },
    {
      "inputs": [
        {
          "internalType": "address",
          "name": "contractAddress",
          "type": "address"
        },
        {
          "internalType": "address",
          "name": "newDomainOwner",
          "type": "address"
        }
      ],
      "name": "updateOwner",
      "outputs": [],
      "stateMutability": "payable",
      "type": "function"
    },
    {
      "inputs": [
        {
          "internalType": "address",
          "name": "contractAddress",
          "type": "address"
        },
        {
          "internalType": "string",
          "name": "domainName",
          "type": "string"
        }
      ],
      "name": "verify",
      "outputs": [
        {
          "internalType": "bool",
          "name": "",
          "type": "bool"
        }
      ],
      "stateMutability": "view",
      "type": "function"
    }
  ],
  "bytecode": "0x60806040523480156200001157600080fd5b5062000032620000266200021f60201b60201c565b6200022760201b60201c565b60006040518060a001604052806040518060400160405280600b81526020017f6365727464616f2e6e657400000000000000000000000000000000000000000081525081526020016200008a620002eb60201b60201c565b73ffffffffffffffffffffffffffffffffffffffff16815260200160026005811115620000bc57620000bb620003c4565b5b815260200163bc19138042620000d391906200042c565b81526020016040518060400160405280601581526020017f4365727444616f204f776e65722067656e697369730000000000000000000000815250815250905080600260003073ffffffffffffffffffffffffffffffffffffffff1673ffffffffffffffffffffffffffffffffffffffff16815260200190815260200160002060008201518160000190805190602001906200017192919062000314565b5060208201518160010160006101000a81548173ffffffffffffffffffffffffffffffffffffffff021916908373ffffffffffffffffffffffffffffffffffffffff16021790555060408201518160010160146101000a81548160ff02191690836005811115620001e757620001e6620003c4565b5b02179055506060820151816002015560808201518160030190805190602001906200021492919062000314565b5090505050620004ee565b600033905090565b60008060009054906101000a900473ffffffffffffffffffffffffffffffffffffffff169050816000806101000a81548173ffffffffffffffffffffffffffffffffffffffff021916908373ffffffffffffffffffffffffffffffffffffffff1602179055508173ffffffffffffffffffffffffffffffffffffffff168173ffffffffffffffffffffffffffffffffffffffff167f8be0079c531659141344cd1fd0a4f28419497f9722a3daafe3b4186f6b6457e060405160405180910390a35050565b60008060009054906101000a900473ffffffffffffffffffffffffffffffffffffffff16905090565b8280546200032290620004b8565b90600052602060002090601f01602090048101928262000346576000855562000392565b82601f106200036157805160ff191683800117855562000392565b8280016001018555821562000392579182015b828111156200039157825182559160200191906001019062000374565b5b509050620003a19190620003a5565b5090565b5b80821115620003c0576000816000905550600101620003a6565b5090565b7f4e487b7100000000000000000000000000000000000000000000000000000000600052602160045260246000fd5b6000819050919050565b7f4e487b7100000000000000000000000000000000000000000000000000000000600052601160045260246000fd5b60006200043982620003f3565b91506200044683620003f3565b9250827fffffffffffffffffffffffffffffffffffffffffffffffffffffffffffffffff038211156200047e576200047d620003fd565b5b828201905092915050565b7f4e487b7100000000000000000000000000000000000000000000000000000000600052602260045260246000fd5b60006002820490506001821680620004d157607f821691505b60208210811415620004e857620004e762000489565b5b50919050565b61490c80620004fe6000396000f3fe6080604052600436106101815760003560e01c80638da5cb5b116100d1578063bed34bba1161008a578063daea85c511610064578063daea85c514610588578063e8fc9273146105b1578063ea5ed3db146105ee578063f2fde38b1461061757610181565b8063bed34bba146104f5578063ca75960b14610532578063cec3e3171461055d57610181565b80638da5cb5b146103ed5780638e7d5a6814610418578063945507cb146104555780639900650014610480578063a6348c80146104bd578063bc618391146104d957610181565b80635036598f1161013e578063715018a611610118578063715018a61461035457806372b0a7ed1461036b57806374a8f103146103875780637e3638b5146103b057610181565b80635036598f146102ad57806354c2b809146102d6578063622bc90e1461031757610181565b8063011002df14610186578063043c6de3146101af5780630694340e146101cb5780630a0d924714610208578063180e5c21146102335780633a61053c14610270575b600080fd5b34801561019257600080fd5b506101ad60048036038101906101a89190613578565b610640565b005b6101c960048036038101906101c49190613676565b61068e565b005b3480156101d757600080fd5b506101f260048036038101906101ed91906136d2565b610a7c565b6040516101ff9190613787565b60405180910390f35b34801561021457600080fd5b5061021d610bc0565b60405161022a91906137cc565b60405180910390f35b34801561023f57600080fd5b5061025a6004803603810190610255919061381d565b610bcb565b604051610267919061386c565b60405180910390f35b34801561027c57600080fd5b50610297600480360381019061029291906138ac565b610c19565b6040516102a49190613787565b60405180910390f35b3480156102b957600080fd5b506102d460048036038101906102cf91906138d9565b610ed4565b005b3480156102e257600080fd5b506102fd60048036038101906102f891906136d2565b61110f565b60405161030e959493929190613973565b60405180910390f35b34801561032357600080fd5b5061033e600480360381019061033991906136d2565b6113c6565b60405161034b9190613a99565b60405180910390f35b34801561036057600080fd5b50610369611493565b005b610385600480360381019061038091906138d9565b6114a7565b005b34801561039357600080fd5b506103ae60048036038101906103a991906136d2565b6119c1565b005b3480156103bc57600080fd5b506103d760048036038101906103d291906136d2565b611c16565b6040516103e49190613787565b60405180910390f35b3480156103f957600080fd5b50610402611d5a565b60405161040f919061386c565b60405180910390f35b34801561042457600080fd5b5061043f600480360381019061043a91906136d2565b611d83565b60405161044c9190613787565b60405180910390f35b34801561046157600080fd5b5061046a61204b565b6040516104779190613787565b60405180910390f35b34801561048c57600080fd5b506104a760048036038101906104a291906136d2565b612084565b6040516104b4919061386c565b60405180910390f35b6104d760048036038101906104d29190613abb565b6120f0565b005b6104f360048036038101906104ee9190613676565b6124ea565b005b34801561050157600080fd5b5061051c60048036038101906105179190613afb565b6126d1565b6040516105299190613b8e565b60405180910390f35b34801561053e57600080fd5b5061054761272a565b6040516105549190613bc8565b60405180910390f35b34801561056957600080fd5b50610572612732565b60405161057f91906137cc565b60405180910390f35b34801561059457600080fd5b506105af60048036038101906105aa91906136d2565b61274c565b005b3480156105bd57600080fd5b506105d860048036038101906105d39190613676565b6129a3565b6040516105e59190613b8e565b60405180910390f35b3480156105fa57600080fd5b5061061560048036038101906106109190613578565b612d04565b005b34801561062357600080fd5b5061063e600480360381019061063991906136d2565b612d52565b005b610648612dd6565b60005b815181101561068a5761067782828151811061066a57610669613be3565b5b60200260200101516119c1565b808061068290613c41565b91505061064b565b5050565b6106988282612e54565b600260008373ffffffffffffffffffffffffffffffffffffffff1673ffffffffffffffffffffffffffffffffffffffff16815260200190815260200160002060010160009054906101000a900473ffffffffffffffffffffffffffffffffffffffff1673ffffffffffffffffffffffffffffffffffffffff163373ffffffffffffffffffffffffffffffffffffffff1614806107665750610737611d5a565b73ffffffffffffffffffffffffffffffffffffffff163373ffffffffffffffffffffffffffffffffffffffff16145b6107a5576040517f08c379a000000000000000000000000000000000000000000000000000000000815260040161079c90613d22565b60405180910390fd5b600260058111156107b9576107b8613d42565b5b600260008473ffffffffffffffffffffffffffffffffffffffff1673ffffffffffffffffffffffffffffffffffffffff16815260200190815260200160002060010160149054906101000a900460ff16600581111561081b5761081a613d42565b5b1415610a7857426301e1338063ffffffff16600260008573ffffffffffffffffffffffffffffffffffffffff1673ffffffffffffffffffffffffffffffffffffffff1681526020019081526020016000206002015461087a9190613d71565b1015610a385766b1a2bc2ec5000067ffffffffffffffff1634146108d3576040517f08c379a00000000000000000000000000000000000000000000000000000000081526004016108ca90613e39565b60405180910390fd5b6000806108de611d5a565b73ffffffffffffffffffffffffffffffffffffffff1666b1a2bc2ec5000067ffffffffffffffff1660405161091290613e8a565b60006040518083038185875af1925050503d806000811461094f576040519150601f19603f3d011682016040523d82523d6000602084013e610954565b606091505b509150915081610999576040517f08c379a000000000000000000000000000000000000000000000000000000000815260040161099090613eeb565b60405180910390fd5b42600260008673ffffffffffffffffffffffffffffffffffffffff1673ffffffffffffffffffffffffffffffffffffffff168152602001908152602001600020600201819055508373ffffffffffffffffffffffffffffffffffffffff167fd9229190af804fd9bd07bfdc0d8e7c2d91d5f3173cc97b9ef1d6bbcbce817c5b846002604051610a29929190613f53565b60405180910390a25050610a77565b610a766040518060400160405280601a81526020017f446f6d61696e206973206e6f742065787069726564207965742e000000000000815250612f0d565b5b5b5050565b6060600073ffffffffffffffffffffffffffffffffffffffff168273ffffffffffffffffffffffffffffffffffffffff161415610aee576040517f08c379a0000000000000000000000000000000000000000000000000000000008152600401610ae590613fcf565b60405180910390fd5b600260008373ffffffffffffffffffffffffffffffffffffffff1673ffffffffffffffffffffffffffffffffffffffff1681526020019081526020016000206003018054610b3b9061401e565b80601f0160208091040260200160405190810160405280929190818152602001828054610b679061401e565b8015610bb45780601f10610b8957610100808354040283529160200191610bb4565b820191906000526020600020905b815481529060010190602001808311610b9757829003601f168201915b50505050509050919050565b66b1a2bc2ec5000081565b60016020528160005260406000208181548110610be757600080fd5b906000526020600020016000915091509054906101000a900473ffffffffffffffffffffffffffffffffffffffff1681565b606060006005811115610c2f57610c2e613d42565b5b826005811115610c4257610c41613d42565b5b1415610c85576040518060400160405280600781526020017f70656e64696e67000000000000000000000000000000000000000000000000008152509050610ecf565b60016005811115610c9957610c98613d42565b5b826005811115610cac57610cab613d42565b5b1415610cef576040518060400160405280600781526020017f65787069726564000000000000000000000000000000000000000000000000008152509050610ecf565b60026005811115610d0357610d02613d42565b5b826005811115610d1657610d15613d42565b5b1415610d59576040518060400160405280600881526020017f617070726f7665640000000000000000000000000000000000000000000000008152509050610ecf565b60036005811115610d6d57610d6c613d42565b5b826005811115610d8057610d7f613d42565b5b1415610dc3576040518060400160405280600881526020017f72656a65637465640000000000000000000000000000000000000000000000008152509050610ecf565b60046005811115610dd757610dd6613d42565b5b826005811115610dea57610de9613d42565b5b1415610e2d576040518060400160405280600781526020017f7265766f6b6564000000000000000000000000000000000000000000000000008152509050610ecf565b600580811115610e4057610e3f613d42565b5b826005811115610e5357610e52613d42565b5b1415610e96576040518060400160405280600a81526020017f6d616e75616c466c6167000000000000000000000000000000000000000000008152509050610ecf565b6040518060400160405280600781526020017f756e6b6e6f776e0000000000000000000000000000000000000000000000000081525090505b919050565b610edc612dd6565b600073ffffffffffffffffffffffffffffffffffffffff168373ffffffffffffffffffffffffffffffffffffffff161415610f4c576040517f08c379a0000000000000000000000000000000000000000000000000000000008152600401610f4390613fcf565b60405180910390fd5b6005600260008573ffffffffffffffffffffffffffffffffffffffff1673ffffffffffffffffffffffffffffffffffffffff16815260200190815260200160002060010160146101000a81548160ff02191690836005811115610fb257610fb1613d42565b5b021790555060008251146110185781600260008573ffffffffffffffffffffffffffffffffffffffff1673ffffffffffffffffffffffffffffffffffffffff168152602001908152602001600020600001908051906020019061101692919061330a565b505b60008151146110795780600260008573ffffffffffffffffffffffffffffffffffffffff1673ffffffffffffffffffffffffffffffffffffffff168152602001908152602001600020600301908051906020019061107792919061330a565b505b8273ffffffffffffffffffffffffffffffffffffffff167f333fcfe85110a1e880e493c16a2a2c2eb62ab038f109ca7467d26d641bb5699d600260008673ffffffffffffffffffffffffffffffffffffffff1673ffffffffffffffffffffffffffffffffffffffff168152602001908152602001600020600001836040516111029291906140e5565b60405180910390a2505050565b60606000606060006060600260008773ffffffffffffffffffffffffffffffffffffffff1673ffffffffffffffffffffffffffffffffffffffff168152602001908152602001600020600001600260008873ffffffffffffffffffffffffffffffffffffffff1673ffffffffffffffffffffffffffffffffffffffff16815260200190815260200160002060010160009054906101000a900473ffffffffffffffffffffffffffffffffffffffff16611216600260008a73ffffffffffffffffffffffffffffffffffffffff1673ffffffffffffffffffffffffffffffffffffffff16815260200190815260200160002060010160149054906101000a900460ff16610c19565b600260008a73ffffffffffffffffffffffffffffffffffffffff1673ffffffffffffffffffffffffffffffffffffffff16815260200190815260200160002060020154600260008b73ffffffffffffffffffffffffffffffffffffffff1673ffffffffffffffffffffffffffffffffffffffff1681526020019081526020016000206003018480546112a79061401e565b80601f01602080910402602001604051908101604052809291908181526020018280546112d39061401e565b80156113205780601f106112f557610100808354040283529160200191611320565b820191906000526020600020905b81548152906001019060200180831161130357829003601f168201915b505050505094508080546113339061401e565b80601f016020809104026020016040519081016040528092919081815260200182805461135f9061401e565b80156113ac5780601f10611381576101008083540402835291602001916113ac565b820191906000526020600020905b81548152906001019060200180831161138f57829003601f168201915b505050505090509450945094509450945091939590929450565b6060600160008373ffffffffffffffffffffffffffffffffffffffff1673ffffffffffffffffffffffffffffffffffffffff16815260200190815260200160002080548060200260200160405190810160405280929190818152602001828054801561148757602002820191906000526020600020905b8160009054906101000a900473ffffffffffffffffffffffffffffffffffffffff1673ffffffffffffffffffffffffffffffffffffffff168152602001906001019080831161143d575b50505050509050919050565b61149b612dd6565b6114a56000612fa6565b565b6114e76040518060400160405280601d81526020017f446f6d61696e204e616d653a2025732c20436f6e74726163743a202573000000815250838561306a565b6114f18383612e54565b66b1a2bc2ec5000067ffffffffffffffff163414611544576040517f08c379a000000000000000000000000000000000000000000000000000000000815260040161153b9061418e565b60405180910390fd5b611627600260008573ffffffffffffffffffffffffffffffffffffffff1673ffffffffffffffffffffffffffffffffffffffff16815260200190815260200160002060000180546115949061401e565b80601f01602080910402602001604051908101604052809291908181526020018280546115c09061401e565b801561160d5780601f106115e25761010080835404028352916020019161160d565b820191906000526020600020905b8154815290600101906020018083116115f057829003601f168201915b5050505050604051806020016040528060008152506126d1565b611666576040517f08c379a000000000000000000000000000000000000000000000000000000000815260040161165d90614220565b60405180910390fd5b600080611671611d5a565b73ffffffffffffffffffffffffffffffffffffffff1666b1a2bc2ec5000067ffffffffffffffff166040516116a590613e8a565b60006040518083038185875af1925050503d80600081146116e2576040519150601f19603f3d011682016040523d82523d6000602084013e6116e7565b606091505b50915091508161172c576040517f08c379a000000000000000000000000000000000000000000000000000000000815260040161172390613eeb565b60405180910390fd5b60006040518060a001604052808681526020013373ffffffffffffffffffffffffffffffffffffffff1681526020016000600581111561176f5761176e613d42565b5b815260200142815260200185815250905080600260008873ffffffffffffffffffffffffffffffffffffffff1673ffffffffffffffffffffffffffffffffffffffff16815260200190815260200160002060008201518160000190805190602001906117dc92919061330a565b5060208201518160010160006101000a81548173ffffffffffffffffffffffffffffffffffffffff021916908373ffffffffffffffffffffffffffffffffffffffff16021790555060408201518160010160146101000a81548160ff0219169083600581111561184f5761184e613d42565b5b021790555060608201518160020155608082015181600301908051906020019061187a92919061330a565b50905050600160003373ffffffffffffffffffffffffffffffffffffffff1673ffffffffffffffffffffffffffffffffffffffff168152602001908152602001600020869080600181540180825580915050600190039060005260206000200160009091909190916101000a81548173ffffffffffffffffffffffffffffffffffffffff021916908373ffffffffffffffffffffffffffffffffffffffff1602179055506003600081819054906101000a900467ffffffffffffffff168092919061194490614240565b91906101000a81548167ffffffffffffffff021916908367ffffffffffffffff160217905550508573ffffffffffffffffffffffffffffffffffffffff167fe56a1dcfd351f0a9dc4f9bda49d191d54001ff53db4f795b8e146cf12660d139866040516119b19190613787565b60405180910390a2505050505050565b6119c9612dd6565b611a9d81600260008473ffffffffffffffffffffffffffffffffffffffff1673ffffffffffffffffffffffffffffffffffffffff1681526020019081526020016000206000018054611a1a9061401e565b80601f0160208091040260200160405190810160405280929190818152602001828054611a469061401e565b8015611a935780601f10611a6857610100808354040283529160200191611a93565b820191906000526020600020905b815481529060010190602001808311611a7657829003601f168201915b5050505050612e54565b60046005811115611ab157611ab0613d42565b5b600260008373ffffffffffffffffffffffffffffffffffffffff1673ffffffffffffffffffffffffffffffffffffffff16815260200190815260200160002060010160149054906101000a900460ff166005811115611b1357611b12613d42565b5b14611c13576004600260008373ffffffffffffffffffffffffffffffffffffffff1673ffffffffffffffffffffffffffffffffffffffff16815260200190815260200160002060010160146101000a81548160ff02191690836005811115611b7e57611b7d613d42565b5b02179055508073ffffffffffffffffffffffffffffffffffffffff167fcf5a73a37bc6f798de8cf5a014571f0f3005949c4f8911c44ec304ee24941a78600260008473ffffffffffffffffffffffffffffffffffffffff1673ffffffffffffffffffffffffffffffffffffffff168152602001908152602001600020600001604051611c0a91906142bd565b60405180910390a25b50565b6060600073ffffffffffffffffffffffffffffffffffffffff168273ffffffffffffffffffffffffffffffffffffffff161415611c88576040517f08c379a0000000000000000000000000000000000000000000000000000000008152600401611c7f90613fcf565b60405180910390fd5b600260008373ffffffffffffffffffffffffffffffffffffffff1673ffffffffffffffffffffffffffffffffffffffff1681526020019081526020016000206000018054611cd59061401e565b80601f0160208091040260200160405190810160405280929190818152602001828054611d019061401e565b8015611d4e5780601f10611d2357610100808354040283529160200191611d4e565b820191906000526020600020905b815481529060010190602001808311611d3157829003601f168201915b50505050509050919050565b60008060009054906101000a900473ffffffffffffffffffffffffffffffffffffffff16905090565b6060600073ffffffffffffffffffffffffffffffffffffffff168273ffffffffffffffffffffffffffffffffffffffff161415611df5576040517f08c379a0000000000000000000000000000000000000000000000000000000008152600401611dec90613fcf565b60405180910390fd5b6000600260008473ffffffffffffffffffffffffffffffffffffffff1673ffffffffffffffffffffffffffffffffffffffff1681526020019081526020016000206040518060a0016040529081600082018054611e519061401e565b80601f0160208091040260200160405190810160405280929190818152602001828054611e7d9061401e565b8015611eca5780601f10611e9f57610100808354040283529160200191611eca565b820191906000526020600020905b815481529060010190602001808311611ead57829003601f168201915b505050505081526020016001820160009054906101000a900473ffffffffffffffffffffffffffffffffffffffff1673ffffffffffffffffffffffffffffffffffffffff1673ffffffffffffffffffffffffffffffffffffffff1681526020016001820160149054906101000a900460ff166005811115611f4e57611f4d613d42565b5b6005811115611f6057611f5f613d42565b5b815260200160028201548152602001600382018054611f7e9061401e565b80601f0160208091040260200160405190810160405280929190818152602001828054611faa9061401e565b8015611ff75780601f10611fcc57610100808354040283529160200191611ff7565b820191906000526020600020905b815481529060010190602001808311611fda57829003601f168201915b5050505050815250509050426301e1338063ffffffff16826060015161201d9190613d71565b10156120355761202d6001610c19565b915050612046565b6120428160400151610c19565b9150505b919050565b6040518060400160405280600b81526020017f6365727464616f2e6e657400000000000000000000000000000000000000000081525081565b6000600260008373ffffffffffffffffffffffffffffffffffffffff1673ffffffffffffffffffffffffffffffffffffffff16815260200190815260200160002060010160009054906101000a900473ffffffffffffffffffffffffffffffffffffffff169050919050565b600073ffffffffffffffffffffffffffffffffffffffff168273ffffffffffffffffffffffffffffffffffffffff161415612160576040517f08c379a000000000000000000000000000000000000000000000000000000000815260040161215790613fcf565b60405180910390fd5b600073ffffffffffffffffffffffffffffffffffffffff168173ffffffffffffffffffffffffffffffffffffffff1614156121d0576040517f08c379a00000000000000000000000000000000000000000000000000000000081526004016121c79061433e565b60405180910390fd5b66b1a2bc2ec5000067ffffffffffffffff163414612223576040517f08c379a000000000000000000000000000000000000000000000000000000000815260040161221a906143d0565b60405180910390fd5b600260008373ffffffffffffffffffffffffffffffffffffffff1673ffffffffffffffffffffffffffffffffffffffff16815260200190815260200160002060010160009054906101000a900473ffffffffffffffffffffffffffffffffffffffff1673ffffffffffffffffffffffffffffffffffffffff163373ffffffffffffffffffffffffffffffffffffffff16146122f3576040517f08c379a00000000000000000000000000000000000000000000000000000000081526004016122ea90614462565b60405180910390fd5b6000806122fe611d5a565b73ffffffffffffffffffffffffffffffffffffffff1666b1a2bc2ec5000067ffffffffffffffff1660405161233290613e8a565b60006040518083038185875af1925050503d806000811461236f576040519150601f19603f3d011682016040523d82523d6000602084013e612374565b606091505b5091509150816123b9576040517f08c379a00000000000000000000000000000000000000000000000000000000081526004016123b090613eeb565b60405180910390fd5b82600260008673ffffffffffffffffffffffffffffffffffffffff1673ffffffffffffffffffffffffffffffffffffffff16815260200190815260200160002060010160006101000a81548173ffffffffffffffffffffffffffffffffffffffff021916908373ffffffffffffffffffffffffffffffffffffffff160217905550600160008473ffffffffffffffffffffffffffffffffffffffff1673ffffffffffffffffffffffffffffffffffffffff168152602001908152602001600020849080600181540180825580915050600190039060005260206000200160009091909190916101000a81548173ffffffffffffffffffffffffffffffffffffffff021916908373ffffffffffffffffffffffffffffffffffffffff1602179055506124e48433613109565b50505050565b6124f48282612e54565b600260008373ffffffffffffffffffffffffffffffffffffffff1673ffffffffffffffffffffffffffffffffffffffff16815260200190815260200160002060010160009054906101000a900473ffffffffffffffffffffffffffffffffffffffff1673ffffffffffffffffffffffffffffffffffffffff163373ffffffffffffffffffffffffffffffffffffffff16146125c4576040517f08c379a00000000000000000000000000000000000000000000000000000000081526004016125bb906144f4565b60405180910390fd5b600260058111156125d8576125d7613d42565b5b600260008473ffffffffffffffffffffffffffffffffffffffff1673ffffffffffffffffffffffffffffffffffffffff16815260200190815260200160002060010160149054906101000a900460ff16600581111561263a57612639613d42565b5b1461267a576040517f08c379a000000000000000000000000000000000000000000000000000000000815260040161267190614560565b60405180910390fd5b66b1a2bc2ec5000067ffffffffffffffff1634146126cd576040517f08c379a00000000000000000000000000000000000000000000000000000000081526004016126c4906145f2565b60405180910390fd5b5050565b6000816040516020016126e4919061464e565b604051602081830303815290604052805190602001208360405160200161270b919061464e565b6040516020818303038152906040528051906020012014905092915050565b6301e1338081565b600360009054906101000a900467ffffffffffffffff1681565b612754612dd6565b61282881600260008473ffffffffffffffffffffffffffffffffffffffff1673ffffffffffffffffffffffffffffffffffffffff16815260200190815260200160002060000180546127a59061401e565b80601f01602080910402602001604051908101604052809291908181526020018280546127d19061401e565b801561281e5780601f106127f35761010080835404028352916020019161281e565b820191906000526020600020905b81548152906001019060200180831161280157829003601f168201915b5050505050612e54565b6002600581111561283c5761283b613d42565b5b600260008373ffffffffffffffffffffffffffffffffffffffff1673ffffffffffffffffffffffffffffffffffffffff16815260200190815260200160002060010160149054906101000a900460ff16600581111561289e5761289d613d42565b5b146129a05760028060008373ffffffffffffffffffffffffffffffffffffffff1673ffffffffffffffffffffffffffffffffffffffff16815260200190815260200160002060010160146101000a81548160ff0219169083600581111561290857612907613d42565b5b02179055508073ffffffffffffffffffffffffffffffffffffffff167f8011544f5939f920af965d629972e4c6fc410156953fb0e4be4ae1ddf5e9636a600260008473ffffffffffffffffffffffffffffffffffffffff1673ffffffffffffffffffffffffffffffffffffffff1681526020019081526020016000206000016002604051612997929190614665565b60405180910390a25b50565b60006129e56040518060400160405280600e81526020017f496e707574733a2025732c202573000000000000000000000000000000000000815250838561306a565b6129ef8383612e54565b6000600260008573ffffffffffffffffffffffffffffffffffffffff1673ffffffffffffffffffffffffffffffffffffffff1681526020019081526020016000206040518060a0016040529081600082018054612a4b9061401e565b80601f0160208091040260200160405190810160405280929190818152602001828054612a779061401e565b8015612ac45780601f10612a9957610100808354040283529160200191612ac4565b820191906000526020600020905b815481529060010190602001808311612aa757829003601f168201915b505050505081526020016001820160009054906101000a900473ffffffffffffffffffffffffffffffffffffffff1673ffffffffffffffffffffffffffffffffffffffff1673ffffffffffffffffffffffffffffffffffffffff1681526020016001820160149054906101000a900460ff166005811115612b4857612b47613d42565b5b6005811115612b5a57612b59613d42565b5b815260200160028201548152602001600382018054612b789061401e565b80601f0160208091040260200160405190810160405280929190818152602001828054612ba49061401e565b8015612bf15780601f10612bc657610100808354040283529160200191612bf1565b820191906000526020600020905b815481529060010190602001808311612bd457829003601f168201915b5050505050815250509050612c0a8160000151846126d1565b8015612c3e575060026005811115612c2557612c24613d42565b5b81604001516005811115612c3c57612c3b613d42565b5b145b15612cd757426301e1338063ffffffff168260600151612c5e9190613d71565b1115612cac57612ca26040518060400160405280601481526020017f436f6e7472616374206973207665726966696564000000000000000000000000815250612f0d565b6001915050612cfe565b612ccd6040518060600160405280603c815260200161489b603c9139612f0d565b6000915050612cfe565b612cf86040518060800160405280605f815260200161483c605f9139612f0d565b60009150505b92915050565b612d0c612dd6565b60005b8151811015612d4e57612d3b828281518110612d2e57612d2d613be3565b5b602002602001015161274c565b8080612d4690613c41565b915050612d0f565b5050565b612d5a612dd6565b600073ffffffffffffffffffffffffffffffffffffffff168173ffffffffffffffffffffffffffffffffffffffff161415612dca576040517f08c379a0000000000000000000000000000000000000000000000000000000008152600401612dc190614707565b60405180910390fd5b612dd381612fa6565b50565b612dde6132d9565b73ffffffffffffffffffffffffffffffffffffffff16612dfc611d5a565b73ffffffffffffffffffffffffffffffffffffffff1614612e52576040517f08c379a0000000000000000000000000000000000000000000000000000000008152600401612e4990614773565b60405180910390fd5b565b600081511415612e99576040517f08c379a0000000000000000000000000000000000000000000000000000000008152600401612e909061433e565b60405180910390fd5b600073ffffffffffffffffffffffffffffffffffffffff168273ffffffffffffffffffffffffffffffffffffffff161415612f09576040517f08c379a0000000000000000000000000000000000000000000000000000000008152600401612f0090613fcf565b60405180910390fd5b5050565b612fa381604051602401612f219190613787565b6040516020818303038152906040527f41304fac000000000000000000000000000000000000000000000000000000007bffffffffffffffffffffffffffffffffffffffffffffffffffffffff19166020820180517bffffffffffffffffffffffffffffffffffffffffffffffffffffffff83818316178352505050506132e1565b50565b60008060009054906101000a900473ffffffffffffffffffffffffffffffffffffffff169050816000806101000a81548173ffffffffffffffffffffffffffffffffffffffff021916908373ffffffffffffffffffffffffffffffffffffffff1602179055508173ffffffffffffffffffffffffffffffffffffffff168173ffffffffffffffffffffffffffffffffffffffff167f8be0079c531659141344cd1fd0a4f28419497f9722a3daafe3b4186f6b6457e060405160405180910390a35050565b61310483838360405160240161308293929190614793565b6040516020818303038152906040527f95ed0195000000000000000000000000000000000000000000000000000000007bffffffffffffffffffffffffffffffffffffffffffffffffffffffff19166020820180517bffffffffffffffffffffffffffffffffffffffffffffffffffffffff83818316178352505050506132e1565b505050565b6000600160008373ffffffffffffffffffffffffffffffffffffffff1673ffffffffffffffffffffffffffffffffffffffff168152602001908152602001600020905060005b81805490508110156132d3578373ffffffffffffffffffffffffffffffffffffffff1682828154811061318557613184613be3565b5b9060005260206000200160009054906101000a900473ffffffffffffffffffffffffffffffffffffffff1673ffffffffffffffffffffffffffffffffffffffff1614156132c05781600183805490506131de91906147d8565b815481106131ef576131ee613be3565b5b9060005260206000200160009054906101000a900473ffffffffffffffffffffffffffffffffffffffff1682828154811061322d5761322c613be3565b5b9060005260206000200160006101000a81548173ffffffffffffffffffffffffffffffffffffffff021916908373ffffffffffffffffffffffffffffffffffffffff160217905550818054806132865761328561480c565b5b6001900381819060005260206000200160006101000a81549073ffffffffffffffffffffffffffffffffffffffff021916905590556132d3565b80806132cb90613c41565b91505061314f565b50505050565b600033905090565b60008151905060006a636f6e736f6c652e6c6f679050602083016000808483855afa5050505050565b8280546133169061401e565b90600052602060002090601f016020900481019282613338576000855561337f565b82601f1061335157805160ff191683800117855561337f565b8280016001018555821561337f579182015b8281111561337e578251825591602001919060010190613363565b5b50905061338c9190613390565b5090565b5b808211156133a9576000816000905550600101613391565b5090565b6000604051905090565b600080fd5b600080fd5b600080fd5b6000601f19601f8301169050919050565b7f4e487b7100000000000000000000000000000000000000000000000000000000600052604160045260246000fd5b61340f826133c6565b810181811067ffffffffffffffff8211171561342e5761342d6133d7565b5b80604052505050565b60006134416133ad565b905061344d8282613406565b919050565b600067ffffffffffffffff82111561346d5761346c6133d7565b5b602082029050602081019050919050565b600080fd5b600073ffffffffffffffffffffffffffffffffffffffff82169050919050565b60006134ae82613483565b9050919050565b6134be816134a3565b81146134c957600080fd5b50565b6000813590506134db816134b5565b92915050565b60006134f46134ef84613452565b613437565b905080838252602082019050602084028301858111156135175761351661347e565b5b835b81811015613540578061352c88826134cc565b845260208401935050602081019050613519565b5050509392505050565b600082601f83011261355f5761355e6133c1565b5b813561356f8482602086016134e1565b91505092915050565b60006020828403121561358e5761358d6133b7565b5b600082013567ffffffffffffffff8111156135ac576135ab6133bc565b5b6135b88482850161354a565b91505092915050565b600080fd5b600067ffffffffffffffff8211156135e1576135e06133d7565b5b6135ea826133c6565b9050602081019050919050565b82818337600083830152505050565b6000613619613614846135c6565b613437565b905082815260208101848484011115613635576136346135c1565b5b6136408482856135f7565b509392505050565b600082601f83011261365d5761365c6133c1565b5b813561366d848260208601613606565b91505092915050565b6000806040838503121561368d5761368c6133b7565b5b600061369b858286016134cc565b925050602083013567ffffffffffffffff8111156136bc576136bb6133bc565b5b6136c885828601613648565b9150509250929050565b6000602082840312156136e8576136e76133b7565b5b60006136f6848285016134cc565b91505092915050565b600081519050919050565b600082825260208201905092915050565b60005b8381101561373957808201518184015260208101905061371e565b83811115613748576000848401525b50505050565b6000613759826136ff565b613763818561370a565b935061377381856020860161371b565b61377c816133c6565b840191505092915050565b600060208201905081810360008301526137a1818461374e565b905092915050565b600067ffffffffffffffff82169050919050565b6137c6816137a9565b82525050565b60006020820190506137e160008301846137bd565b92915050565b6000819050919050565b6137fa816137e7565b811461380557600080fd5b50565b600081359050613817816137f1565b92915050565b60008060408385031215613834576138336133b7565b5b6000613842858286016134cc565b925050602061385385828601613808565b9150509250929050565b613866816134a3565b82525050565b6000602082019050613881600083018461385d565b92915050565b6006811061389457600080fd5b50565b6000813590506138a681613887565b92915050565b6000602082840312156138c2576138c16133b7565b5b60006138d084828501613897565b91505092915050565b6000806000606084860312156138f2576138f16133b7565b5b6000613900868287016134cc565b935050602084013567ffffffffffffffff811115613921576139206133bc565b5b61392d86828701613648565b925050604084013567ffffffffffffffff81111561394e5761394d6133bc565b5b61395a86828701613648565b9150509250925092565b61396d816137e7565b82525050565b600060a082019050818103600083015261398d818861374e565b905061399c602083018761385d565b81810360408301526139ae818661374e565b90506139bd6060830185613964565b81810360808301526139cf818461374e565b90509695505050505050565b600081519050919050565b600082825260208201905092915050565b6000819050602082019050919050565b613a10816134a3565b82525050565b6000613a228383613a07565b60208301905092915050565b6000602082019050919050565b6000613a46826139db565b613a5081856139e6565b9350613a5b836139f7565b8060005b83811015613a8c578151613a738882613a16565b9750613a7e83613a2e565b925050600181019050613a5f565b5085935050505092915050565b60006020820190508181036000830152613ab38184613a3b565b905092915050565b60008060408385031215613ad257613ad16133b7565b5b6000613ae0858286016134cc565b9250506020613af1858286016134cc565b9150509250929050565b60008060408385031215613b1257613b116133b7565b5b600083013567ffffffffffffffff811115613b3057613b2f6133bc565b5b613b3c85828601613648565b925050602083013567ffffffffffffffff811115613b5d57613b5c6133bc565b5b613b6985828601613648565b9150509250929050565b60008115159050919050565b613b8881613b73565b82525050565b6000602082019050613ba36000830184613b7f565b92915050565b600063ffffffff82169050919050565b613bc281613ba9565b82525050565b6000602082019050613bdd6000830184613bb9565b92915050565b7f4e487b7100000000000000000000000000000000000000000000000000000000600052603260045260246000fd5b7f4e487b7100000000000000000000000000000000000000000000000000000000600052601160045260246000fd5b6000613c4c826137e7565b91507fffffffffffffffffffffffffffffffffffffffffffffffffffffffffffffffff821415613c7f57613c7e613c12565b5b600182019050919050565b7f4f6e6c7920746865206f776e6572206f662074686520636f6e7472616374206f60008201527f722044414f2063616e2072656e65772074686520646f6d61696e206d6170706960208201527f6e672e0000000000000000000000000000000000000000000000000000000000604082015250565b6000613d0c60438361370a565b9150613d1782613c8a565b606082019050919050565b60006020820190508181036000830152613d3b81613cff565b9050919050565b7f4e487b7100000000000000000000000000000000000000000000000000000000600052602160045260246000fd5b6000613d7c826137e7565b9150613d87836137e7565b9250827fffffffffffffffffffffffffffffffffffffffffffffffffffffffffffffffff03821115613dbc57613dbb613c12565b5b828201905092915050565b7f506c656173652073656e6420302e303520657468657220746f2072656e65772060008201527f74686520646f6d61696e2e000000000000000000000000000000000000000000602082015250565b6000613e23602b8361370a565b9150613e2e82613dc7565b604082019050919050565b60006020820190508181036000830152613e5281613e16565b9050919050565b600081905092915050565b50565b6000613e74600083613e59565b9150613e7f82613e64565b600082019050919050565b6000613e9582613e67565b9150819050919050565b7f4661696c656420746f2073656e64204574686572210000000000000000000000600082015250565b6000613ed560158361370a565b9150613ee082613e9f565b602082019050919050565b60006020820190508181036000830152613f0481613ec8565b9050919050565b60068110613f1c57613f1b613d42565b5b50565b6000819050613f2d82613f0b565b919050565b6000613f3d82613f1f565b9050919050565b613f4d81613f32565b82525050565b60006040820190508181036000830152613f6d818561374e565b9050613f7c6020830184613f44565b9392505050565b7f436f6e7472616374206164647265737320697320656d70747900000000000000600082015250565b6000613fb960198361370a565b9150613fc482613f83565b602082019050919050565b60006020820190508181036000830152613fe881613fac565b9050919050565b7f4e487b7100000000000000000000000000000000000000000000000000000000600052602260045260246000fd5b6000600282049050600182168061403657607f821691505b6020821081141561404a57614049613fef565b5b50919050565b60008190508160005260206000209050919050565b600081546140728161401e565b61407c818661370a565b9450600182166000811461409757600181146140a9576140dc565b60ff19831686526020860193506140dc565b6140b285614050565b60005b838110156140d4578154818901526001820191506020810190506140b5565b808801955050505b50505092915050565b600060408201905081810360008301526140ff8185614065565b90508181036020830152614113818461374e565b90509392505050565b7f506c656173652073656e6420302e303520657468657220746f2073746172742060008201527f7468652076616c69646174696f6e2070726f636573732e000000000000000000602082015250565b600061417860378361370a565b91506141838261411c565b604082019050919050565b600060208201905081810360008301526141a78161416b565b9050919050565b7f446f6d61696e206e616d6520616c72656164792072656769737465726564206960008201527f6e207374727563742e0000000000000000000000000000000000000000000000602082015250565b600061420a60298361370a565b9150614215826141ae565b604082019050919050565b60006020820190508181036000830152614239816141fd565b9050919050565b600061424b826137a9565b915067ffffffffffffffff82141561426657614265613c12565b5b600182019050919050565b7f436f6e7472616374207265766f6b65642062792044414f000000000000000000600082015250565b60006142a760178361370a565b91506142b282614271565b602082019050919050565b600060408201905081810360008301526142d78184614065565b905081810360208301526142ea8161429a565b905092915050565b7f446f6d61696e206e616d6520697320656d707479000000000000000000000000600082015250565b600061432860148361370a565b9150614333826142f2565b602082019050919050565b600060208201905081810360008301526143578161431b565b9050919050565b7f506c656173652073656e6420302e303520657468657220746f2073746172742060008201527f7570646174654f776e65722070726f636573732e000000000000000000000000602082015250565b60006143ba60348361370a565b91506143c58261435e565b604082019050919050565b600060208201905081810360008301526143e9816143ad565b9050919050565b7f4f6e6c7920746865206f776e6572206f662074686520646f6d61696e2063616e60008201527f2075706461746520746865206f776e65722e0000000000000000000000000000602082015250565b600061444c60328361370a565b9150614457826143f0565b604082019050919050565b6000602082019050818103600083015261447b8161443f565b9050919050565b7f596f7520617265206e6f7420746865206f776e6572206f662074686520636f6e60008201527f747261637420746f207472616e7366657220646f6d61696e732e000000000000602082015250565b60006144de603a8361370a565b91506144e982614482565b604082019050919050565b6000602082019050818103600083015261450d816144d1565b9050919050565b7f436f6e7472616374206973206e6f7420617070726f7665642e00000000000000600082015250565b600061454a60198361370a565b915061455582614514565b602082019050919050565b600060208201905081810360008301526145798161453d565b9050919050565b7f506c656173652073656e6420302e303520657468657220746f2073746172742060008201527f7472616e73666572436f6e74726163742070726f636573732e00000000000000602082015250565b60006145dc60398361370a565b91506145e782614580565b604082019050919050565b6000602082019050818103600083015261460b816145cf565b9050919050565b600081905092915050565b6000614628826136ff565b6146328185614612565b935061464281856020860161371b565b80840191505092915050565b600061465a828461461d565b915081905092915050565b6000604082019050818103600083015261467f8185614065565b905061468e6020830184613f44565b9392505050565b7f4f776e61626c653a206e6577206f776e657220697320746865207a65726f206160008201527f6464726573730000000000000000000000000000000000000000000000000000602082015250565b60006146f160268361370a565b91506146fc82614695565b604082019050919050565b60006020820190508181036000830152614720816146e4565b9050919050565b7f4f776e61626c653a2063616c6c6572206973206e6f7420746865206f776e6572600082015250565b600061475d60208361370a565b915061476882614727565b602082019050919050565b6000602082019050818103600083015261478c81614750565b9050919050565b600060608201905081810360008301526147ad818661374e565b905081810360208301526147c1818561374e565b90506147d0604083018461385d565b949350505050565b60006147e3826137e7565b91506147ee836137e7565b92508282101561480157614800613c12565b5b828203905092915050565b7f4e487b7100000000000000000000000000000000000000000000000000000000600052603160045260246000fdfe446f6d61696e206e616d6520616e6420636f6e7472616374206164647265737320646f206e6f74206d61746368206f7220636f6e7472616374206973206e6f7420617070726f7665642e20436865636b20636f6e7472616374207374617465446f6d61696e206e616d6520616e6420636f6e74726163742061646472657373206d617463682062757420646f6d61696e2069732065787069726564a26469706673582212208be0589399168e3a182e54732f7c2cc412c09c18ce5ad900f13222f52710653a64736f6c63430008090033",
  "linkReferences": {},
  "deployedLinkReferences": {}
}