{
  "_format": "hh-sol-artifact-1",
  "contractName": "CertDao",
  "sourceName": "contracts/CertDao.sol",
  "abi": [
    {
      "inputs": [],
      "stateMutability": "nonpayable",
      "type": "constructor"
    },
    {
      "anonymous": false,
      "inputs": [
        {
          "indexed": true,
          "internalType": "address",
          "name": "contractAddress",
          "type": "address"
        },
        {
          "indexed": false,
          "internalType": "string",
          "name": "domainName",
          "type": "string"
        },
        {
          "indexed": false,
          "internalType": "enum CertDao.domainStatus",
          "name": "status",
          "type": "uint8"
        }
      ],
      "name": "ContractApproved",
      "type": "event"
    },
    {
      "anonymous": false,
      "inputs": [
        {
          "indexed": true,
          "internalType": "address",
          "name": "contractAddress",
          "type": "address"
        },
        {
          "indexed": false,
          "internalType": "string",
          "name": "domainName",
          "type": "string"
        },
        {
          "indexed": false,
          "internalType": "string",
          "name": "description",
          "type": "string"
        }
      ],
      "name": "ContractExpired",
      "type": "event"
    },
    {
      "anonymous": false,
      "inputs": [
        {
          "indexed": true,
          "internalType": "address",
          "name": "contractAddress",
          "type": "address"
        },
        {
          "indexed": false,
          "internalType": "string",
          "name": "domainName",
          "type": "string"
        },
        {
          "indexed": false,
          "internalType": "string",
          "name": "description",
          "type": "string"
        }
      ],
      "name": "ContractManuallyFlag",
      "type": "event"
    },
    {
      "anonymous": false,
      "inputs": [
        {
          "indexed": true,
          "internalType": "address",
          "name": "contractAddress",
          "type": "address"
        },
        {
          "indexed": false,
          "internalType": "string",
          "name": "domainName",
          "type": "string"
        },
        {
          "indexed": false,
          "internalType": "string",
          "name": "description",
          "type": "string"
        }
      ],
      "name": "ContractRejected",
      "type": "event"
    },
    {
      "anonymous": false,
      "inputs": [
        {
          "indexed": true,
          "internalType": "address",
          "name": "contractAddress",
          "type": "address"
        },
        {
          "indexed": false,
          "internalType": "string",
          "name": "domainName",
          "type": "string"
        },
        {
          "indexed": false,
          "internalType": "enum CertDao.domainStatus",
          "name": "status",
          "type": "uint8"
        }
      ],
      "name": "ContractRenewed",
      "type": "event"
    },
    {
      "anonymous": false,
      "inputs": [
        {
          "indexed": true,
          "internalType": "address",
          "name": "contractAddress",
          "type": "address"
        },
        {
          "indexed": false,
          "internalType": "string",
          "name": "domainName",
          "type": "string"
        },
        {
          "indexed": false,
          "internalType": "string",
          "name": "description",
          "type": "string"
        }
      ],
      "name": "ContractRevoked",
      "type": "event"
    },
    {
      "anonymous": false,
      "inputs": [
        {
          "indexed": true,
          "internalType": "address",
          "name": "contractAddress",
          "type": "address"
        },
        {
          "indexed": false,
          "internalType": "string",
          "name": "domainName",
          "type": "string"
        }
      ],
      "name": "ContractSubmittedForValidation",
      "type": "event"
    },
    {
      "anonymous": false,
      "inputs": [
        {
          "indexed": true,
          "internalType": "address",
          "name": "previousOwner",
          "type": "address"
        },
        {
          "indexed": true,
          "internalType": "address",
          "name": "newOwner",
          "type": "address"
        }
      ],
      "name": "OwnershipTransferred",
      "type": "event"
    },
    {
      "inputs": [],
      "name": "CERTDAO_DOMAIN",
      "outputs": [
        {
          "internalType": "string",
          "name": "",
          "type": "string"
        }
      ],
      "stateMutability": "view",
      "type": "function"
    },
    {
      "inputs": [],
      "name": "EXPIRATION_PERIOD",
      "outputs": [
        {
          "internalType": "uint32",
          "name": "",
          "type": "uint32"
        }
      ],
      "stateMutability": "view",
      "type": "function"
    },
    {
      "inputs": [],
      "name": "PAY_AMOUNT",
      "outputs": [
        {
          "internalType": "uint64",
          "name": "",
          "type": "uint64"
        }
      ],
      "stateMutability": "view",
      "type": "function"
    },
    {
      "inputs": [
        {
          "internalType": "address",
          "name": "contractAddress",
          "type": "address"
        }
      ],
      "name": "approve",
      "outputs": [],
      "stateMutability": "nonpayable",
      "type": "function"
    },
    {
      "inputs": [
        {
          "internalType": "address[]",
          "name": "contractAddresses",
          "type": "address[]"
        }
      ],
      "name": "batchApprove",
      "outputs": [],
      "stateMutability": "nonpayable",
      "type": "function"
    },
    {
      "inputs": [
        {
          "internalType": "address[]",
          "name": "contractAddresses",
          "type": "address[]"
        }
      ],
      "name": "batchRevoke",
      "outputs": [],
      "stateMutability": "nonpayable",
      "type": "function"
    },
    {
      "inputs": [
        {
          "internalType": "string",
          "name": "a",
          "type": "string"
        },
        {
          "internalType": "string",
          "name": "b",
          "type": "string"
        }
      ],
      "name": "compareStrings",
      "outputs": [
        {
          "internalType": "bool",
          "name": "",
          "type": "bool"
        }
      ],
      "stateMutability": "pure",
      "type": "function"
    },
    {
      "inputs": [
        {
          "internalType": "enum CertDao.domainStatus",
          "name": "status",
          "type": "uint8"
        }
      ],
      "name": "domainStatusToString",
      "outputs": [
        {
          "internalType": "string",
          "name": "",
          "type": "string"
        }
      ],
      "stateMutability": "pure",
      "type": "function"
    },
    {
      "inputs": [
        {
          "internalType": "address",
          "name": "contractAddress",
          "type": "address"
        }
      ],
      "name": "getDomainDescription",
      "outputs": [
        {
          "internalType": "string",
          "name": "",
          "type": "string"
        }
      ],
      "stateMutability": "view",
      "type": "function"
    },
    {
      "inputs": [
        {
          "internalType": "address",
          "name": "contractAddress",
          "type": "address"
        }
      ],
      "name": "getDomainName",
      "outputs": [
        {
          "internalType": "string",
          "name": "",
          "type": "string"
        }
      ],
      "stateMutability": "view",
      "type": "function"
    },
    {
      "inputs": [
        {
          "internalType": "address",
          "name": "contractAddress",
          "type": "address"
        }
      ],
      "name": "getDomainOwner",
      "outputs": [
        {
          "internalType": "address",
          "name": "",
          "type": "address"
        }
      ],
      "stateMutability": "view",
      "type": "function"
    },
    {
      "inputs": [
        {
          "internalType": "address",
          "name": "contractAddress",
          "type": "address"
        }
      ],
      "name": "getDomainStatus",
      "outputs": [
        {
          "internalType": "string",
          "name": "",
          "type": "string"
        }
      ],
      "stateMutability": "view",
      "type": "function"
    },
    {
      "inputs": [
        {
          "internalType": "address",
          "name": "contractAddress",
          "type": "address"
        },
        {
          "internalType": "string",
          "name": "domainName",
          "type": "string"
        },
        {
          "internalType": "string",
          "name": "description",
          "type": "string"
        }
      ],
      "name": "manualFlag",
      "outputs": [],
      "stateMutability": "nonpayable",
      "type": "function"
    },
    {
      "inputs": [],
      "name": "owner",
      "outputs": [
        {
          "internalType": "address",
          "name": "",
          "type": "address"
        }
      ],
      "stateMutability": "view",
      "type": "function"
    },
    {
      "inputs": [
        {
          "internalType": "address",
          "name": "contractAddress",
          "type": "address"
        },
        {
          "internalType": "string",
          "name": "domainName",
          "type": "string"
        }
      ],
      "name": "renew",
      "outputs": [],
      "stateMutability": "payable",
      "type": "function"
    },
    {
      "inputs": [],
      "name": "renounceOwnership",
      "outputs": [],
      "stateMutability": "nonpayable",
      "type": "function"
    },
    {
      "inputs": [
        {
          "internalType": "address",
          "name": "contractAddress",
          "type": "address"
        }
      ],
      "name": "revoke",
      "outputs": [],
      "stateMutability": "nonpayable",
      "type": "function"
    },
    {
      "inputs": [
        {
          "internalType": "address",
          "name": "contractAddress",
          "type": "address"
        },
        {
          "internalType": "string",
          "name": "domainName",
          "type": "string"
        },
        {
          "internalType": "string",
          "name": "description",
          "type": "string"
        }
      ],
      "name": "submitForValidation",
      "outputs": [],
      "stateMutability": "payable",
      "type": "function"
    },
    {
      "inputs": [
        {
          "internalType": "address",
          "name": "newContractAddress",
          "type": "address"
        },
        {
          "internalType": "string",
          "name": "domainOwner",
          "type": "string"
        }
      ],
      "name": "transferContractToNewDomain",
      "outputs": [],
      "stateMutability": "payable",
      "type": "function"
    },
    {
      "inputs": [
        {
          "internalType": "address",
          "name": "newOwner",
          "type": "address"
        }
      ],
      "name": "transferOwnership",
      "outputs": [],
      "stateMutability": "nonpayable",
      "type": "function"
    },
    {
      "inputs": [
        {
          "internalType": "address",
          "name": "contractAddress",
          "type": "address"
        },
        {
          "internalType": "string",
          "name": "newDomainOwner",
          "type": "string"
        }
      ],
      "name": "updateOwner",
      "outputs": [],
      "stateMutability": "payable",
      "type": "function"
    },
    {
      "inputs": [
        {
          "internalType": "address",
          "name": "contractAddress",
          "type": "address"
        },
        {
          "internalType": "string",
          "name": "domainName",
          "type": "string"
        }
      ],
      "name": "verify",
      "outputs": [
        {
          "internalType": "bool",
          "name": "",
          "type": "bool"
        }
      ],
      "stateMutability": "view",
      "type": "function"
    }
  ],
  "bytecode": "0x60806040523480156200001157600080fd5b5062000032620000266200021f60201b60201c565b6200022760201b60201c565b60006040518060a001604052806040518060400160405280600f81526020017f7777772e6365727464616f2e6e6574000000000000000000000000000000000081525081526020016200008a620002eb60201b60201c565b73ffffffffffffffffffffffffffffffffffffffff16815260200160026005811115620000bc57620000bb620003c4565b5b815260200163bc19138042620000d391906200042c565b81526020016040518060400160405280601581526020017f4365727444616f204f776e65722067656e697369730000000000000000000000815250815250905080600160003073ffffffffffffffffffffffffffffffffffffffff1673ffffffffffffffffffffffffffffffffffffffff16815260200190815260200160002060008201518160000190805190602001906200017192919062000314565b5060208201518160010160006101000a81548173ffffffffffffffffffffffffffffffffffffffff021916908373ffffffffffffffffffffffffffffffffffffffff16021790555060408201518160010160146101000a81548160ff02191690836005811115620001e757620001e6620003c4565b5b02179055506060820151816002015560808201518160030190805190602001906200021492919062000314565b5090505050620004ee565b600033905090565b60008060009054906101000a900473ffffffffffffffffffffffffffffffffffffffff169050816000806101000a81548173ffffffffffffffffffffffffffffffffffffffff021916908373ffffffffffffffffffffffffffffffffffffffff1602179055508173ffffffffffffffffffffffffffffffffffffffff168173ffffffffffffffffffffffffffffffffffffffff167f8be0079c531659141344cd1fd0a4f28419497f9722a3daafe3b4186f6b6457e060405160405180910390a35050565b60008060009054906101000a900473ffffffffffffffffffffffffffffffffffffffff16905090565b8280546200032290620004b8565b90600052602060002090601f01602090048101928262000346576000855562000392565b82601f106200036157805160ff191683800117855562000392565b8280016001018555821562000392579182015b828111156200039157825182559160200191906001019062000374565b5b509050620003a19190620003a5565b5090565b5b80821115620003c0576000816000905550600101620003a6565b5090565b7f4e487b7100000000000000000000000000000000000000000000000000000000600052602160045260246000fd5b6000819050919050565b7f4e487b7100000000000000000000000000000000000000000000000000000000600052601160045260246000fd5b60006200043982620003f3565b91506200044683620003f3565b9250827fffffffffffffffffffffffffffffffffffffffffffffffffffffffffffffffff038211156200047e576200047d620003fd565b5b828201905092915050565b7f4e487b7100000000000000000000000000000000000000000000000000000000600052602260045260246000fd5b60006002820490506001821680620004d157607f821691505b60208210811415620004e857620004e762000489565b5b50919050565b613d1b80620004fe6000396000f3fe6080604052600436106101355760003560e01c80638e7d5a68116100ab578063bed34bba1161006f578063bed34bba146103ee578063ca75960b1461042b578063daea85c514610456578063e8fc92731461047f578063ea5ed3db146104bc578063f2fde38b146104e557610135565b80638e7d5a6814610311578063945507cb1461034e57806399006500146103795780639fc10436146103b6578063bc618391146103d257610135565b80635036598f116100fd5780635036598f14610224578063715018a61461024d57806372b0a7ed1461026457806374a8f103146102805780637e3638b5146102a95780638da5cb5b146102e657610135565b8063011002df1461013a578063043c6de3146101635780630694340e1461017f5780630a0d9247146101bc5780633a61053c146101e7575b600080fd5b34801561014657600080fd5b50610161600480360381019061015c9190612c1e565b61050e565b005b61017d60048036038101906101789190612d1c565b61055c565b005b34801561018b57600080fd5b506101a660048036038101906101a19190612d78565b61094a565b6040516101b39190612e2d565b60405180910390f35b3480156101c857600080fd5b506101d1610a8e565b6040516101de9190612e72565b60405180910390f35b3480156101f357600080fd5b5061020e60048036038101906102099190612eb2565b610a99565b60405161021b9190612e2d565b60405180910390f35b34801561023057600080fd5b5061024b60048036038101906102469190612edf565b610d54565b005b34801561025957600080fd5b50610262610f8f565b005b61027e60048036038101906102799190612edf565b610fa3565b005b34801561028c57600080fd5b506102a760048036038101906102a29190612d78565b6113d0565b005b3480156102b557600080fd5b506102d060048036038101906102cb9190612d78565b611625565b6040516102dd9190612e2d565b60405180910390f35b3480156102f257600080fd5b506102fb611769565b6040516103089190612f79565b60405180910390f35b34801561031d57600080fd5b5061033860048036038101906103339190612d78565b611792565b6040516103459190612e2d565b60405180910390f35b34801561035a57600080fd5b50610363611a5a565b6040516103709190612e2d565b60405180910390f35b34801561038557600080fd5b506103a0600480360381019061039b9190612d78565b611a93565b6040516103ad9190612f79565b60405180910390f35b6103d060048036038101906103cb9190612d1c565b611aff565b005b6103ec60048036038101906103e79190612d1c565b611d79565b005b3480156103fa57600080fd5b5061041560048036038101906104109190612f94565b611f60565b6040516104229190613027565b60405180910390f35b34801561043757600080fd5b50610440611fb9565b60405161044d9190613061565b60405180910390f35b34801561046257600080fd5b5061047d60048036038101906104789190612d78565b611fc1565b005b34801561048b57600080fd5b506104a660048036038101906104a19190612d1c565b612219565b6040516104b39190613027565b60405180910390f35b3480156104c857600080fd5b506104e360048036038101906104de9190612c1e565b61257a565b005b3480156104f157600080fd5b5061050c60048036038101906105079190612d78565b6125c8565b005b61051661264c565b60005b8151811015610558576105458282815181106105385761053761307c565b5b60200260200101516113d0565b8080610550906130e4565b915050610519565b5050565b61056682826126ca565b600160008373ffffffffffffffffffffffffffffffffffffffff1673ffffffffffffffffffffffffffffffffffffffff16815260200190815260200160002060010160009054906101000a900473ffffffffffffffffffffffffffffffffffffffff1673ffffffffffffffffffffffffffffffffffffffff163373ffffffffffffffffffffffffffffffffffffffff1614806106345750610605611769565b73ffffffffffffffffffffffffffffffffffffffff163373ffffffffffffffffffffffffffffffffffffffff16145b610673576040517f08c379a000000000000000000000000000000000000000000000000000000000815260040161066a906131c5565b60405180910390fd5b60026005811115610687576106866131e5565b5b600160008473ffffffffffffffffffffffffffffffffffffffff1673ffffffffffffffffffffffffffffffffffffffff16815260200190815260200160002060010160149054906101000a900460ff1660058111156106e9576106e86131e5565b5b141561094657426301e1338063ffffffff16600160008573ffffffffffffffffffffffffffffffffffffffff1673ffffffffffffffffffffffffffffffffffffffff168152602001908152602001600020600201546107489190613214565b10156109065766b1a2bc2ec5000067ffffffffffffffff1634146107a1576040517f08c379a0000000000000000000000000000000000000000000000000000000008152600401610798906132dc565b60405180910390fd5b6000806107ac611769565b73ffffffffffffffffffffffffffffffffffffffff1666b1a2bc2ec5000067ffffffffffffffff166040516107e09061332d565b60006040518083038185875af1925050503d806000811461081d576040519150601f19603f3d011682016040523d82523d6000602084013e610822565b606091505b509150915081610867576040517f08c379a000000000000000000000000000000000000000000000000000000000815260040161085e9061338e565b60405180910390fd5b42600160008673ffffffffffffffffffffffffffffffffffffffff1673ffffffffffffffffffffffffffffffffffffffff168152602001908152602001600020600201819055508373ffffffffffffffffffffffffffffffffffffffff167fd9229190af804fd9bd07bfdc0d8e7c2d91d5f3173cc97b9ef1d6bbcbce817c5b8460026040516108f79291906133f6565b60405180910390a25050610945565b6109446040518060400160405280601a81526020017f446f6d61696e206973206e6f742065787069726564207965742e000000000000815250612783565b5b5b5050565b6060600073ffffffffffffffffffffffffffffffffffffffff168273ffffffffffffffffffffffffffffffffffffffff1614156109bc576040517f08c379a00000000000000000000000000000000000000000000000000000000081526004016109b390613472565b60405180910390fd5b600160008373ffffffffffffffffffffffffffffffffffffffff1673ffffffffffffffffffffffffffffffffffffffff1681526020019081526020016000206003018054610a09906134c1565b80601f0160208091040260200160405190810160405280929190818152602001828054610a35906134c1565b8015610a825780601f10610a5757610100808354040283529160200191610a82565b820191906000526020600020905b815481529060010190602001808311610a6557829003601f168201915b50505050509050919050565b66b1a2bc2ec5000081565b606060006005811115610aaf57610aae6131e5565b5b826005811115610ac257610ac16131e5565b5b1415610b05576040518060400160405280600781526020017f70656e64696e67000000000000000000000000000000000000000000000000008152509050610d4f565b60016005811115610b1957610b186131e5565b5b826005811115610b2c57610b2b6131e5565b5b1415610b6f576040518060400160405280600781526020017f65787069726564000000000000000000000000000000000000000000000000008152509050610d4f565b60026005811115610b8357610b826131e5565b5b826005811115610b9657610b956131e5565b5b1415610bd9576040518060400160405280600881526020017f617070726f7665640000000000000000000000000000000000000000000000008152509050610d4f565b60036005811115610bed57610bec6131e5565b5b826005811115610c0057610bff6131e5565b5b1415610c43576040518060400160405280600881526020017f72656a65637465640000000000000000000000000000000000000000000000008152509050610d4f565b60046005811115610c5757610c566131e5565b5b826005811115610c6a57610c696131e5565b5b1415610cad576040518060400160405280600781526020017f7265766f6b6564000000000000000000000000000000000000000000000000008152509050610d4f565b600580811115610cc057610cbf6131e5565b5b826005811115610cd357610cd26131e5565b5b1415610d16576040518060400160405280600a81526020017f6d616e75616c466c6167000000000000000000000000000000000000000000008152509050610d4f565b6040518060400160405280600781526020017f756e6b6e6f776e0000000000000000000000000000000000000000000000000081525090505b919050565b610d5c61264c565b600073ffffffffffffffffffffffffffffffffffffffff168373ffffffffffffffffffffffffffffffffffffffff161415610dcc576040517f08c379a0000000000000000000000000000000000000000000000000000000008152600401610dc390613472565b60405180910390fd5b6005600160008573ffffffffffffffffffffffffffffffffffffffff1673ffffffffffffffffffffffffffffffffffffffff16815260200190815260200160002060010160146101000a81548160ff02191690836005811115610e3257610e316131e5565b5b02179055506000825114610e985781600160008573ffffffffffffffffffffffffffffffffffffffff1673ffffffffffffffffffffffffffffffffffffffff1681526020019081526020016000206000019080519060200190610e969291906129b0565b505b6000815114610ef95780600160008573ffffffffffffffffffffffffffffffffffffffff1673ffffffffffffffffffffffffffffffffffffffff1681526020019081526020016000206003019080519060200190610ef79291906129b0565b505b8273ffffffffffffffffffffffffffffffffffffffff167f333fcfe85110a1e880e493c16a2a2c2eb62ab038f109ca7467d26d641bb5699d600160008673ffffffffffffffffffffffffffffffffffffffff1673ffffffffffffffffffffffffffffffffffffffff16815260200190815260200160002060000183604051610f82929190613588565b60405180910390a2505050565b610f9761264c565b610fa1600061281c565b565b610fe36040518060400160405280601d81526020017f446f6d61696e204e616d653a2025732c20436f6e74726163743a20257300000081525083856128e0565b610fed83836126ca565b66b1a2bc2ec5000067ffffffffffffffff163414611040576040517f08c379a000000000000000000000000000000000000000000000000000000000815260040161103790613631565b60405180910390fd5b611123600160008573ffffffffffffffffffffffffffffffffffffffff1673ffffffffffffffffffffffffffffffffffffffff1681526020019081526020016000206000018054611090906134c1565b80601f01602080910402602001604051908101604052809291908181526020018280546110bc906134c1565b80156111095780601f106110de57610100808354040283529160200191611109565b820191906000526020600020905b8154815290600101906020018083116110ec57829003601f168201915b505050505060405180602001604052806000815250611f60565b611162576040517f08c379a0000000000000000000000000000000000000000000000000000000008152600401611159906136c3565b60405180910390fd5b60008061116d611769565b73ffffffffffffffffffffffffffffffffffffffff1666b1a2bc2ec5000067ffffffffffffffff166040516111a19061332d565b60006040518083038185875af1925050503d80600081146111de576040519150601f19603f3d011682016040523d82523d6000602084013e6111e3565b606091505b509150915081611228576040517f08c379a000000000000000000000000000000000000000000000000000000000815260040161121f9061338e565b60405180910390fd5b60006040518060a001604052808681526020013373ffffffffffffffffffffffffffffffffffffffff1681526020016000600581111561126b5761126a6131e5565b5b815260200142815260200185815250905080600160008873ffffffffffffffffffffffffffffffffffffffff1673ffffffffffffffffffffffffffffffffffffffff16815260200190815260200160002060008201518160000190805190602001906112d89291906129b0565b5060208201518160010160006101000a81548173ffffffffffffffffffffffffffffffffffffffff021916908373ffffffffffffffffffffffffffffffffffffffff16021790555060408201518160010160146101000a81548160ff0219169083600581111561134b5761134a6131e5565b5b02179055506060820151816002015560808201518160030190805190602001906113769291906129b0565b509050508573ffffffffffffffffffffffffffffffffffffffff167fe56a1dcfd351f0a9dc4f9bda49d191d54001ff53db4f795b8e146cf12660d139866040516113c09190612e2d565b60405180910390a2505050505050565b6113d861264c565b6114ac81600160008473ffffffffffffffffffffffffffffffffffffffff1673ffffffffffffffffffffffffffffffffffffffff1681526020019081526020016000206000018054611429906134c1565b80601f0160208091040260200160405190810160405280929190818152602001828054611455906134c1565b80156114a25780601f10611477576101008083540402835291602001916114a2565b820191906000526020600020905b81548152906001019060200180831161148557829003601f168201915b50505050506126ca565b600460058111156114c0576114bf6131e5565b5b600160008373ffffffffffffffffffffffffffffffffffffffff1673ffffffffffffffffffffffffffffffffffffffff16815260200190815260200160002060010160149054906101000a900460ff166005811115611522576115216131e5565b5b14611622576004600160008373ffffffffffffffffffffffffffffffffffffffff1673ffffffffffffffffffffffffffffffffffffffff16815260200190815260200160002060010160146101000a81548160ff0219169083600581111561158d5761158c6131e5565b5b02179055508073ffffffffffffffffffffffffffffffffffffffff167fcf5a73a37bc6f798de8cf5a014571f0f3005949c4f8911c44ec304ee24941a78600160008473ffffffffffffffffffffffffffffffffffffffff1673ffffffffffffffffffffffffffffffffffffffff168152602001908152602001600020600001604051611619919061372f565b60405180910390a25b50565b6060600073ffffffffffffffffffffffffffffffffffffffff168273ffffffffffffffffffffffffffffffffffffffff161415611697576040517f08c379a000000000000000000000000000000000000000000000000000000000815260040161168e90613472565b60405180910390fd5b600160008373ffffffffffffffffffffffffffffffffffffffff1673ffffffffffffffffffffffffffffffffffffffff16815260200190815260200160002060000180546116e4906134c1565b80601f0160208091040260200160405190810160405280929190818152602001828054611710906134c1565b801561175d5780601f106117325761010080835404028352916020019161175d565b820191906000526020600020905b81548152906001019060200180831161174057829003601f168201915b50505050509050919050565b60008060009054906101000a900473ffffffffffffffffffffffffffffffffffffffff16905090565b6060600073ffffffffffffffffffffffffffffffffffffffff168273ffffffffffffffffffffffffffffffffffffffff161415611804576040517f08c379a00000000000000000000000000000000000000000000000000000000081526004016117fb90613472565b60405180910390fd5b6000600160008473ffffffffffffffffffffffffffffffffffffffff1673ffffffffffffffffffffffffffffffffffffffff1681526020019081526020016000206040518060a0016040529081600082018054611860906134c1565b80601f016020809104026020016040519081016040528092919081815260200182805461188c906134c1565b80156118d95780601f106118ae576101008083540402835291602001916118d9565b820191906000526020600020905b8154815290600101906020018083116118bc57829003601f168201915b505050505081526020016001820160009054906101000a900473ffffffffffffffffffffffffffffffffffffffff1673ffffffffffffffffffffffffffffffffffffffff1673ffffffffffffffffffffffffffffffffffffffff1681526020016001820160149054906101000a900460ff16600581111561195d5761195c6131e5565b5b600581111561196f5761196e6131e5565b5b81526020016002820154815260200160038201805461198d906134c1565b80601f01602080910402602001604051908101604052809291908181526020018280546119b9906134c1565b8015611a065780601f106119db57610100808354040283529160200191611a06565b820191906000526020600020905b8154815290600101906020018083116119e957829003601f168201915b5050505050815250509050426301e1338063ffffffff168260600151611a2c9190613214565b1015611a4457611a3c6001610a99565b915050611a55565b611a518160400151610a99565b9150505b919050565b6040518060400160405280600f81526020017f7777772e6365727464616f2e6e6574000000000000000000000000000000000081525081565b6000600160008373ffffffffffffffffffffffffffffffffffffffff1673ffffffffffffffffffffffffffffffffffffffff16815260200190815260200160002060010160009054906101000a900473ffffffffffffffffffffffffffffffffffffffff169050919050565b611b0982826126ca565b66b1a2bc2ec5000067ffffffffffffffff163414611b5c576040517f08c379a0000000000000000000000000000000000000000000000000000000008152600401611b53906137d6565b60405180910390fd5b600160008373ffffffffffffffffffffffffffffffffffffffff1673ffffffffffffffffffffffffffffffffffffffff16815260200190815260200160002060010160009054906101000a900473ffffffffffffffffffffffffffffffffffffffff1673ffffffffffffffffffffffffffffffffffffffff163373ffffffffffffffffffffffffffffffffffffffff1614611c2c576040517f08c379a0000000000000000000000000000000000000000000000000000000008152600401611c2390613868565b60405180910390fd5b600080611c37611769565b73ffffffffffffffffffffffffffffffffffffffff1666b1a2bc2ec5000067ffffffffffffffff16604051611c6b9061332d565b60006040518083038185875af1925050503d8060008114611ca8576040519150601f19603f3d011682016040523d82523d6000602084013e611cad565b606091505b509150915081611cf2576040517f08c379a0000000000000000000000000000000000000000000000000000000008152600401611ce99061338e565b60405180910390fd5b33600160008673ffffffffffffffffffffffffffffffffffffffff1673ffffffffffffffffffffffffffffffffffffffff16815260200190815260200160002060010160006101000a81548173ffffffffffffffffffffffffffffffffffffffff021916908373ffffffffffffffffffffffffffffffffffffffff16021790555050505050565b611d8382826126ca565b600160008373ffffffffffffffffffffffffffffffffffffffff1673ffffffffffffffffffffffffffffffffffffffff16815260200190815260200160002060010160009054906101000a900473ffffffffffffffffffffffffffffffffffffffff1673ffffffffffffffffffffffffffffffffffffffff163373ffffffffffffffffffffffffffffffffffffffff1614611e53576040517f08c379a0000000000000000000000000000000000000000000000000000000008152600401611e4a906138fa565b60405180910390fd5b60026005811115611e6757611e666131e5565b5b600160008473ffffffffffffffffffffffffffffffffffffffff1673ffffffffffffffffffffffffffffffffffffffff16815260200190815260200160002060010160149054906101000a900460ff166005811115611ec957611ec86131e5565b5b14611f09576040517f08c379a0000000000000000000000000000000000000000000000000000000008152600401611f0090613966565b60405180910390fd5b66b1a2bc2ec5000067ffffffffffffffff163414611f5c576040517f08c379a0000000000000000000000000000000000000000000000000000000008152600401611f53906139f8565b60405180910390fd5b5050565b600081604051602001611f739190613a54565b6040516020818303038152906040528051906020012083604051602001611f9a9190613a54565b6040516020818303038152906040528051906020012014905092915050565b6301e1338081565b611fc961264c565b61209d81600160008473ffffffffffffffffffffffffffffffffffffffff1673ffffffffffffffffffffffffffffffffffffffff168152602001908152602001600020600001805461201a906134c1565b80601f0160208091040260200160405190810160405280929190818152602001828054612046906134c1565b80156120935780601f1061206857610100808354040283529160200191612093565b820191906000526020600020905b81548152906001019060200180831161207657829003601f168201915b50505050506126ca565b600260058111156120b1576120b06131e5565b5b600160008373ffffffffffffffffffffffffffffffffffffffff1673ffffffffffffffffffffffffffffffffffffffff16815260200190815260200160002060010160149054906101000a900460ff166005811115612113576121126131e5565b5b14612216576002600160008373ffffffffffffffffffffffffffffffffffffffff1673ffffffffffffffffffffffffffffffffffffffff16815260200190815260200160002060010160146101000a81548160ff0219169083600581111561217e5761217d6131e5565b5b02179055508073ffffffffffffffffffffffffffffffffffffffff167f8011544f5939f920af965d629972e4c6fc410156953fb0e4be4ae1ddf5e9636a600160008473ffffffffffffffffffffffffffffffffffffffff1673ffffffffffffffffffffffffffffffffffffffff168152602001908152602001600020600001600260405161220d929190613a6b565b60405180910390a25b50565b600061225b6040518060400160405280600e81526020017f496e707574733a2025732c20257300000000000000000000000000000000000081525083856128e0565b61226583836126ca565b6000600160008573ffffffffffffffffffffffffffffffffffffffff1673ffffffffffffffffffffffffffffffffffffffff1681526020019081526020016000206040518060a00160405290816000820180546122c1906134c1565b80601f01602080910402602001604051908101604052809291908181526020018280546122ed906134c1565b801561233a5780601f1061230f5761010080835404028352916020019161233a565b820191906000526020600020905b81548152906001019060200180831161231d57829003601f168201915b505050505081526020016001820160009054906101000a900473ffffffffffffffffffffffffffffffffffffffff1673ffffffffffffffffffffffffffffffffffffffff1673ffffffffffffffffffffffffffffffffffffffff1681526020016001820160149054906101000a900460ff1660058111156123be576123bd6131e5565b5b60058111156123d0576123cf6131e5565b5b8152602001600282015481526020016003820180546123ee906134c1565b80601f016020809104026020016040519081016040528092919081815260200182805461241a906134c1565b80156124675780601f1061243c57610100808354040283529160200191612467565b820191906000526020600020905b81548152906001019060200180831161244a57829003601f168201915b5050505050815250509050612480816000015184611f60565b80156124b457506002600581111561249b5761249a6131e5565b5b816040015160058111156124b2576124b16131e5565b5b145b1561254d57426301e1338063ffffffff1682606001516124d49190613214565b1115612522576125186040518060400160405280601481526020017f436f6e7472616374206973207665726966696564000000000000000000000000815250612783565b6001915050612574565b6125436040518060600160405280603c8152602001613caa603c9139612783565b6000915050612574565b61256e6040518060800160405280605f8152602001613c4b605f9139612783565b60009150505b92915050565b61258261264c565b60005b81518110156125c4576125b18282815181106125a4576125a361307c565b5b6020026020010151611fc1565b80806125bc906130e4565b915050612585565b5050565b6125d061264c565b600073ffffffffffffffffffffffffffffffffffffffff168173ffffffffffffffffffffffffffffffffffffffff161415612640576040517f08c379a000000000000000000000000000000000000000000000000000000000815260040161263790613b0d565b60405180910390fd5b6126498161281c565b50565b61265461297f565b73ffffffffffffffffffffffffffffffffffffffff16612672611769565b73ffffffffffffffffffffffffffffffffffffffff16146126c8576040517f08c379a00000000000000000000000000000000000000000000000000000000081526004016126bf90613b79565b60405180910390fd5b565b60008151141561270f576040517f08c379a000000000000000000000000000000000000000000000000000000000815260040161270690613be5565b60405180910390fd5b600073ffffffffffffffffffffffffffffffffffffffff168273ffffffffffffffffffffffffffffffffffffffff16141561277f576040517f08c379a000000000000000000000000000000000000000000000000000000000815260040161277690613472565b60405180910390fd5b5050565b612819816040516024016127979190612e2d565b6040516020818303038152906040527f41304fac000000000000000000000000000000000000000000000000000000007bffffffffffffffffffffffffffffffffffffffffffffffffffffffff19166020820180517bffffffffffffffffffffffffffffffffffffffffffffffffffffffff8381831617835250505050612987565b50565b60008060009054906101000a900473ffffffffffffffffffffffffffffffffffffffff169050816000806101000a81548173ffffffffffffffffffffffffffffffffffffffff021916908373ffffffffffffffffffffffffffffffffffffffff1602179055508173ffffffffffffffffffffffffffffffffffffffff168173ffffffffffffffffffffffffffffffffffffffff167f8be0079c531659141344cd1fd0a4f28419497f9722a3daafe3b4186f6b6457e060405160405180910390a35050565b61297a8383836040516024016128f893929190613c05565b6040516020818303038152906040527f95ed0195000000000000000000000000000000000000000000000000000000007bffffffffffffffffffffffffffffffffffffffffffffffffffffffff19166020820180517bffffffffffffffffffffffffffffffffffffffffffffffffffffffff8381831617835250505050612987565b505050565b600033905090565b60008151905060006a636f6e736f6c652e6c6f679050602083016000808483855afa5050505050565b8280546129bc906134c1565b90600052602060002090601f0160209004810192826129de5760008555612a25565b82601f106129f757805160ff1916838001178555612a25565b82800160010185558215612a25579182015b82811115612a24578251825591602001919060010190612a09565b5b509050612a329190612a36565b5090565b5b80821115612a4f576000816000905550600101612a37565b5090565b6000604051905090565b600080fd5b600080fd5b600080fd5b6000601f19601f8301169050919050565b7f4e487b7100000000000000000000000000000000000000000000000000000000600052604160045260246000fd5b612ab582612a6c565b810181811067ffffffffffffffff82111715612ad457612ad3612a7d565b5b80604052505050565b6000612ae7612a53565b9050612af38282612aac565b919050565b600067ffffffffffffffff821115612b1357612b12612a7d565b5b602082029050602081019050919050565b600080fd5b600073ffffffffffffffffffffffffffffffffffffffff82169050919050565b6000612b5482612b29565b9050919050565b612b6481612b49565b8114612b6f57600080fd5b50565b600081359050612b8181612b5b565b92915050565b6000612b9a612b9584612af8565b612add565b90508083825260208201905060208402830185811115612bbd57612bbc612b24565b5b835b81811015612be65780612bd28882612b72565b845260208401935050602081019050612bbf565b5050509392505050565b600082601f830112612c0557612c04612a67565b5b8135612c15848260208601612b87565b91505092915050565b600060208284031215612c3457612c33612a5d565b5b600082013567ffffffffffffffff811115612c5257612c51612a62565b5b612c5e84828501612bf0565b91505092915050565b600080fd5b600067ffffffffffffffff821115612c8757612c86612a7d565b5b612c9082612a6c565b9050602081019050919050565b82818337600083830152505050565b6000612cbf612cba84612c6c565b612add565b905082815260208101848484011115612cdb57612cda612c67565b5b612ce6848285612c9d565b509392505050565b600082601f830112612d0357612d02612a67565b5b8135612d13848260208601612cac565b91505092915050565b60008060408385031215612d3357612d32612a5d565b5b6000612d4185828601612b72565b925050602083013567ffffffffffffffff811115612d6257612d61612a62565b5b612d6e85828601612cee565b9150509250929050565b600060208284031215612d8e57612d8d612a5d565b5b6000612d9c84828501612b72565b91505092915050565b600081519050919050565b600082825260208201905092915050565b60005b83811015612ddf578082015181840152602081019050612dc4565b83811115612dee576000848401525b50505050565b6000612dff82612da5565b612e098185612db0565b9350612e19818560208601612dc1565b612e2281612a6c565b840191505092915050565b60006020820190508181036000830152612e478184612df4565b905092915050565b600067ffffffffffffffff82169050919050565b612e6c81612e4f565b82525050565b6000602082019050612e876000830184612e63565b92915050565b60068110612e9a57600080fd5b50565b600081359050612eac81612e8d565b92915050565b600060208284031215612ec857612ec7612a5d565b5b6000612ed684828501612e9d565b91505092915050565b600080600060608486031215612ef857612ef7612a5d565b5b6000612f0686828701612b72565b935050602084013567ffffffffffffffff811115612f2757612f26612a62565b5b612f3386828701612cee565b925050604084013567ffffffffffffffff811115612f5457612f53612a62565b5b612f6086828701612cee565b9150509250925092565b612f7381612b49565b82525050565b6000602082019050612f8e6000830184612f6a565b92915050565b60008060408385031215612fab57612faa612a5d565b5b600083013567ffffffffffffffff811115612fc957612fc8612a62565b5b612fd585828601612cee565b925050602083013567ffffffffffffffff811115612ff657612ff5612a62565b5b61300285828601612cee565b9150509250929050565b60008115159050919050565b6130218161300c565b82525050565b600060208201905061303c6000830184613018565b92915050565b600063ffffffff82169050919050565b61305b81613042565b82525050565b60006020820190506130766000830184613052565b92915050565b7f4e487b7100000000000000000000000000000000000000000000000000000000600052603260045260246000fd5b7f4e487b7100000000000000000000000000000000000000000000000000000000600052601160045260246000fd5b6000819050919050565b60006130ef826130da565b91507fffffffffffffffffffffffffffffffffffffffffffffffffffffffffffffffff821415613122576131216130ab565b5b600182019050919050565b7f4f6e6c7920746865206f776e6572206f662074686520636f6e7472616374206f60008201527f722044414f2063616e2072656e65772074686520646f6d61696e206d6170706960208201527f6e672e0000000000000000000000000000000000000000000000000000000000604082015250565b60006131af604383612db0565b91506131ba8261312d565b606082019050919050565b600060208201905081810360008301526131de816131a2565b9050919050565b7f4e487b7100000000000000000000000000000000000000000000000000000000600052602160045260246000fd5b600061321f826130da565b915061322a836130da565b9250827fffffffffffffffffffffffffffffffffffffffffffffffffffffffffffffffff0382111561325f5761325e6130ab565b5b828201905092915050565b7f506c656173652073656e6420302e303520657468657220746f2072656e65772060008201527f74686520646f6d61696e2e000000000000000000000000000000000000000000602082015250565b60006132c6602b83612db0565b91506132d18261326a565b604082019050919050565b600060208201905081810360008301526132f5816132b9565b9050919050565b600081905092915050565b50565b60006133176000836132fc565b915061332282613307565b600082019050919050565b60006133388261330a565b9150819050919050565b7f4661696c656420746f2073656e64204574686572210000000000000000000000600082015250565b6000613378601583612db0565b915061338382613342565b602082019050919050565b600060208201905081810360008301526133a78161336b565b9050919050565b600681106133bf576133be6131e5565b5b50565b60008190506133d0826133ae565b919050565b60006133e0826133c2565b9050919050565b6133f0816133d5565b82525050565b600060408201905081810360008301526134108185612df4565b905061341f60208301846133e7565b9392505050565b7f436f6e7472616374206164647265737320697320656d70747900000000000000600082015250565b600061345c601983612db0565b915061346782613426565b602082019050919050565b6000602082019050818103600083015261348b8161344f565b9050919050565b7f4e487b7100000000000000000000000000000000000000000000000000000000600052602260045260246000fd5b600060028204905060018216806134d957607f821691505b602082108114156134ed576134ec613492565b5b50919050565b60008190508160005260206000209050919050565b60008154613515816134c1565b61351f8186612db0565b9450600182166000811461353a576001811461354c5761357f565b60ff198316865260208601935061357f565b613555856134f3565b60005b8381101561357757815481890152600182019150602081019050613558565b808801955050505b50505092915050565b600060408201905081810360008301526135a28185613508565b905081810360208301526135b68184612df4565b90509392505050565b7f506c656173652073656e6420302e303520657468657220746f2073746172742060008201527f7468652076616c69646174696f6e2070726f636573732e000000000000000000602082015250565b600061361b603783612db0565b9150613626826135bf565b604082019050919050565b6000602082019050818103600083015261364a8161360e565b9050919050565b7f446f6d61696e206e616d6520616c72656164792072656769737465726564206960008201527f6e207374727563742e0000000000000000000000000000000000000000000000602082015250565b60006136ad602983612db0565b91506136b882613651565b604082019050919050565b600060208201905081810360008301526136dc816136a0565b9050919050565b7f436f6e7472616374207265766f6b65642062792044414f000000000000000000600082015250565b6000613719601783612db0565b9150613724826136e3565b602082019050919050565b600060408201905081810360008301526137498184613508565b9050818103602083015261375c8161370c565b905092915050565b7f506c656173652073656e6420302e303520657468657220746f2073746172742060008201527f7570646174654f776e65722070726f636573732e000000000000000000000000602082015250565b60006137c0603483612db0565b91506137cb82613764565b604082019050919050565b600060208201905081810360008301526137ef816137b3565b9050919050565b7f4f6e6c7920746865206f776e6572206f662074686520646f6d61696e2063616e60008201527f2075706461746520746865206f776e65722e0000000000000000000000000000602082015250565b6000613852603283612db0565b915061385d826137f6565b604082019050919050565b6000602082019050818103600083015261388181613845565b9050919050565b7f596f7520617265206e6f7420746865206f776e6572206f662074686520636f6e60008201527f747261637420746f207472616e7366657220646f6d61696e732e000000000000602082015250565b60006138e4603a83612db0565b91506138ef82613888565b604082019050919050565b60006020820190508181036000830152613913816138d7565b9050919050565b7f436f6e7472616374206973206e6f7420617070726f7665642e00000000000000600082015250565b6000613950601983612db0565b915061395b8261391a565b602082019050919050565b6000602082019050818103600083015261397f81613943565b9050919050565b7f506c656173652073656e6420302e303520657468657220746f2073746172742060008201527f7472616e73666572436f6e74726163742070726f636573732e00000000000000602082015250565b60006139e2603983612db0565b91506139ed82613986565b604082019050919050565b60006020820190508181036000830152613a11816139d5565b9050919050565b600081905092915050565b6000613a2e82612da5565b613a388185613a18565b9350613a48818560208601612dc1565b80840191505092915050565b6000613a608284613a23565b915081905092915050565b60006040820190508181036000830152613a858185613508565b9050613a9460208301846133e7565b9392505050565b7f4f776e61626c653a206e6577206f776e657220697320746865207a65726f206160008201527f6464726573730000000000000000000000000000000000000000000000000000602082015250565b6000613af7602683612db0565b9150613b0282613a9b565b604082019050919050565b60006020820190508181036000830152613b2681613aea565b9050919050565b7f4f776e61626c653a2063616c6c6572206973206e6f7420746865206f776e6572600082015250565b6000613b63602083612db0565b9150613b6e82613b2d565b602082019050919050565b60006020820190508181036000830152613b9281613b56565b9050919050565b7f446f6d61696e206e616d6520697320656d707479000000000000000000000000600082015250565b6000613bcf601483612db0565b9150613bda82613b99565b602082019050919050565b60006020820190508181036000830152613bfe81613bc2565b9050919050565b60006060820190508181036000830152613c1f8186612df4565b90508181036020830152613c338185612df4565b9050613c426040830184612f6a565b94935050505056fe446f6d61696e206e616d6520616e6420636f6e7472616374206164647265737320646f206e6f74206d61746368206f7220636f6e7472616374206973206e6f7420617070726f7665642e20436865636b20636f6e7472616374207374617465446f6d61696e206e616d6520616e6420636f6e74726163742061646472657373206d617463682062757420646f6d61696e2069732065787069726564a26469706673582212203163131d1f25c059882311b237ca80931fca2dbcac631fa4220e727303248b3364736f6c63430008090033",
  "linkReferences": {},
  "deployedLinkReferences": {}
}