{
  "_format": "hh-sol-artifact-1",
  "contractName": "CertDao",
  "sourceName": "contracts/CertDao.sol",
  "abi": [
    {
      "inputs": [],
      "stateMutability": "nonpayable",
      "type": "constructor"
    },
    {
      "anonymous": false,
      "inputs": [
        {
          "indexed": true,
          "internalType": "address",
          "name": "contractAddress",
          "type": "address"
        },
        {
          "indexed": false,
          "internalType": "string",
          "name": "domainName",
          "type": "string"
        },
        {
          "indexed": false,
          "internalType": "enum CertDao.domainStatus",
          "name": "status",
          "type": "uint8"
        }
      ],
      "name": "ContractApproved",
      "type": "event"
    },
    {
      "anonymous": false,
      "inputs": [
        {
          "indexed": true,
          "internalType": "address",
          "name": "contractAddress",
          "type": "address"
        },
        {
          "indexed": false,
          "internalType": "string",
          "name": "domainName",
          "type": "string"
        },
        {
          "indexed": false,
          "internalType": "string",
          "name": "description",
          "type": "string"
        }
      ],
      "name": "ContractExpired",
      "type": "event"
    },
    {
      "anonymous": false,
      "inputs": [
        {
          "indexed": true,
          "internalType": "address",
          "name": "contractAddress",
          "type": "address"
        },
        {
          "indexed": false,
          "internalType": "string",
          "name": "domainName",
          "type": "string"
        },
        {
          "indexed": false,
          "internalType": "string",
          "name": "description",
          "type": "string"
        }
      ],
      "name": "ContractManuallyFlag",
      "type": "event"
    },
    {
      "anonymous": false,
      "inputs": [
        {
          "indexed": true,
          "internalType": "address",
          "name": "contractAddress",
          "type": "address"
        },
        {
          "indexed": false,
          "internalType": "string",
          "name": "domainName",
          "type": "string"
        },
        {
          "indexed": false,
          "internalType": "string",
          "name": "description",
          "type": "string"
        }
      ],
      "name": "ContractRejected",
      "type": "event"
    },
    {
      "anonymous": false,
      "inputs": [
        {
          "indexed": true,
          "internalType": "address",
          "name": "contractAddress",
          "type": "address"
        },
        {
          "indexed": false,
          "internalType": "string",
          "name": "domainName",
          "type": "string"
        },
        {
          "indexed": false,
          "internalType": "enum CertDao.domainStatus",
          "name": "status",
          "type": "uint8"
        }
      ],
      "name": "ContractRenewed",
      "type": "event"
    },
    {
      "anonymous": false,
      "inputs": [
        {
          "indexed": true,
          "internalType": "address",
          "name": "contractAddress",
          "type": "address"
        },
        {
          "indexed": false,
          "internalType": "string",
          "name": "domainName",
          "type": "string"
        },
        {
          "indexed": false,
          "internalType": "string",
          "name": "description",
          "type": "string"
        }
      ],
      "name": "ContractRevoked",
      "type": "event"
    },
    {
      "anonymous": false,
      "inputs": [
        {
          "indexed": true,
          "internalType": "address",
          "name": "contractAddress",
          "type": "address"
        },
        {
          "indexed": false,
          "internalType": "string",
          "name": "domainName",
          "type": "string"
        }
      ],
      "name": "ContractSubmittedForValidation",
      "type": "event"
    },
    {
      "anonymous": false,
      "inputs": [
        {
          "indexed": true,
          "internalType": "address",
          "name": "previousOwner",
          "type": "address"
        },
        {
          "indexed": true,
          "internalType": "address",
          "name": "newOwner",
          "type": "address"
        }
      ],
      "name": "OwnershipTransferred",
      "type": "event"
    },
    {
      "inputs": [],
      "name": "CERTDAO_DOMAIN",
      "outputs": [
        {
          "internalType": "string",
          "name": "",
          "type": "string"
        }
      ],
      "stateMutability": "view",
      "type": "function"
    },
    {
      "inputs": [],
      "name": "EXPIRATION_PERIOD",
      "outputs": [
        {
          "internalType": "uint32",
          "name": "",
          "type": "uint32"
        }
      ],
      "stateMutability": "view",
      "type": "function"
    },
    {
      "inputs": [],
      "name": "PAY_AMOUNT",
      "outputs": [
        {
          "internalType": "uint64",
          "name": "",
          "type": "uint64"
        }
      ],
      "stateMutability": "view",
      "type": "function"
    },
    {
      "inputs": [
        {
          "internalType": "address",
          "name": "contractAddress",
          "type": "address"
        }
      ],
      "name": "approve",
      "outputs": [],
      "stateMutability": "nonpayable",
      "type": "function"
    },
    {
      "inputs": [
        {
          "internalType": "address[]",
          "name": "contractAddresses",
          "type": "address[]"
        }
      ],
      "name": "batchApprove",
      "outputs": [],
      "stateMutability": "nonpayable",
      "type": "function"
    },
    {
      "inputs": [
        {
          "internalType": "address[]",
          "name": "contractAddresses",
          "type": "address[]"
        }
      ],
      "name": "batchRevoke",
      "outputs": [],
      "stateMutability": "nonpayable",
      "type": "function"
    },
    {
      "inputs": [
        {
          "internalType": "string",
          "name": "a",
          "type": "string"
        },
        {
          "internalType": "string",
          "name": "b",
          "type": "string"
        }
      ],
      "name": "compareStrings",
      "outputs": [
        {
          "internalType": "bool",
          "name": "",
          "type": "bool"
        }
      ],
      "stateMutability": "pure",
      "type": "function"
    },
    {
      "inputs": [
        {
          "internalType": "enum CertDao.domainStatus",
          "name": "status",
          "type": "uint8"
        }
      ],
      "name": "domainStatusToString",
      "outputs": [
        {
          "internalType": "string",
          "name": "",
          "type": "string"
        }
      ],
      "stateMutability": "pure",
      "type": "function"
    },
    {
      "inputs": [
        {
          "internalType": "address",
          "name": "ownerAddress",
          "type": "address"
        }
      ],
      "name": "getContractAddress",
      "outputs": [
        {
          "internalType": "address",
          "name": "",
          "type": "address"
        }
      ],
      "stateMutability": "view",
      "type": "function"
    },
    {
      "inputs": [
        {
          "internalType": "address",
          "name": "contractAddress",
          "type": "address"
        }
      ],
      "name": "getDomainDescription",
      "outputs": [
        {
          "internalType": "string",
          "name": "",
          "type": "string"
        }
      ],
      "stateMutability": "view",
      "type": "function"
    },
    {
      "inputs": [
        {
          "internalType": "address",
          "name": "contractAddress",
          "type": "address"
        }
      ],
      "name": "getDomainName",
      "outputs": [
        {
          "internalType": "string",
          "name": "",
          "type": "string"
        }
      ],
      "stateMutability": "view",
      "type": "function"
    },
    {
      "inputs": [
        {
          "internalType": "address",
          "name": "contractAddress",
          "type": "address"
        }
      ],
      "name": "getDomainOwner",
      "outputs": [
        {
          "internalType": "address",
          "name": "",
          "type": "address"
        }
      ],
      "stateMutability": "view",
      "type": "function"
    },
    {
      "inputs": [
        {
          "internalType": "address",
          "name": "contractAddress",
          "type": "address"
        }
      ],
      "name": "getDomainStatus",
      "outputs": [
        {
          "internalType": "string",
          "name": "",
          "type": "string"
        }
      ],
      "stateMutability": "view",
      "type": "function"
    },
    {
      "inputs": [
        {
          "internalType": "address",
          "name": "contractAddress",
          "type": "address"
        },
        {
          "internalType": "string",
          "name": "domainName",
          "type": "string"
        },
        {
          "internalType": "string",
          "name": "description",
          "type": "string"
        }
      ],
      "name": "manualFlag",
      "outputs": [],
      "stateMutability": "nonpayable",
      "type": "function"
    },
    {
      "inputs": [],
      "name": "owner",
      "outputs": [
        {
          "internalType": "address",
          "name": "",
          "type": "address"
        }
      ],
      "stateMutability": "view",
      "type": "function"
    },
    {
      "inputs": [
        {
          "internalType": "address",
          "name": "",
          "type": "address"
        }
      ],
      "name": "ownerToContractAddress",
      "outputs": [
        {
          "internalType": "address",
          "name": "",
          "type": "address"
        }
      ],
      "stateMutability": "view",
      "type": "function"
    },
    {
      "inputs": [
        {
          "internalType": "address",
          "name": "contractAddress",
          "type": "address"
        },
        {
          "internalType": "string",
          "name": "domainName",
          "type": "string"
        }
      ],
      "name": "renew",
      "outputs": [],
      "stateMutability": "payable",
      "type": "function"
    },
    {
      "inputs": [],
      "name": "renounceOwnership",
      "outputs": [],
      "stateMutability": "nonpayable",
      "type": "function"
    },
    {
      "inputs": [
        {
          "internalType": "address",
          "name": "contractAddress",
          "type": "address"
        }
      ],
      "name": "revoke",
      "outputs": [],
      "stateMutability": "nonpayable",
      "type": "function"
    },
    {
      "inputs": [
        {
          "internalType": "address",
          "name": "contractAddress",
          "type": "address"
        },
        {
          "internalType": "string",
          "name": "domainName",
          "type": "string"
        },
        {
          "internalType": "string",
          "name": "description",
          "type": "string"
        }
      ],
      "name": "submitForValidation",
      "outputs": [],
      "stateMutability": "payable",
      "type": "function"
    },
    {
      "inputs": [],
      "name": "totalContractAddressMappings",
      "outputs": [
        {
          "internalType": "uint64",
          "name": "",
          "type": "uint64"
        }
      ],
      "stateMutability": "view",
      "type": "function"
    },
    {
      "inputs": [
        {
          "internalType": "address",
          "name": "newContractAddress",
          "type": "address"
        },
        {
          "internalType": "string",
          "name": "domainOwner",
          "type": "string"
        }
      ],
      "name": "transferContractToNewDomain",
      "outputs": [],
      "stateMutability": "payable",
      "type": "function"
    },
    {
      "inputs": [
        {
          "internalType": "address",
          "name": "newOwner",
          "type": "address"
        }
      ],
      "name": "transferOwnership",
      "outputs": [],
      "stateMutability": "nonpayable",
      "type": "function"
    },
    {
      "inputs": [
        {
          "internalType": "address",
          "name": "contractAddress",
          "type": "address"
        },
        {
          "internalType": "address",
          "name": "newDomainOwner",
          "type": "address"
        }
      ],
      "name": "updateOwner",
      "outputs": [],
      "stateMutability": "payable",
      "type": "function"
    },
    {
      "inputs": [
        {
          "internalType": "address",
          "name": "contractAddress",
          "type": "address"
        },
        {
          "internalType": "string",
          "name": "domainName",
          "type": "string"
        }
      ],
      "name": "verify",
      "outputs": [
        {
          "internalType": "bool",
          "name": "",
          "type": "bool"
        }
      ],
      "stateMutability": "view",
      "type": "function"
    }
  ],
  "bytecode": "0x60806040523480156200001157600080fd5b5062000032620000266200021f60201b60201c565b6200022760201b60201c565b60006040518060a001604052806040518060400160405280600b81526020017f6365727464616f2e6e657400000000000000000000000000000000000000000081525081526020016200008a620002eb60201b60201c565b73ffffffffffffffffffffffffffffffffffffffff16815260200160026005811115620000bc57620000bb620003c4565b5b815260200163bc19138042620000d391906200042c565b81526020016040518060400160405280601581526020017f4365727444616f204f776e65722067656e697369730000000000000000000000815250815250905080600260003073ffffffffffffffffffffffffffffffffffffffff1673ffffffffffffffffffffffffffffffffffffffff16815260200190815260200160002060008201518160000190805190602001906200017192919062000314565b5060208201518160010160006101000a81548173ffffffffffffffffffffffffffffffffffffffff021916908373ffffffffffffffffffffffffffffffffffffffff16021790555060408201518160010160146101000a81548160ff02191690836005811115620001e757620001e6620003c4565b5b02179055506060820151816002015560808201518160030190805190602001906200021492919062000314565b5090505050620004ee565b600033905090565b60008060009054906101000a900473ffffffffffffffffffffffffffffffffffffffff169050816000806101000a81548173ffffffffffffffffffffffffffffffffffffffff021916908373ffffffffffffffffffffffffffffffffffffffff1602179055508173ffffffffffffffffffffffffffffffffffffffff168173ffffffffffffffffffffffffffffffffffffffff167f8be0079c531659141344cd1fd0a4f28419497f9722a3daafe3b4186f6b6457e060405160405180910390a35050565b60008060009054906101000a900473ffffffffffffffffffffffffffffffffffffffff16905090565b8280546200032290620004b8565b90600052602060002090601f01602090048101928262000346576000855562000392565b82601f106200036157805160ff191683800117855562000392565b8280016001018555821562000392579182015b828111156200039157825182559160200191906001019062000374565b5b509050620003a19190620003a5565b5090565b5b80821115620003c0576000816000905550600101620003a6565b5090565b7f4e487b7100000000000000000000000000000000000000000000000000000000600052602160045260246000fd5b6000819050919050565b7f4e487b7100000000000000000000000000000000000000000000000000000000600052601160045260246000fd5b60006200043982620003f3565b91506200044683620003f3565b9250827fffffffffffffffffffffffffffffffffffffffffffffffffffffffffffffffff038211156200047e576200047d620003fd565b5b828201905092915050565b7f4e487b7100000000000000000000000000000000000000000000000000000000600052602260045260246000fd5b60006002820490506001821680620004d157607f821691505b60208210811415620004e857620004e762000489565b5b50919050565b61413680620004fe6000396000f3fe6080604052600436106101665760003560e01c80638da5cb5b116100d1578063bed34bba1161008a578063daea85c511610064578063daea85c51461052c578063e8fc927314610555578063ea5ed3db14610592578063f2fde38b146105bb57610166565b8063bed34bba14610499578063ca75960b146104d6578063cec3e3171461050157610166565b80638da5cb5b146103915780638e7d5a68146103bc578063945507cb146103f95780639900650014610424578063a6348c8014610461578063bc6183911461047d57610166565b8063622bc90e11610123578063622bc90e1461027e578063715018a6146102bb57806372b0a7ed146102d257806374a8f103146102ee5780637e219506146103175780637e3638b51461035457610166565b8063011002df1461016b578063043c6de3146101945780630694340e146101b05780630a0d9247146101ed5780633a61053c146102185780635036598f14610255575b600080fd5b34801561017757600080fd5b50610192600480360381019061018d9190612fc8565b6105e4565b005b6101ae60048036038101906101a991906130c6565b610632565b005b3480156101bc57600080fd5b506101d760048036038101906101d29190613122565b610a20565b6040516101e491906131d7565b60405180910390f35b3480156101f957600080fd5b50610202610b64565b60405161020f919061321c565b60405180910390f35b34801561022457600080fd5b5061023f600480360381019061023a919061325c565b610b6f565b60405161024c91906131d7565b60405180910390f35b34801561026157600080fd5b5061027c60048036038101906102779190613289565b610e2a565b005b34801561028a57600080fd5b506102a560048036038101906102a09190613122565b611065565b6040516102b29190613323565b60405180910390f35b3480156102c757600080fd5b506102d06110ce565b005b6102ec60048036038101906102e79190613289565b6110e2565b005b3480156102fa57600080fd5b5061031560048036038101906103109190613122565b6115da565b005b34801561032357600080fd5b5061033e60048036038101906103399190613122565b61182f565b60405161034b9190613323565b60405180910390f35b34801561036057600080fd5b5061037b60048036038101906103769190613122565b611862565b60405161038891906131d7565b60405180910390f35b34801561039d57600080fd5b506103a66119a6565b6040516103b39190613323565b60405180910390f35b3480156103c857600080fd5b506103e360048036038101906103de9190613122565b6119cf565b6040516103f091906131d7565b60405180910390f35b34801561040557600080fd5b5061040e611c97565b60405161041b91906131d7565b60405180910390f35b34801561043057600080fd5b5061044b60048036038101906104469190613122565b611cd0565b6040516104589190613323565b60405180910390f35b61047b6004803603810190610476919061333e565b611d3c565b005b610497600480360381019061049291906130c6565b61210a565b005b3480156104a557600080fd5b506104c060048036038101906104bb919061337e565b6122f1565b6040516104cd9190613411565b60405180910390f35b3480156104e257600080fd5b506104eb61234a565b6040516104f8919061344b565b60405180910390f35b34801561050d57600080fd5b50610516612352565b604051610523919061321c565b60405180910390f35b34801561053857600080fd5b50610553600480360381019061054e9190613122565b61236c565b005b34801561056157600080fd5b5061057c600480360381019061057791906130c6565b6125c3565b6040516105899190613411565b60405180910390f35b34801561059e57600080fd5b506105b960048036038101906105b49190612fc8565b612924565b005b3480156105c757600080fd5b506105e260048036038101906105dd9190613122565b612972565b005b6105ec6129f6565b60005b815181101561062e5761061b82828151811061060e5761060d613466565b5b60200260200101516115da565b8080610626906134ce565b9150506105ef565b5050565b61063c8282612a74565b600260008373ffffffffffffffffffffffffffffffffffffffff1673ffffffffffffffffffffffffffffffffffffffff16815260200190815260200160002060010160009054906101000a900473ffffffffffffffffffffffffffffffffffffffff1673ffffffffffffffffffffffffffffffffffffffff163373ffffffffffffffffffffffffffffffffffffffff16148061070a57506106db6119a6565b73ffffffffffffffffffffffffffffffffffffffff163373ffffffffffffffffffffffffffffffffffffffff16145b610749576040517f08c379a0000000000000000000000000000000000000000000000000000000008152600401610740906135af565b60405180910390fd5b6002600581111561075d5761075c6135cf565b5b600260008473ffffffffffffffffffffffffffffffffffffffff1673ffffffffffffffffffffffffffffffffffffffff16815260200190815260200160002060010160149054906101000a900460ff1660058111156107bf576107be6135cf565b5b1415610a1c57426301e1338063ffffffff16600260008573ffffffffffffffffffffffffffffffffffffffff1673ffffffffffffffffffffffffffffffffffffffff1681526020019081526020016000206002015461081e91906135fe565b10156109dc5766b1a2bc2ec5000067ffffffffffffffff163414610877576040517f08c379a000000000000000000000000000000000000000000000000000000000815260040161086e906136c6565b60405180910390fd5b6000806108826119a6565b73ffffffffffffffffffffffffffffffffffffffff1666b1a2bc2ec5000067ffffffffffffffff166040516108b690613717565b60006040518083038185875af1925050503d80600081146108f3576040519150601f19603f3d011682016040523d82523d6000602084013e6108f8565b606091505b50915091508161093d576040517f08c379a000000000000000000000000000000000000000000000000000000000815260040161093490613778565b60405180910390fd5b42600260008673ffffffffffffffffffffffffffffffffffffffff1673ffffffffffffffffffffffffffffffffffffffff168152602001908152602001600020600201819055508373ffffffffffffffffffffffffffffffffffffffff167fd9229190af804fd9bd07bfdc0d8e7c2d91d5f3173cc97b9ef1d6bbcbce817c5b8460026040516109cd9291906137e0565b60405180910390a25050610a1b565b610a1a6040518060400160405280601a81526020017f446f6d61696e206973206e6f742065787069726564207965742e000000000000815250612b2d565b5b5b5050565b6060600073ffffffffffffffffffffffffffffffffffffffff168273ffffffffffffffffffffffffffffffffffffffff161415610a92576040517f08c379a0000000000000000000000000000000000000000000000000000000008152600401610a899061385c565b60405180910390fd5b600260008373ffffffffffffffffffffffffffffffffffffffff1673ffffffffffffffffffffffffffffffffffffffff1681526020019081526020016000206003018054610adf906138ab565b80601f0160208091040260200160405190810160405280929190818152602001828054610b0b906138ab565b8015610b585780601f10610b2d57610100808354040283529160200191610b58565b820191906000526020600020905b815481529060010190602001808311610b3b57829003601f168201915b50505050509050919050565b66b1a2bc2ec5000081565b606060006005811115610b8557610b846135cf565b5b826005811115610b9857610b976135cf565b5b1415610bdb576040518060400160405280600781526020017f70656e64696e67000000000000000000000000000000000000000000000000008152509050610e25565b60016005811115610bef57610bee6135cf565b5b826005811115610c0257610c016135cf565b5b1415610c45576040518060400160405280600781526020017f65787069726564000000000000000000000000000000000000000000000000008152509050610e25565b60026005811115610c5957610c586135cf565b5b826005811115610c6c57610c6b6135cf565b5b1415610caf576040518060400160405280600881526020017f617070726f7665640000000000000000000000000000000000000000000000008152509050610e25565b60036005811115610cc357610cc26135cf565b5b826005811115610cd657610cd56135cf565b5b1415610d19576040518060400160405280600881526020017f72656a65637465640000000000000000000000000000000000000000000000008152509050610e25565b60046005811115610d2d57610d2c6135cf565b5b826005811115610d4057610d3f6135cf565b5b1415610d83576040518060400160405280600781526020017f7265766f6b6564000000000000000000000000000000000000000000000000008152509050610e25565b600580811115610d9657610d956135cf565b5b826005811115610da957610da86135cf565b5b1415610dec576040518060400160405280600a81526020017f6d616e75616c466c6167000000000000000000000000000000000000000000008152509050610e25565b6040518060400160405280600781526020017f756e6b6e6f776e0000000000000000000000000000000000000000000000000081525090505b919050565b610e326129f6565b600073ffffffffffffffffffffffffffffffffffffffff168373ffffffffffffffffffffffffffffffffffffffff161415610ea2576040517f08c379a0000000000000000000000000000000000000000000000000000000008152600401610e999061385c565b60405180910390fd5b6005600260008573ffffffffffffffffffffffffffffffffffffffff1673ffffffffffffffffffffffffffffffffffffffff16815260200190815260200160002060010160146101000a81548160ff02191690836005811115610f0857610f076135cf565b5b02179055506000825114610f6e5781600260008573ffffffffffffffffffffffffffffffffffffffff1673ffffffffffffffffffffffffffffffffffffffff1681526020019081526020016000206000019080519060200190610f6c929190612d5a565b505b6000815114610fcf5780600260008573ffffffffffffffffffffffffffffffffffffffff1673ffffffffffffffffffffffffffffffffffffffff1681526020019081526020016000206003019080519060200190610fcd929190612d5a565b505b8273ffffffffffffffffffffffffffffffffffffffff167f333fcfe85110a1e880e493c16a2a2c2eb62ab038f109ca7467d26d641bb5699d600260008673ffffffffffffffffffffffffffffffffffffffff1673ffffffffffffffffffffffffffffffffffffffff16815260200190815260200160002060000183604051611058929190613972565b60405180910390a2505050565b6000600160008373ffffffffffffffffffffffffffffffffffffffff1673ffffffffffffffffffffffffffffffffffffffff16815260200190815260200160002060009054906101000a900473ffffffffffffffffffffffffffffffffffffffff169050919050565b6110d66129f6565b6110e06000612bc6565b565b6111226040518060400160405280601d81526020017f446f6d61696e204e616d653a2025732c20436f6e74726163743a2025730000008152508385612c8a565b61112c8383612a74565b66b1a2bc2ec5000067ffffffffffffffff16341461117f576040517f08c379a000000000000000000000000000000000000000000000000000000000815260040161117690613a1b565b60405180910390fd5b611262600260008573ffffffffffffffffffffffffffffffffffffffff1673ffffffffffffffffffffffffffffffffffffffff16815260200190815260200160002060000180546111cf906138ab565b80601f01602080910402602001604051908101604052809291908181526020018280546111fb906138ab565b80156112485780601f1061121d57610100808354040283529160200191611248565b820191906000526020600020905b81548152906001019060200180831161122b57829003601f168201915b5050505050604051806020016040528060008152506122f1565b6112a1576040517f08c379a000000000000000000000000000000000000000000000000000000000815260040161129890613aad565b60405180910390fd5b6000806112ac6119a6565b73ffffffffffffffffffffffffffffffffffffffff1666b1a2bc2ec5000067ffffffffffffffff166040516112e090613717565b60006040518083038185875af1925050503d806000811461131d576040519150601f19603f3d011682016040523d82523d6000602084013e611322565b606091505b509150915081611367576040517f08c379a000000000000000000000000000000000000000000000000000000000815260040161135e90613778565b60405180910390fd5b60006040518060a001604052808681526020013373ffffffffffffffffffffffffffffffffffffffff168152602001600060058111156113aa576113a96135cf565b5b815260200142815260200185815250905080600260008873ffffffffffffffffffffffffffffffffffffffff1673ffffffffffffffffffffffffffffffffffffffff1681526020019081526020016000206000820151816000019080519060200190611417929190612d5a565b5060208201518160010160006101000a81548173ffffffffffffffffffffffffffffffffffffffff021916908373ffffffffffffffffffffffffffffffffffffffff16021790555060408201518160010160146101000a81548160ff0219169083600581111561148a576114896135cf565b5b02179055506060820151816002015560808201518160030190805190602001906114b5929190612d5a565b5090505085600160003373ffffffffffffffffffffffffffffffffffffffff1673ffffffffffffffffffffffffffffffffffffffff16815260200190815260200160002060006101000a81548173ffffffffffffffffffffffffffffffffffffffff021916908373ffffffffffffffffffffffffffffffffffffffff1602179055506003600081819054906101000a900467ffffffffffffffff168092919061155d90613acd565b91906101000a81548167ffffffffffffffff021916908367ffffffffffffffff160217905550508573ffffffffffffffffffffffffffffffffffffffff167fe56a1dcfd351f0a9dc4f9bda49d191d54001ff53db4f795b8e146cf12660d139866040516115ca91906131d7565b60405180910390a2505050505050565b6115e26129f6565b6116b681600260008473ffffffffffffffffffffffffffffffffffffffff1673ffffffffffffffffffffffffffffffffffffffff1681526020019081526020016000206000018054611633906138ab565b80601f016020809104026020016040519081016040528092919081815260200182805461165f906138ab565b80156116ac5780601f10611681576101008083540402835291602001916116ac565b820191906000526020600020905b81548152906001019060200180831161168f57829003601f168201915b5050505050612a74565b600460058111156116ca576116c96135cf565b5b600260008373ffffffffffffffffffffffffffffffffffffffff1673ffffffffffffffffffffffffffffffffffffffff16815260200190815260200160002060010160149054906101000a900460ff16600581111561172c5761172b6135cf565b5b1461182c576004600260008373ffffffffffffffffffffffffffffffffffffffff1673ffffffffffffffffffffffffffffffffffffffff16815260200190815260200160002060010160146101000a81548160ff02191690836005811115611797576117966135cf565b5b02179055508073ffffffffffffffffffffffffffffffffffffffff167fcf5a73a37bc6f798de8cf5a014571f0f3005949c4f8911c44ec304ee24941a78600260008473ffffffffffffffffffffffffffffffffffffffff1673ffffffffffffffffffffffffffffffffffffffff1681526020019081526020016000206000016040516118239190613b4a565b60405180910390a25b50565b60016020528060005260406000206000915054906101000a900473ffffffffffffffffffffffffffffffffffffffff1681565b6060600073ffffffffffffffffffffffffffffffffffffffff168273ffffffffffffffffffffffffffffffffffffffff1614156118d4576040517f08c379a00000000000000000000000000000000000000000000000000000000081526004016118cb9061385c565b60405180910390fd5b600260008373ffffffffffffffffffffffffffffffffffffffff1673ffffffffffffffffffffffffffffffffffffffff1681526020019081526020016000206000018054611921906138ab565b80601f016020809104026020016040519081016040528092919081815260200182805461194d906138ab565b801561199a5780601f1061196f5761010080835404028352916020019161199a565b820191906000526020600020905b81548152906001019060200180831161197d57829003601f168201915b50505050509050919050565b60008060009054906101000a900473ffffffffffffffffffffffffffffffffffffffff16905090565b6060600073ffffffffffffffffffffffffffffffffffffffff168273ffffffffffffffffffffffffffffffffffffffff161415611a41576040517f08c379a0000000000000000000000000000000000000000000000000000000008152600401611a389061385c565b60405180910390fd5b6000600260008473ffffffffffffffffffffffffffffffffffffffff1673ffffffffffffffffffffffffffffffffffffffff1681526020019081526020016000206040518060a0016040529081600082018054611a9d906138ab565b80601f0160208091040260200160405190810160405280929190818152602001828054611ac9906138ab565b8015611b165780601f10611aeb57610100808354040283529160200191611b16565b820191906000526020600020905b815481529060010190602001808311611af957829003601f168201915b505050505081526020016001820160009054906101000a900473ffffffffffffffffffffffffffffffffffffffff1673ffffffffffffffffffffffffffffffffffffffff1673ffffffffffffffffffffffffffffffffffffffff1681526020016001820160149054906101000a900460ff166005811115611b9a57611b996135cf565b5b6005811115611bac57611bab6135cf565b5b815260200160028201548152602001600382018054611bca906138ab565b80601f0160208091040260200160405190810160405280929190818152602001828054611bf6906138ab565b8015611c435780601f10611c1857610100808354040283529160200191611c43565b820191906000526020600020905b815481529060010190602001808311611c2657829003601f168201915b5050505050815250509050426301e1338063ffffffff168260600151611c6991906135fe565b1015611c8157611c796001610b6f565b915050611c92565b611c8e8160400151610b6f565b9150505b919050565b6040518060400160405280600b81526020017f6365727464616f2e6e657400000000000000000000000000000000000000000081525081565b6000600260008373ffffffffffffffffffffffffffffffffffffffff1673ffffffffffffffffffffffffffffffffffffffff16815260200190815260200160002060010160009054906101000a900473ffffffffffffffffffffffffffffffffffffffff169050919050565b600073ffffffffffffffffffffffffffffffffffffffff168273ffffffffffffffffffffffffffffffffffffffff161415611dac576040517f08c379a0000000000000000000000000000000000000000000000000000000008152600401611da39061385c565b60405180910390fd5b600073ffffffffffffffffffffffffffffffffffffffff168173ffffffffffffffffffffffffffffffffffffffff161415611e1c576040517f08c379a0000000000000000000000000000000000000000000000000000000008152600401611e1390613bcb565b60405180910390fd5b66b1a2bc2ec5000067ffffffffffffffff163414611e6f576040517f08c379a0000000000000000000000000000000000000000000000000000000008152600401611e6690613c5d565b60405180910390fd5b600260008373ffffffffffffffffffffffffffffffffffffffff1673ffffffffffffffffffffffffffffffffffffffff16815260200190815260200160002060010160009054906101000a900473ffffffffffffffffffffffffffffffffffffffff1673ffffffffffffffffffffffffffffffffffffffff163373ffffffffffffffffffffffffffffffffffffffff1614611f3f576040517f08c379a0000000000000000000000000000000000000000000000000000000008152600401611f3690613cef565b60405180910390fd5b600080611f4a6119a6565b73ffffffffffffffffffffffffffffffffffffffff1666b1a2bc2ec5000067ffffffffffffffff16604051611f7e90613717565b60006040518083038185875af1925050503d8060008114611fbb576040519150601f19603f3d011682016040523d82523d6000602084013e611fc0565b606091505b509150915081612005576040517f08c379a0000000000000000000000000000000000000000000000000000000008152600401611ffc90613778565b60405180910390fd5b82600260008673ffffffffffffffffffffffffffffffffffffffff1673ffffffffffffffffffffffffffffffffffffffff16815260200190815260200160002060010160006101000a81548173ffffffffffffffffffffffffffffffffffffffff021916908373ffffffffffffffffffffffffffffffffffffffff16021790555083600160008573ffffffffffffffffffffffffffffffffffffffff1673ffffffffffffffffffffffffffffffffffffffff16815260200190815260200160002060006101000a81548173ffffffffffffffffffffffffffffffffffffffff021916908373ffffffffffffffffffffffffffffffffffffffff16021790555050505050565b6121148282612a74565b600260008373ffffffffffffffffffffffffffffffffffffffff1673ffffffffffffffffffffffffffffffffffffffff16815260200190815260200160002060010160009054906101000a900473ffffffffffffffffffffffffffffffffffffffff1673ffffffffffffffffffffffffffffffffffffffff163373ffffffffffffffffffffffffffffffffffffffff16146121e4576040517f08c379a00000000000000000000000000000000000000000000000000000000081526004016121db90613d81565b60405180910390fd5b600260058111156121f8576121f76135cf565b5b600260008473ffffffffffffffffffffffffffffffffffffffff1673ffffffffffffffffffffffffffffffffffffffff16815260200190815260200160002060010160149054906101000a900460ff16600581111561225a576122596135cf565b5b1461229a576040517f08c379a000000000000000000000000000000000000000000000000000000000815260040161229190613ded565b60405180910390fd5b66b1a2bc2ec5000067ffffffffffffffff1634146122ed576040517f08c379a00000000000000000000000000000000000000000000000000000000081526004016122e490613e7f565b60405180910390fd5b5050565b6000816040516020016123049190613edb565b604051602081830303815290604052805190602001208360405160200161232b9190613edb565b6040516020818303038152906040528051906020012014905092915050565b6301e1338081565b600360009054906101000a900467ffffffffffffffff1681565b6123746129f6565b61244881600260008473ffffffffffffffffffffffffffffffffffffffff1673ffffffffffffffffffffffffffffffffffffffff16815260200190815260200160002060000180546123c5906138ab565b80601f01602080910402602001604051908101604052809291908181526020018280546123f1906138ab565b801561243e5780601f106124135761010080835404028352916020019161243e565b820191906000526020600020905b81548152906001019060200180831161242157829003601f168201915b5050505050612a74565b6002600581111561245c5761245b6135cf565b5b600260008373ffffffffffffffffffffffffffffffffffffffff1673ffffffffffffffffffffffffffffffffffffffff16815260200190815260200160002060010160149054906101000a900460ff1660058111156124be576124bd6135cf565b5b146125c05760028060008373ffffffffffffffffffffffffffffffffffffffff1673ffffffffffffffffffffffffffffffffffffffff16815260200190815260200160002060010160146101000a81548160ff02191690836005811115612528576125276135cf565b5b02179055508073ffffffffffffffffffffffffffffffffffffffff167f8011544f5939f920af965d629972e4c6fc410156953fb0e4be4ae1ddf5e9636a600260008473ffffffffffffffffffffffffffffffffffffffff1673ffffffffffffffffffffffffffffffffffffffff16815260200190815260200160002060000160026040516125b7929190613ef2565b60405180910390a25b50565b60006126056040518060400160405280600e81526020017f496e707574733a2025732c2025730000000000000000000000000000000000008152508385612c8a565b61260f8383612a74565b6000600260008573ffffffffffffffffffffffffffffffffffffffff1673ffffffffffffffffffffffffffffffffffffffff1681526020019081526020016000206040518060a001604052908160008201805461266b906138ab565b80601f0160208091040260200160405190810160405280929190818152602001828054612697906138ab565b80156126e45780601f106126b9576101008083540402835291602001916126e4565b820191906000526020600020905b8154815290600101906020018083116126c757829003601f168201915b505050505081526020016001820160009054906101000a900473ffffffffffffffffffffffffffffffffffffffff1673ffffffffffffffffffffffffffffffffffffffff1673ffffffffffffffffffffffffffffffffffffffff1681526020016001820160149054906101000a900460ff166005811115612768576127676135cf565b5b600581111561277a576127796135cf565b5b815260200160028201548152602001600382018054612798906138ab565b80601f01602080910402602001604051908101604052809291908181526020018280546127c4906138ab565b80156128115780601f106127e657610100808354040283529160200191612811565b820191906000526020600020905b8154815290600101906020018083116127f457829003601f168201915b505050505081525050905061282a8160000151846122f1565b801561285e575060026005811115612845576128446135cf565b5b8160400151600581111561285c5761285b6135cf565b5b145b156128f757426301e1338063ffffffff16826060015161287e91906135fe565b11156128cc576128c26040518060400160405280601481526020017f436f6e7472616374206973207665726966696564000000000000000000000000815250612b2d565b600191505061291e565b6128ed6040518060600160405280603c81526020016140c5603c9139612b2d565b600091505061291e565b6129186040518060800160405280605f8152602001614066605f9139612b2d565b60009150505b92915050565b61292c6129f6565b60005b815181101561296e5761295b82828151811061294e5761294d613466565b5b602002602001015161236c565b8080612966906134ce565b91505061292f565b5050565b61297a6129f6565b600073ffffffffffffffffffffffffffffffffffffffff168173ffffffffffffffffffffffffffffffffffffffff1614156129ea576040517f08c379a00000000000000000000000000000000000000000000000000000000081526004016129e190613f94565b60405180910390fd5b6129f381612bc6565b50565b6129fe612d29565b73ffffffffffffffffffffffffffffffffffffffff16612a1c6119a6565b73ffffffffffffffffffffffffffffffffffffffff1614612a72576040517f08c379a0000000000000000000000000000000000000000000000000000000008152600401612a6990614000565b60405180910390fd5b565b600081511415612ab9576040517f08c379a0000000000000000000000000000000000000000000000000000000008152600401612ab090613bcb565b60405180910390fd5b600073ffffffffffffffffffffffffffffffffffffffff168273ffffffffffffffffffffffffffffffffffffffff161415612b29576040517f08c379a0000000000000000000000000000000000000000000000000000000008152600401612b209061385c565b60405180910390fd5b5050565b612bc381604051602401612b4191906131d7565b6040516020818303038152906040527f41304fac000000000000000000000000000000000000000000000000000000007bffffffffffffffffffffffffffffffffffffffffffffffffffffffff19166020820180517bffffffffffffffffffffffffffffffffffffffffffffffffffffffff8381831617835250505050612d31565b50565b60008060009054906101000a900473ffffffffffffffffffffffffffffffffffffffff169050816000806101000a81548173ffffffffffffffffffffffffffffffffffffffff021916908373ffffffffffffffffffffffffffffffffffffffff1602179055508173ffffffffffffffffffffffffffffffffffffffff168173ffffffffffffffffffffffffffffffffffffffff167f8be0079c531659141344cd1fd0a4f28419497f9722a3daafe3b4186f6b6457e060405160405180910390a35050565b612d24838383604051602401612ca293929190614020565b6040516020818303038152906040527f95ed0195000000000000000000000000000000000000000000000000000000007bffffffffffffffffffffffffffffffffffffffffffffffffffffffff19166020820180517bffffffffffffffffffffffffffffffffffffffffffffffffffffffff8381831617835250505050612d31565b505050565b600033905090565b60008151905060006a636f6e736f6c652e6c6f679050602083016000808483855afa5050505050565b828054612d66906138ab565b90600052602060002090601f016020900481019282612d885760008555612dcf565b82601f10612da157805160ff1916838001178555612dcf565b82800160010185558215612dcf579182015b82811115612dce578251825591602001919060010190612db3565b5b509050612ddc9190612de0565b5090565b5b80821115612df9576000816000905550600101612de1565b5090565b6000604051905090565b600080fd5b600080fd5b600080fd5b6000601f19601f8301169050919050565b7f4e487b7100000000000000000000000000000000000000000000000000000000600052604160045260246000fd5b612e5f82612e16565b810181811067ffffffffffffffff82111715612e7e57612e7d612e27565b5b80604052505050565b6000612e91612dfd565b9050612e9d8282612e56565b919050565b600067ffffffffffffffff821115612ebd57612ebc612e27565b5b602082029050602081019050919050565b600080fd5b600073ffffffffffffffffffffffffffffffffffffffff82169050919050565b6000612efe82612ed3565b9050919050565b612f0e81612ef3565b8114612f1957600080fd5b50565b600081359050612f2b81612f05565b92915050565b6000612f44612f3f84612ea2565b612e87565b90508083825260208201905060208402830185811115612f6757612f66612ece565b5b835b81811015612f905780612f7c8882612f1c565b845260208401935050602081019050612f69565b5050509392505050565b600082601f830112612faf57612fae612e11565b5b8135612fbf848260208601612f31565b91505092915050565b600060208284031215612fde57612fdd612e07565b5b600082013567ffffffffffffffff811115612ffc57612ffb612e0c565b5b61300884828501612f9a565b91505092915050565b600080fd5b600067ffffffffffffffff82111561303157613030612e27565b5b61303a82612e16565b9050602081019050919050565b82818337600083830152505050565b600061306961306484613016565b612e87565b90508281526020810184848401111561308557613084613011565b5b613090848285613047565b509392505050565b600082601f8301126130ad576130ac612e11565b5b81356130bd848260208601613056565b91505092915050565b600080604083850312156130dd576130dc612e07565b5b60006130eb85828601612f1c565b925050602083013567ffffffffffffffff81111561310c5761310b612e0c565b5b61311885828601613098565b9150509250929050565b60006020828403121561313857613137612e07565b5b600061314684828501612f1c565b91505092915050565b600081519050919050565b600082825260208201905092915050565b60005b8381101561318957808201518184015260208101905061316e565b83811115613198576000848401525b50505050565b60006131a98261314f565b6131b3818561315a565b93506131c381856020860161316b565b6131cc81612e16565b840191505092915050565b600060208201905081810360008301526131f1818461319e565b905092915050565b600067ffffffffffffffff82169050919050565b613216816131f9565b82525050565b6000602082019050613231600083018461320d565b92915050565b6006811061324457600080fd5b50565b60008135905061325681613237565b92915050565b60006020828403121561327257613271612e07565b5b600061328084828501613247565b91505092915050565b6000806000606084860312156132a2576132a1612e07565b5b60006132b086828701612f1c565b935050602084013567ffffffffffffffff8111156132d1576132d0612e0c565b5b6132dd86828701613098565b925050604084013567ffffffffffffffff8111156132fe576132fd612e0c565b5b61330a86828701613098565b9150509250925092565b61331d81612ef3565b82525050565b60006020820190506133386000830184613314565b92915050565b6000806040838503121561335557613354612e07565b5b600061336385828601612f1c565b925050602061337485828601612f1c565b9150509250929050565b6000806040838503121561339557613394612e07565b5b600083013567ffffffffffffffff8111156133b3576133b2612e0c565b5b6133bf85828601613098565b925050602083013567ffffffffffffffff8111156133e0576133df612e0c565b5b6133ec85828601613098565b9150509250929050565b60008115159050919050565b61340b816133f6565b82525050565b60006020820190506134266000830184613402565b92915050565b600063ffffffff82169050919050565b6134458161342c565b82525050565b6000602082019050613460600083018461343c565b92915050565b7f4e487b7100000000000000000000000000000000000000000000000000000000600052603260045260246000fd5b7f4e487b7100000000000000000000000000000000000000000000000000000000600052601160045260246000fd5b6000819050919050565b60006134d9826134c4565b91507fffffffffffffffffffffffffffffffffffffffffffffffffffffffffffffffff82141561350c5761350b613495565b5b600182019050919050565b7f4f6e6c7920746865206f776e6572206f662074686520636f6e7472616374206f60008201527f722044414f2063616e2072656e65772074686520646f6d61696e206d6170706960208201527f6e672e0000000000000000000000000000000000000000000000000000000000604082015250565b600061359960438361315a565b91506135a482613517565b606082019050919050565b600060208201905081810360008301526135c88161358c565b9050919050565b7f4e487b7100000000000000000000000000000000000000000000000000000000600052602160045260246000fd5b6000613609826134c4565b9150613614836134c4565b9250827fffffffffffffffffffffffffffffffffffffffffffffffffffffffffffffffff0382111561364957613648613495565b5b828201905092915050565b7f506c656173652073656e6420302e303520657468657220746f2072656e65772060008201527f74686520646f6d61696e2e000000000000000000000000000000000000000000602082015250565b60006136b0602b8361315a565b91506136bb82613654565b604082019050919050565b600060208201905081810360008301526136df816136a3565b9050919050565b600081905092915050565b50565b60006137016000836136e6565b915061370c826136f1565b600082019050919050565b6000613722826136f4565b9150819050919050565b7f4661696c656420746f2073656e64204574686572210000000000000000000000600082015250565b600061376260158361315a565b915061376d8261372c565b602082019050919050565b6000602082019050818103600083015261379181613755565b9050919050565b600681106137a9576137a86135cf565b5b50565b60008190506137ba82613798565b919050565b60006137ca826137ac565b9050919050565b6137da816137bf565b82525050565b600060408201905081810360008301526137fa818561319e565b905061380960208301846137d1565b9392505050565b7f436f6e7472616374206164647265737320697320656d70747900000000000000600082015250565b600061384660198361315a565b915061385182613810565b602082019050919050565b6000602082019050818103600083015261387581613839565b9050919050565b7f4e487b7100000000000000000000000000000000000000000000000000000000600052602260045260246000fd5b600060028204905060018216806138c357607f821691505b602082108114156138d7576138d661387c565b5b50919050565b60008190508160005260206000209050919050565b600081546138ff816138ab565b613909818661315a565b94506001821660008114613924576001811461393657613969565b60ff1983168652602086019350613969565b61393f856138dd565b60005b8381101561396157815481890152600182019150602081019050613942565b808801955050505b50505092915050565b6000604082019050818103600083015261398c81856138f2565b905081810360208301526139a0818461319e565b90509392505050565b7f506c656173652073656e6420302e303520657468657220746f2073746172742060008201527f7468652076616c69646174696f6e2070726f636573732e000000000000000000602082015250565b6000613a0560378361315a565b9150613a10826139a9565b604082019050919050565b60006020820190508181036000830152613a34816139f8565b9050919050565b7f446f6d61696e206e616d6520616c72656164792072656769737465726564206960008201527f6e207374727563742e0000000000000000000000000000000000000000000000602082015250565b6000613a9760298361315a565b9150613aa282613a3b565b604082019050919050565b60006020820190508181036000830152613ac681613a8a565b9050919050565b6000613ad8826131f9565b915067ffffffffffffffff821415613af357613af2613495565b5b600182019050919050565b7f436f6e7472616374207265766f6b65642062792044414f000000000000000000600082015250565b6000613b3460178361315a565b9150613b3f82613afe565b602082019050919050565b60006040820190508181036000830152613b6481846138f2565b90508181036020830152613b7781613b27565b905092915050565b7f446f6d61696e206e616d6520697320656d707479000000000000000000000000600082015250565b6000613bb560148361315a565b9150613bc082613b7f565b602082019050919050565b60006020820190508181036000830152613be481613ba8565b9050919050565b7f506c656173652073656e6420302e303520657468657220746f2073746172742060008201527f7570646174654f776e65722070726f636573732e000000000000000000000000602082015250565b6000613c4760348361315a565b9150613c5282613beb565b604082019050919050565b60006020820190508181036000830152613c7681613c3a565b9050919050565b7f4f6e6c7920746865206f776e6572206f662074686520646f6d61696e2063616e60008201527f2075706461746520746865206f776e65722e0000000000000000000000000000602082015250565b6000613cd960328361315a565b9150613ce482613c7d565b604082019050919050565b60006020820190508181036000830152613d0881613ccc565b9050919050565b7f596f7520617265206e6f7420746865206f776e6572206f662074686520636f6e60008201527f747261637420746f207472616e7366657220646f6d61696e732e000000000000602082015250565b6000613d6b603a8361315a565b9150613d7682613d0f565b604082019050919050565b60006020820190508181036000830152613d9a81613d5e565b9050919050565b7f436f6e7472616374206973206e6f7420617070726f7665642e00000000000000600082015250565b6000613dd760198361315a565b9150613de282613da1565b602082019050919050565b60006020820190508181036000830152613e0681613dca565b9050919050565b7f506c656173652073656e6420302e303520657468657220746f2073746172742060008201527f7472616e73666572436f6e74726163742070726f636573732e00000000000000602082015250565b6000613e6960398361315a565b9150613e7482613e0d565b604082019050919050565b60006020820190508181036000830152613e9881613e5c565b9050919050565b600081905092915050565b6000613eb58261314f565b613ebf8185613e9f565b9350613ecf81856020860161316b565b80840191505092915050565b6000613ee78284613eaa565b915081905092915050565b60006040820190508181036000830152613f0c81856138f2565b9050613f1b60208301846137d1565b9392505050565b7f4f776e61626c653a206e6577206f776e657220697320746865207a65726f206160008201527f6464726573730000000000000000000000000000000000000000000000000000602082015250565b6000613f7e60268361315a565b9150613f8982613f22565b604082019050919050565b60006020820190508181036000830152613fad81613f71565b9050919050565b7f4f776e61626c653a2063616c6c6572206973206e6f7420746865206f776e6572600082015250565b6000613fea60208361315a565b9150613ff582613fb4565b602082019050919050565b6000602082019050818103600083015261401981613fdd565b9050919050565b6000606082019050818103600083015261403a818661319e565b9050818103602083015261404e818561319e565b905061405d6040830184613314565b94935050505056fe446f6d61696e206e616d6520616e6420636f6e7472616374206164647265737320646f206e6f74206d61746368206f7220636f6e7472616374206973206e6f7420617070726f7665642e20436865636b20636f6e7472616374207374617465446f6d61696e206e616d6520616e6420636f6e74726163742061646472657373206d617463682062757420646f6d61696e2069732065787069726564a264697066735822122081fbf93313ef08fe1532a61625a6958b9adf59c7ff37baf28006b6ef893c687964736f6c63430008090033",
  "linkReferences": {},
  "deployedLinkReferences": {}
}