{
  "_format": "hh-sol-artifact-1",
  "contractName": "CertDao",
  "sourceName": "contracts/CertDao.sol",
  "abi": [
    {
      "inputs": [],
      "stateMutability": "nonpayable",
      "type": "constructor"
    },
    {
      "anonymous": false,
      "inputs": [
        {
          "indexed": true,
          "internalType": "address",
          "name": "contractAddress",
          "type": "address"
        },
        {
          "indexed": true,
          "internalType": "string",
          "name": "domainName",
          "type": "string"
        },
        {
          "indexed": false,
          "internalType": "enum ICertDao.DomainStatus",
          "name": "status",
          "type": "uint8"
        }
      ],
      "name": "ContractApproved",
      "type": "event"
    },
    {
      "anonymous": false,
      "inputs": [
        {
          "indexed": true,
          "internalType": "address",
          "name": "contractAddress",
          "type": "address"
        },
        {
          "indexed": true,
          "internalType": "string",
          "name": "domainName",
          "type": "string"
        },
        {
          "indexed": false,
          "internalType": "string",
          "name": "description",
          "type": "string"
        }
      ],
      "name": "ContractExpired",
      "type": "event"
    },
    {
      "anonymous": false,
      "inputs": [
        {
          "indexed": true,
          "internalType": "address",
          "name": "contractAddress",
          "type": "address"
        },
        {
          "indexed": true,
          "internalType": "string",
          "name": "domainName",
          "type": "string"
        },
        {
          "indexed": false,
          "internalType": "string",
          "name": "description",
          "type": "string"
        }
      ],
      "name": "ContractManuallyFlag",
      "type": "event"
    },
    {
      "anonymous": false,
      "inputs": [
        {
          "indexed": true,
          "internalType": "address",
          "name": "contractAddress",
          "type": "address"
        },
        {
          "indexed": true,
          "internalType": "string",
          "name": "domainName",
          "type": "string"
        },
        {
          "indexed": false,
          "internalType": "string",
          "name": "description",
          "type": "string"
        }
      ],
      "name": "ContractRejected",
      "type": "event"
    },
    {
      "anonymous": false,
      "inputs": [
        {
          "indexed": true,
          "internalType": "address",
          "name": "contractAddress",
          "type": "address"
        },
        {
          "indexed": true,
          "internalType": "string",
          "name": "domainName",
          "type": "string"
        },
        {
          "indexed": false,
          "internalType": "enum ICertDao.DomainStatus",
          "name": "status",
          "type": "uint8"
        }
      ],
      "name": "ContractRenewed",
      "type": "event"
    },
    {
      "anonymous": false,
      "inputs": [
        {
          "indexed": true,
          "internalType": "address",
          "name": "contractAddress",
          "type": "address"
        },
        {
          "indexed": true,
          "internalType": "string",
          "name": "domainName",
          "type": "string"
        },
        {
          "indexed": false,
          "internalType": "string",
          "name": "description",
          "type": "string"
        }
      ],
      "name": "ContractRevoked",
      "type": "event"
    },
    {
      "anonymous": false,
      "inputs": [
        {
          "indexed": true,
          "internalType": "address",
          "name": "contractAddress",
          "type": "address"
        },
        {
          "indexed": true,
          "internalType": "string",
          "name": "domainName",
          "type": "string"
        }
      ],
      "name": "ContractSubmittedForValidation",
      "type": "event"
    },
    {
      "anonymous": false,
      "inputs": [
        {
          "indexed": true,
          "internalType": "address",
          "name": "contractAddress",
          "type": "address"
        },
        {
          "indexed": true,
          "internalType": "address",
          "name": "owner",
          "type": "address"
        },
        {
          "indexed": true,
          "internalType": "string",
          "name": "domainName",
          "type": "string"
        },
        {
          "indexed": false,
          "internalType": "string",
          "name": "domainStatus",
          "type": "string"
        },
        {
          "indexed": false,
          "internalType": "string",
          "name": "description",
          "type": "string"
        }
      ],
      "name": "OwnerCreated",
      "type": "event"
    },
    {
      "anonymous": false,
      "inputs": [
        {
          "indexed": true,
          "internalType": "address",
          "name": "previousOwner",
          "type": "address"
        },
        {
          "indexed": true,
          "internalType": "address",
          "name": "newOwner",
          "type": "address"
        }
      ],
      "name": "OwnershipTransferred",
      "type": "event"
    },
    {
      "inputs": [],
      "name": "CERTDAO_DOMAIN",
      "outputs": [
        {
          "internalType": "string",
          "name": "",
          "type": "string"
        }
      ],
      "stateMutability": "view",
      "type": "function"
    },
    {
      "inputs": [
        {
          "internalType": "enum ICertDao.DomainStatus",
          "name": "status",
          "type": "uint8"
        }
      ],
      "name": "DomainStatusToString",
      "outputs": [
        {
          "internalType": "string",
          "name": "",
          "type": "string"
        }
      ],
      "stateMutability": "pure",
      "type": "function"
    },
    {
      "inputs": [],
      "name": "EXPIRATION_PERIOD",
      "outputs": [
        {
          "internalType": "uint32",
          "name": "",
          "type": "uint32"
        }
      ],
      "stateMutability": "view",
      "type": "function"
    },
    {
      "inputs": [],
      "name": "PAY_AMOUNT",
      "outputs": [
        {
          "internalType": "uint64",
          "name": "",
          "type": "uint64"
        }
      ],
      "stateMutability": "view",
      "type": "function"
    },
    {
      "inputs": [
        {
          "internalType": "address",
          "name": "contractAddress",
          "type": "address"
        }
      ],
      "name": "approve",
      "outputs": [],
      "stateMutability": "nonpayable",
      "type": "function"
    },
    {
      "inputs": [
        {
          "internalType": "address[]",
          "name": "contractAddresses",
          "type": "address[]"
        }
      ],
      "name": "batchApprove",
      "outputs": [],
      "stateMutability": "nonpayable",
      "type": "function"
    },
    {
      "inputs": [
        {
          "internalType": "address[]",
          "name": "contractAddresses",
          "type": "address[]"
        }
      ],
      "name": "batchRevoke",
      "outputs": [],
      "stateMutability": "nonpayable",
      "type": "function"
    },
    {
      "inputs": [
        {
          "internalType": "string",
          "name": "a",
          "type": "string"
        },
        {
          "internalType": "string",
          "name": "b",
          "type": "string"
        }
      ],
      "name": "compareStrings",
      "outputs": [
        {
          "internalType": "bool",
          "name": "",
          "type": "bool"
        }
      ],
      "stateMutability": "pure",
      "type": "function"
    },
    {
      "inputs": [
        {
          "internalType": "address",
          "name": "",
          "type": "address"
        }
      ],
      "name": "contractAddressToDomainOwner",
      "outputs": [
        {
          "internalType": "string",
          "name": "domainName",
          "type": "string"
        },
        {
          "internalType": "address",
          "name": "ownerAddress",
          "type": "address"
        },
        {
          "internalType": "enum ICertDao.DomainStatus",
          "name": "status",
          "type": "uint8"
        },
        {
          "internalType": "uint256",
          "name": "timestamp",
          "type": "uint256"
        },
        {
          "internalType": "string",
          "name": "description",
          "type": "string"
        }
      ],
      "stateMutability": "view",
      "type": "function"
    },
    {
      "inputs": [
        {
          "internalType": "address",
          "name": "_ownerAddress",
          "type": "address"
        }
      ],
      "name": "getContractAddress",
      "outputs": [
        {
          "internalType": "address[]",
          "name": "",
          "type": "address[]"
        }
      ],
      "stateMutability": "view",
      "type": "function"
    },
    {
      "inputs": [
        {
          "internalType": "address",
          "name": "contractAddress",
          "type": "address"
        }
      ],
      "name": "getDomainDescription",
      "outputs": [
        {
          "internalType": "string",
          "name": "",
          "type": "string"
        }
      ],
      "stateMutability": "view",
      "type": "function"
    },
    {
      "inputs": [
        {
          "internalType": "address",
          "name": "contractAddress",
          "type": "address"
        }
      ],
      "name": "getDomainName",
      "outputs": [
        {
          "internalType": "string",
          "name": "",
          "type": "string"
        }
      ],
      "stateMutability": "view",
      "type": "function"
    },
    {
      "inputs": [
        {
          "internalType": "address",
          "name": "contractAddress",
          "type": "address"
        }
      ],
      "name": "getDomainOwner",
      "outputs": [
        {
          "internalType": "address",
          "name": "",
          "type": "address"
        }
      ],
      "stateMutability": "view",
      "type": "function"
    },
    {
      "inputs": [
        {
          "internalType": "address",
          "name": "contractAddress",
          "type": "address"
        }
      ],
      "name": "getDomainStatus",
      "outputs": [
        {
          "internalType": "string",
          "name": "",
          "type": "string"
        }
      ],
      "stateMutability": "view",
      "type": "function"
    },
    {
      "inputs": [
        {
          "internalType": "address",
          "name": "contractAddress",
          "type": "address"
        },
        {
          "internalType": "string",
          "name": "domainName",
          "type": "string"
        },
        {
          "internalType": "string",
          "name": "description",
          "type": "string"
        }
      ],
      "name": "manualFlag",
      "outputs": [],
      "stateMutability": "nonpayable",
      "type": "function"
    },
    {
      "inputs": [],
      "name": "owner",
      "outputs": [
        {
          "internalType": "address",
          "name": "",
          "type": "address"
        }
      ],
      "stateMutability": "view",
      "type": "function"
    },
    {
      "inputs": [
        {
          "internalType": "address",
          "name": "contractAddress",
          "type": "address"
        },
        {
          "internalType": "address",
          "name": "owner",
          "type": "address"
        },
        {
          "internalType": "enum ICertDao.DomainStatus",
          "name": "status",
          "type": "uint8"
        },
        {
          "internalType": "string",
          "name": "domainName",
          "type": "string"
        },
        {
          "internalType": "string",
          "name": "description",
          "type": "string"
        }
      ],
      "name": "ownerCreation",
      "outputs": [],
      "stateMutability": "nonpayable",
      "type": "function"
    },
    {
      "inputs": [
        {
          "internalType": "address",
          "name": "",
          "type": "address"
        },
        {
          "internalType": "uint256",
          "name": "",
          "type": "uint256"
        }
      ],
      "name": "ownerToContractAddresses",
      "outputs": [
        {
          "internalType": "address",
          "name": "",
          "type": "address"
        }
      ],
      "stateMutability": "view",
      "type": "function"
    },
    {
      "inputs": [
        {
          "internalType": "address",
          "name": "contractAddress",
          "type": "address"
        },
        {
          "internalType": "string",
          "name": "domainName",
          "type": "string"
        }
      ],
      "name": "renew",
      "outputs": [],
      "stateMutability": "payable",
      "type": "function"
    },
    {
      "inputs": [],
      "name": "renounceOwnership",
      "outputs": [],
      "stateMutability": "nonpayable",
      "type": "function"
    },
    {
      "inputs": [
        {
          "internalType": "address",
          "name": "contractAddress",
          "type": "address"
        }
      ],
      "name": "returnAllContractInfo",
      "outputs": [
        {
          "internalType": "string",
          "name": "",
          "type": "string"
        },
        {
          "internalType": "address",
          "name": "",
          "type": "address"
        },
        {
          "internalType": "string",
          "name": "",
          "type": "string"
        },
        {
          "internalType": "uint256",
          "name": "",
          "type": "uint256"
        },
        {
          "internalType": "string",
          "name": "",
          "type": "string"
        }
      ],
      "stateMutability": "view",
      "type": "function"
    },
    {
      "inputs": [
        {
          "internalType": "address",
          "name": "contractAddress",
          "type": "address"
        }
      ],
      "name": "revoke",
      "outputs": [],
      "stateMutability": "nonpayable",
      "type": "function"
    },
    {
      "inputs": [
        {
          "internalType": "address",
          "name": "contractAddress",
          "type": "address"
        },
        {
          "internalType": "string",
          "name": "domainName",
          "type": "string"
        },
        {
          "internalType": "string",
          "name": "description",
          "type": "string"
        }
      ],
      "name": "submitForValidation",
      "outputs": [],
      "stateMutability": "payable",
      "type": "function"
    },
    {
      "inputs": [],
      "name": "totalContractAddressMappings",
      "outputs": [
        {
          "internalType": "uint64",
          "name": "",
          "type": "uint64"
        }
      ],
      "stateMutability": "view",
      "type": "function"
    },
    {
      "inputs": [
        {
          "internalType": "address",
          "name": "newContractAddress",
          "type": "address"
        },
        {
          "internalType": "string",
          "name": "domainOwner",
          "type": "string"
        }
      ],
      "name": "transferContractToNewDomain",
      "outputs": [],
      "stateMutability": "payable",
      "type": "function"
    },
    {
      "inputs": [
        {
          "internalType": "address",
          "name": "newOwner",
          "type": "address"
        }
      ],
      "name": "transferOwnership",
      "outputs": [],
      "stateMutability": "nonpayable",
      "type": "function"
    },
    {
      "inputs": [
        {
          "internalType": "address",
          "name": "_contractAddress",
          "type": "address"
        },
        {
          "internalType": "address",
          "name": "_newDomainOwner",
          "type": "address"
        }
      ],
      "name": "updateOwner",
      "outputs": [],
      "stateMutability": "payable",
      "type": "function"
    },
    {
      "inputs": [
        {
          "internalType": "address",
          "name": "contractAddress",
          "type": "address"
        },
        {
          "internalType": "string",
          "name": "domainName",
          "type": "string"
        }
      ],
      "name": "verify",
      "outputs": [
        {
          "internalType": "bool",
          "name": "",
          "type": "bool"
        }
      ],
      "stateMutability": "view",
      "type": "function"
    }
  ],
  "bytecode": "0x60806040523480156200001157600080fd5b5062000032620000266200021f60201b60201c565b6200022760201b60201c565b60006040518060a001604052806040518060400160405280600b81526020017f6365727464616f2e6e657400000000000000000000000000000000000000000081525081526020016200008a620002eb60201b60201c565b73ffffffffffffffffffffffffffffffffffffffff16815260200160026005811115620000bc57620000bb620003c4565b5b815260200163bc19138042620000d391906200042c565b81526020016040518060400160405280601581526020017f4365727444616f204f776e65722067656e657369730000000000000000000000815250815250905080600260003073ffffffffffffffffffffffffffffffffffffffff1673ffffffffffffffffffffffffffffffffffffffff16815260200190815260200160002060008201518160000190805190602001906200017192919062000314565b5060208201518160010160006101000a81548173ffffffffffffffffffffffffffffffffffffffff021916908373ffffffffffffffffffffffffffffffffffffffff16021790555060408201518160010160146101000a81548160ff02191690836005811115620001e757620001e6620003c4565b5b02179055506060820151816002015560808201518160030190805190602001906200021492919062000314565b5090505050620004ee565b600033905090565b60008060009054906101000a900473ffffffffffffffffffffffffffffffffffffffff169050816000806101000a81548173ffffffffffffffffffffffffffffffffffffffff021916908373ffffffffffffffffffffffffffffffffffffffff1602179055508173ffffffffffffffffffffffffffffffffffffffff168173ffffffffffffffffffffffffffffffffffffffff167f8be0079c531659141344cd1fd0a4f28419497f9722a3daafe3b4186f6b6457e060405160405180910390a35050565b60008060009054906101000a900473ffffffffffffffffffffffffffffffffffffffff16905090565b8280546200032290620004b8565b90600052602060002090601f01602090048101928262000346576000855562000392565b82601f106200036157805160ff191683800117855562000392565b8280016001018555821562000392579182015b828111156200039157825182559160200191906001019062000374565b5b509050620003a19190620003a5565b5090565b5b80821115620003c0576000816000905550600101620003a6565b5090565b7f4e487b7100000000000000000000000000000000000000000000000000000000600052602160045260246000fd5b6000819050919050565b7f4e487b7100000000000000000000000000000000000000000000000000000000600052601160045260246000fd5b60006200043982620003f3565b91506200044683620003f3565b9250827fffffffffffffffffffffffffffffffffffffffffffffffffffffffffffffffff038211156200047e576200047d620003fd565b5b828201905092915050565b7f4e487b7100000000000000000000000000000000000000000000000000000000600052602260045260246000fd5b60006002820490506001821680620004d157607f821691505b60208210811415620004e857620004e762000489565b5b50919050565b61534880620004fe6000396000f3fe6080604052600436106101b75760003560e01c80638e7d5a68116100ec578063ce93dceb1161008a578063daea85c511610064578063daea85c514610628578063e8fc927314610651578063ea5ed3db1461068e578063f2fde38b146106b7576101b7565b8063ce93dceb14610597578063cec3e317146105d4578063d8647d13146105ff576101b7565b8063a6348c80116100c6578063a6348c80146104f7578063bc61839114610513578063bed34bba1461052f578063ca75960b1461056c576101b7565b80638e7d5a6814610452578063945507cb1461048f57806399006500146104ba576101b7565b806354c2b8091161015957806372b0a7ed1161013357806372b0a7ed146103a557806374a8f103146103c15780637e3638b5146103ea5780638da5cb5b14610427576101b7565b806354c2b80914610310578063622bc90e14610351578063715018a61461038e576101b7565b80630a0d9247116101955780630a0d92471461023e578063180e5c211461026957806329b17f7d146102a65780635036598f146102e7576101b7565b8063011002df146101bc578063043c6de3146101e55780630694340e14610201575b600080fd5b3480156101c857600080fd5b506101e360048036038101906101de9190613eda565b6106e0565b005b6101ff60048036038101906101fa9190613fd8565b61072e565b005b34801561020d57600080fd5b5061022860048036038101906102239190614034565b610bdf565b60405161023591906140e9565b60405180910390f35b34801561024a57600080fd5b50610253610d23565b604051610260919061412e565b60405180910390f35b34801561027557600080fd5b50610290600480360381019061028b919061417f565b610d2e565b60405161029d91906141ce565b60405180910390f35b3480156102b257600080fd5b506102cd60048036038101906102c89190614034565b610d7c565b6040516102de95949392919061426f565b60405180910390f35b3480156102f357600080fd5b5061030e600480360381019061030991906142d0565b610eef565b005b34801561031c57600080fd5b5061033760048036038101906103329190614034565b61108a565b60405161034895949392919061435b565b60405180910390f35b34801561035d57600080fd5b5061037860048036038101906103739190614034565b61124f565b6040516103859190614481565b60405180910390f35b34801561039a57600080fd5b506103a361131c565b005b6103bf60048036038101906103ba91906142d0565b611330565b005b3480156103cd57600080fd5b506103e860048036038101906103e39190614034565b611904565b005b3480156103f657600080fd5b50610411600480360381019061040c9190614034565b611ba6565b60405161041e91906140e9565b60405180910390f35b34801561043357600080fd5b5061043c611cea565b60405161044991906141ce565b60405180910390f35b34801561045e57600080fd5b5061047960048036038101906104749190614034565b611d13565b60405161048691906140e9565b60405180910390f35b34801561049b57600080fd5b506104a4611fdb565b6040516104b191906140e9565b60405180910390f35b3480156104c657600080fd5b506104e160048036038101906104dc9190614034565b612014565b6040516104ee91906141ce565b60405180910390f35b610511600480360381019061050c91906144a3565b612080565b005b61052d60048036038101906105289190613fd8565b612442565b005b34801561053b57600080fd5b50610556600480360381019061055191906144e3565b6126d8565b6040516105639190614576565b60405180910390f35b34801561057857600080fd5b50610581612731565b60405161058e91906145b0565b60405180910390f35b3480156105a357600080fd5b506105be60048036038101906105b991906145f0565b612739565b6040516105cb91906140e9565b60405180910390f35b3480156105e057600080fd5b506105e96129f4565b6040516105f6919061412e565b60405180910390f35b34801561060b57600080fd5b506106266004803603810190610621919061461d565b612a0e565b005b34801561063457600080fd5b5061064f600480360381019061064a9190614034565b612f32565b005b34801561065d57600080fd5b5061067860048036038101906106739190613fd8565b6131d7565b6040516106859190614576565b60405180910390f35b34801561069a57600080fd5b506106b560048036038101906106b09190613eda565b6135e7565b005b3480156106c357600080fd5b506106de60048036038101906106d99190614034565b613635565b005b6106e86136b9565b60005b815181101561072a5761071782828151811061070a576107096146d0565b5b6020026020010151611904565b80806107229061472e565b9150506106eb565b5050565b8181600081511415610775576040517f08c379a000000000000000000000000000000000000000000000000000000000815260040161076c906147c3565b60405180910390fd5b600073ffffffffffffffffffffffffffffffffffffffff168273ffffffffffffffffffffffffffffffffffffffff1614156107e5576040517f08c379a00000000000000000000000000000000000000000000000000000000081526004016107dc9061482f565b60405180910390fd5b600260008573ffffffffffffffffffffffffffffffffffffffff1673ffffffffffffffffffffffffffffffffffffffff16815260200190815260200160002060010160009054906101000a900473ffffffffffffffffffffffffffffffffffffffff1673ffffffffffffffffffffffffffffffffffffffff163373ffffffffffffffffffffffffffffffffffffffff1614806108b35750610884611cea565b73ffffffffffffffffffffffffffffffffffffffff163373ffffffffffffffffffffffffffffffffffffffff16145b6108f2576040517f08c379a00000000000000000000000000000000000000000000000000000000081526004016108e9906148e7565b60405180910390fd5b60026005811115610906576109056141e9565b5b600260008673ffffffffffffffffffffffffffffffffffffffff1673ffffffffffffffffffffffffffffffffffffffff16815260200190815260200160002060010160149054906101000a900460ff166005811115610968576109676141e9565b5b1415610bd957426301e1338063ffffffff16600260008773ffffffffffffffffffffffffffffffffffffffff1673ffffffffffffffffffffffffffffffffffffffff168152602001908152602001600020600201546109c79190614907565b1015610b995766b1a2bc2ec5000067ffffffffffffffff163414610a20576040517f08c379a0000000000000000000000000000000000000000000000000000000008152600401610a17906149cf565b60405180910390fd5b42600260008673ffffffffffffffffffffffffffffffffffffffff1673ffffffffffffffffffffffffffffffffffffffff16815260200190815260200160002060020181905550600080610a72611cea565b73ffffffffffffffffffffffffffffffffffffffff1666b1a2bc2ec5000067ffffffffffffffff16604051610aa690614a20565b60006040518083038185875af1925050503d8060008114610ae3576040519150601f19603f3d011682016040523d82523d6000602084013e610ae8565b606091505b509150915084604051610afb9190614a71565b60405180910390208673ffffffffffffffffffffffffffffffffffffffff167fd9229190af804fd9bd07bfdc0d8e7c2d91d5f3173cc97b9ef1d6bbcbce817c5b6002604051610b4a9190614a88565b60405180910390a381610b92576040517f08c379a0000000000000000000000000000000000000000000000000000000008152600401610b8990614aef565b60405180910390fd5b5050610bd8565b610bd76040518060400160405280601a81526020017f446f6d61696e206973206e6f742065787069726564207965742e000000000000815250613737565b5b5b50505050565b6060600073ffffffffffffffffffffffffffffffffffffffff168273ffffffffffffffffffffffffffffffffffffffff161415610c51576040517f08c379a0000000000000000000000000000000000000000000000000000000008152600401610c489061482f565b60405180910390fd5b600260008373ffffffffffffffffffffffffffffffffffffffff1673ffffffffffffffffffffffffffffffffffffffff1681526020019081526020016000206003018054610c9e90614b3e565b80601f0160208091040260200160405190810160405280929190818152602001828054610cca90614b3e565b8015610d175780601f10610cec57610100808354040283529160200191610d17565b820191906000526020600020905b815481529060010190602001808311610cfa57829003601f168201915b50505050509050919050565b66b1a2bc2ec5000081565b60016020528160005260406000208181548110610d4a57600080fd5b906000526020600020016000915091509054906101000a900473ffffffffffffffffffffffffffffffffffffffff1681565b6002602052806000526040600020600091509050806000018054610d9f90614b3e565b80601f0160208091040260200160405190810160405280929190818152602001828054610dcb90614b3e565b8015610e185780601f10610ded57610100808354040283529160200191610e18565b820191906000526020600020905b815481529060010190602001808311610dfb57829003601f168201915b5050505050908060010160009054906101000a900473ffffffffffffffffffffffffffffffffffffffff16908060010160149054906101000a900460ff1690806002015490806003018054610e6c90614b3e565b80601f0160208091040260200160405190810160405280929190818152602001828054610e9890614b3e565b8015610ee55780601f10610eba57610100808354040283529160200191610ee5565b820191906000526020600020905b815481529060010190602001808311610ec857829003601f168201915b5050505050905085565b610ef76136b9565b600073ffffffffffffffffffffffffffffffffffffffff168373ffffffffffffffffffffffffffffffffffffffff161415610f67576040517f08c379a0000000000000000000000000000000000000000000000000000000008152600401610f5e9061482f565b60405180910390fd5b6000600260008573ffffffffffffffffffffffffffffffffffffffff1673ffffffffffffffffffffffffffffffffffffffff168152602001908152602001600020905060058160010160146101000a81548160ff02191690836005811115610fd257610fd16141e9565b5b02179055506000835114610ffa5782816000019080519060200190610ff8929190613c6c565b505b600082511461101d578181600301908051906020019061101b929190613c6c565b505b8060000160405161102e9190614c04565b60405180910390208473ffffffffffffffffffffffffffffffffffffffff167f333fcfe85110a1e880e493c16a2a2c2eb62ab038f109ca7467d26d641bb5699d8460405161107c91906140e9565b60405180910390a350505050565b606060006060600060606000600260008873ffffffffffffffffffffffffffffffffffffffff1673ffffffffffffffffffffffffffffffffffffffff1681526020019081526020016000209050806000018160010160009054906101000a900473ffffffffffffffffffffffffffffffffffffffff1661111a8360010160149054906101000a900460ff16612739565b83600201548460030184805461112f90614b3e565b80601f016020809104026020016040519081016040528092919081815260200182805461115b90614b3e565b80156111a85780601f1061117d576101008083540402835291602001916111a8565b820191906000526020600020905b81548152906001019060200180831161118b57829003601f168201915b505050505094508080546111bb90614b3e565b80601f01602080910402602001604051908101604052809291908181526020018280546111e790614b3e565b80156112345780601f1061120957610100808354040283529160200191611234565b820191906000526020600020905b81548152906001019060200180831161121757829003601f168201915b50505050509050955095509550955095505091939590929450565b6060600160008373ffffffffffffffffffffffffffffffffffffffff1673ffffffffffffffffffffffffffffffffffffffff16815260200190815260200160002080548060200260200160405190810160405280929190818152602001828054801561131057602002820191906000526020600020905b8160009054906101000a900473ffffffffffffffffffffffffffffffffffffffff1673ffffffffffffffffffffffffffffffffffffffff16815260200190600101908083116112c6575b50505050509050919050565b6113246136b9565b61132e60006137d0565b565b8282600081511415611377576040517f08c379a000000000000000000000000000000000000000000000000000000000815260040161136e906147c3565b60405180910390fd5b600073ffffffffffffffffffffffffffffffffffffffff168273ffffffffffffffffffffffffffffffffffffffff1614156113e7576040517f08c379a00000000000000000000000000000000000000000000000000000000081526004016113de9061482f565b60405180910390fd5b6114276040518060400160405280601d81526020017f446f6d61696e204e616d653a2025732c20436f6e74726163743a2025730000008152508587613894565b66b1a2bc2ec5000067ffffffffffffffff16341461147a576040517f08c379a000000000000000000000000000000000000000000000000000000000815260040161147190614c8d565b60405180910390fd5b61155d600260008773ffffffffffffffffffffffffffffffffffffffff1673ffffffffffffffffffffffffffffffffffffffff16815260200190815260200160002060000180546114ca90614b3e565b80601f01602080910402602001604051908101604052809291908181526020018280546114f690614b3e565b80156115435780601f1061151857610100808354040283529160200191611543565b820191906000526020600020905b81548152906001019060200180831161152657829003601f168201915b5050505050604051806020016040528060008152506126d8565b61159c576040517f08c379a000000000000000000000000000000000000000000000000000000000815260040161159390614d1f565b60405180910390fd5b60006040518060a001604052808681526020013373ffffffffffffffffffffffffffffffffffffffff168152602001600060058111156115df576115de6141e9565b5b815260200142815260200185815250905080600260008873ffffffffffffffffffffffffffffffffffffffff1673ffffffffffffffffffffffffffffffffffffffff168152602001908152602001600020600082015181600001908051906020019061164c929190613c6c565b5060208201518160010160006101000a81548173ffffffffffffffffffffffffffffffffffffffff021916908373ffffffffffffffffffffffffffffffffffffffff16021790555060408201518160010160146101000a81548160ff021916908360058111156116bf576116be6141e9565b5b02179055506060820151816002015560808201518160030190805190602001906116ea929190613c6c565b50905050600160003373ffffffffffffffffffffffffffffffffffffffff1673ffffffffffffffffffffffffffffffffffffffff168152602001908152602001600020869080600181540180825580915050600190039060005260206000200160009091909190916101000a81548173ffffffffffffffffffffffffffffffffffffffff021916908373ffffffffffffffffffffffffffffffffffffffff1602179055506003600081819054906101000a900467ffffffffffffffff16809291906117b490614d3f565b91906101000a81548167ffffffffffffffff021916908367ffffffffffffffff160217905550506000806117e6611cea565b73ffffffffffffffffffffffffffffffffffffffff1666b1a2bc2ec5000067ffffffffffffffff1660405161181a90614a20565b60006040518083038185875af1925050503d8060008114611857576040519150601f19603f3d011682016040523d82523d6000602084013e61185c565b606091505b5091509150816118a1576040517f08c379a000000000000000000000000000000000000000000000000000000000815260040161189890614aef565b60405180910390fd5b866040516118af9190614a71565b60405180910390208873ffffffffffffffffffffffffffffffffffffffff167fe56a1dcfd351f0a9dc4f9bda49d191d54001ff53db4f795b8e146cf12660d13960405160405180910390a35050505050505050565b61190c6136b9565b80600260008373ffffffffffffffffffffffffffffffffffffffff1673ffffffffffffffffffffffffffffffffffffffff168152602001908152602001600020600001805461195a90614b3e565b80601f016020809104026020016040519081016040528092919081815260200182805461198690614b3e565b80156119d35780601f106119a8576101008083540402835291602001916119d3565b820191906000526020600020905b8154815290600101906020018083116119b657829003601f168201915b5050505050600081511415611a1d576040517f08c379a0000000000000000000000000000000000000000000000000000000008152600401611a14906147c3565b60405180910390fd5b600073ffffffffffffffffffffffffffffffffffffffff168273ffffffffffffffffffffffffffffffffffffffff161415611a8d576040517f08c379a0000000000000000000000000000000000000000000000000000000008152600401611a849061482f565b60405180910390fd5b6000600260008573ffffffffffffffffffffffffffffffffffffffff1673ffffffffffffffffffffffffffffffffffffffff168152602001908152602001600020905060046005811115611ae457611ae36141e9565b5b8160010160149054906101000a900460ff166005811115611b0857611b076141e9565b5b14611ba05760048160010160146101000a81548160ff02191690836005811115611b3557611b346141e9565b5b021790555080600001604051611b4b9190614c04565b60405180910390208473ffffffffffffffffffffffffffffffffffffffff167fcf5a73a37bc6f798de8cf5a014571f0f3005949c4f8911c44ec304ee24941a78604051611b9790614dbc565b60405180910390a35b50505050565b6060600073ffffffffffffffffffffffffffffffffffffffff168273ffffffffffffffffffffffffffffffffffffffff161415611c18576040517f08c379a0000000000000000000000000000000000000000000000000000000008152600401611c0f9061482f565b60405180910390fd5b600260008373ffffffffffffffffffffffffffffffffffffffff1673ffffffffffffffffffffffffffffffffffffffff1681526020019081526020016000206000018054611c6590614b3e565b80601f0160208091040260200160405190810160405280929190818152602001828054611c9190614b3e565b8015611cde5780601f10611cb357610100808354040283529160200191611cde565b820191906000526020600020905b815481529060010190602001808311611cc157829003601f168201915b50505050509050919050565b60008060009054906101000a900473ffffffffffffffffffffffffffffffffffffffff16905090565b6060600073ffffffffffffffffffffffffffffffffffffffff168273ffffffffffffffffffffffffffffffffffffffff161415611d85576040517f08c379a0000000000000000000000000000000000000000000000000000000008152600401611d7c9061482f565b60405180910390fd5b6000600260008473ffffffffffffffffffffffffffffffffffffffff1673ffffffffffffffffffffffffffffffffffffffff1681526020019081526020016000206040518060a0016040529081600082018054611de190614b3e565b80601f0160208091040260200160405190810160405280929190818152602001828054611e0d90614b3e565b8015611e5a5780601f10611e2f57610100808354040283529160200191611e5a565b820191906000526020600020905b815481529060010190602001808311611e3d57829003601f168201915b505050505081526020016001820160009054906101000a900473ffffffffffffffffffffffffffffffffffffffff1673ffffffffffffffffffffffffffffffffffffffff1673ffffffffffffffffffffffffffffffffffffffff1681526020016001820160149054906101000a900460ff166005811115611ede57611edd6141e9565b5b6005811115611ef057611eef6141e9565b5b815260200160028201548152602001600382018054611f0e90614b3e565b80601f0160208091040260200160405190810160405280929190818152602001828054611f3a90614b3e565b8015611f875780601f10611f5c57610100808354040283529160200191611f87565b820191906000526020600020905b815481529060010190602001808311611f6a57829003601f168201915b5050505050815250509050426301e1338063ffffffff168260600151611fad9190614907565b1015611fc557611fbd6001612739565b915050611fd6565b611fd28160400151612739565b9150505b919050565b6040518060400160405280600b81526020017f6365727464616f2e6e657400000000000000000000000000000000000000000081525081565b6000600260008373ffffffffffffffffffffffffffffffffffffffff1673ffffffffffffffffffffffffffffffffffffffff16815260200190815260200160002060010160009054906101000a900473ffffffffffffffffffffffffffffffffffffffff169050919050565b6000600260008473ffffffffffffffffffffffffffffffffffffffff1673ffffffffffffffffffffffffffffffffffffffff16815260200190815260200160002090508060010160009054906101000a900473ffffffffffffffffffffffffffffffffffffffff1673ffffffffffffffffffffffffffffffffffffffff163373ffffffffffffffffffffffffffffffffffffffff1614612155576040517f08c379a000000000000000000000000000000000000000000000000000000000815260040161214c90614e4e565b60405180910390fd5b600073ffffffffffffffffffffffffffffffffffffffff168373ffffffffffffffffffffffffffffffffffffffff1614156121c5576040517f08c379a00000000000000000000000000000000000000000000000000000000081526004016121bc9061482f565b60405180910390fd5b600073ffffffffffffffffffffffffffffffffffffffff168273ffffffffffffffffffffffffffffffffffffffff161415612235576040517f08c379a000000000000000000000000000000000000000000000000000000000815260040161222c906147c3565b60405180910390fd5b66b1a2bc2ec5000067ffffffffffffffff163414612288576040517f08c379a000000000000000000000000000000000000000000000000000000000815260040161227f90614eba565b60405180910390fd5b818160010160006101000a81548173ffffffffffffffffffffffffffffffffffffffff021916908373ffffffffffffffffffffffffffffffffffffffff160217905550600160008373ffffffffffffffffffffffffffffffffffffffff1673ffffffffffffffffffffffffffffffffffffffff168152602001908152602001600020839080600181540180825580915050600190039060005260206000200160009091909190916101000a81548173ffffffffffffffffffffffffffffffffffffffff021916908373ffffffffffffffffffffffffffffffffffffffff1602179055506123758333613933565b600080612380611cea565b73ffffffffffffffffffffffffffffffffffffffff1666b1a2bc2ec5000067ffffffffffffffff166040516123b490614a20565b60006040518083038185875af1925050503d80600081146123f1576040519150601f19603f3d011682016040523d82523d6000602084013e6123f6565b606091505b50915091508161243b576040517f08c379a000000000000000000000000000000000000000000000000000000000815260040161243290614aef565b60405180910390fd5b5050505050565b8181600081511415612489576040517f08c379a0000000000000000000000000000000000000000000000000000000008152600401612480906147c3565b60405180910390fd5b600073ffffffffffffffffffffffffffffffffffffffff168273ffffffffffffffffffffffffffffffffffffffff1614156124f9576040517f08c379a00000000000000000000000000000000000000000000000000000000081526004016124f09061482f565b60405180910390fd5b600260008573ffffffffffffffffffffffffffffffffffffffff1673ffffffffffffffffffffffffffffffffffffffff16815260200190815260200160002060010160009054906101000a900473ffffffffffffffffffffffffffffffffffffffff1673ffffffffffffffffffffffffffffffffffffffff163373ffffffffffffffffffffffffffffffffffffffff16146125c9576040517f08c379a00000000000000000000000000000000000000000000000000000000081526004016125c090614f4c565b60405180910390fd5b600260058111156125dd576125dc6141e9565b5b600260008673ffffffffffffffffffffffffffffffffffffffff1673ffffffffffffffffffffffffffffffffffffffff16815260200190815260200160002060010160149054906101000a900460ff16600581111561263f5761263e6141e9565b5b1461267f576040517f08c379a000000000000000000000000000000000000000000000000000000000815260040161267690614fb8565b60405180910390fd5b66b1a2bc2ec5000067ffffffffffffffff1634146126d2576040517f08c379a00000000000000000000000000000000000000000000000000000000081526004016126c99061504a565b60405180910390fd5b50505050565b6000816040516020016126eb9190614a71565b60405160208183030381529060405280519060200120836040516020016127129190614a71565b6040516020818303038152906040528051906020012014905092915050565b6301e1338081565b60606000600581111561274f5761274e6141e9565b5b826005811115612762576127616141e9565b5b14156127a5576040518060400160405280600781526020017f70656e64696e670000000000000000000000000000000000000000000000000081525090506129ef565b600160058111156127b9576127b86141e9565b5b8260058111156127cc576127cb6141e9565b5b141561280f576040518060400160405280600781526020017f657870697265640000000000000000000000000000000000000000000000000081525090506129ef565b60026005811115612823576128226141e9565b5b826005811115612836576128356141e9565b5b1415612879576040518060400160405280600881526020017f617070726f76656400000000000000000000000000000000000000000000000081525090506129ef565b6003600581111561288d5761288c6141e9565b5b8260058111156128a05761289f6141e9565b5b14156128e3576040518060400160405280600881526020017f72656a656374656400000000000000000000000000000000000000000000000081525090506129ef565b600460058111156128f7576128f66141e9565b5b82600581111561290a576129096141e9565b5b141561294d576040518060400160405280600781526020017f7265766f6b65640000000000000000000000000000000000000000000000000081525090506129ef565b6005808111156129605761295f6141e9565b5b826005811115612973576129726141e9565b5b14156129b6576040518060400160405280600a81526020017f6d616e75616c466c61670000000000000000000000000000000000000000000081525090506129ef565b6040518060400160405280600781526020017f756e6b6e6f776e0000000000000000000000000000000000000000000000000081525090505b919050565b600360009054906101000a900467ffffffffffffffff1681565b8482600081511415612a55576040517f08c379a0000000000000000000000000000000000000000000000000000000008152600401612a4c906147c3565b60405180910390fd5b600073ffffffffffffffffffffffffffffffffffffffff168273ffffffffffffffffffffffffffffffffffffffff161415612ac5576040517f08c379a0000000000000000000000000000000000000000000000000000000008152600401612abc9061482f565b60405180910390fd5b612ba8600260008973ffffffffffffffffffffffffffffffffffffffff1673ffffffffffffffffffffffffffffffffffffffff1681526020019081526020016000206000018054612b1590614b3e565b80601f0160208091040260200160405190810160405280929190818152602001828054612b4190614b3e565b8015612b8e5780601f10612b6357610100808354040283529160200191612b8e565b820191906000526020600020905b815481529060010190602001808311612b7157829003601f168201915b5050505050604051806020016040528060008152506126d8565b612be7576040517f08c379a0000000000000000000000000000000000000000000000000000000008152600401612bde90614d1f565b60405180910390fd5b612c266040518060400160405280600f81526020017f446f6d61696e206e616d653a202573000000000000000000000000000000000081525085613b03565b612c656040518060400160405280601481526020017f436f6e747261637420616464726573733a20257300000000000000000000000081525088613b9f565b60006040518060a001604052808681526020018873ffffffffffffffffffffffffffffffffffffffff168152602001876005811115612ca757612ca66141e9565b5b815260200142815260200185815250905080600260008a73ffffffffffffffffffffffffffffffffffffffff1673ffffffffffffffffffffffffffffffffffffffff1681526020019081526020016000206000820151816000019080519060200190612d14929190613c6c565b5060208201518160010160006101000a81548173ffffffffffffffffffffffffffffffffffffffff021916908373ffffffffffffffffffffffffffffffffffffffff16021790555060408201518160010160146101000a81548160ff02191690836005811115612d8757612d866141e9565b5b0217905550606082015181600201556080820151816003019080519060200190612db2929190613c6c565b50905050600160008873ffffffffffffffffffffffffffffffffffffffff1673ffffffffffffffffffffffffffffffffffffffff168152602001908152602001600020889080600181540180825580915050600190039060005260206000200160009091909190916101000a81548173ffffffffffffffffffffffffffffffffffffffff021916908373ffffffffffffffffffffffffffffffffffffffff1602179055506003600081819054906101000a900467ffffffffffffffff1680929190612e7c90614d3f565b91906101000a81548167ffffffffffffffff021916908367ffffffffffffffff1602179055505084604051612eb19190614a71565b60405180910390208773ffffffffffffffffffffffffffffffffffffffff168973ffffffffffffffffffffffffffffffffffffffff167fb5b21f160e8e8af9f530962e08d73661bc3e3e6c1aecbbefee590e3fdb378107612f118a612739565b88604051612f2092919061506a565b60405180910390a45050505050505050565b612f3a6136b9565b80600260008373ffffffffffffffffffffffffffffffffffffffff1673ffffffffffffffffffffffffffffffffffffffff1681526020019081526020016000206000018054612f8890614b3e565b80601f0160208091040260200160405190810160405280929190818152602001828054612fb490614b3e565b80156130015780601f10612fd657610100808354040283529160200191613001565b820191906000526020600020905b815481529060010190602001808311612fe457829003601f168201915b505050505060008151141561304b576040517f08c379a0000000000000000000000000000000000000000000000000000000008152600401613042906147c3565b60405180910390fd5b600073ffffffffffffffffffffffffffffffffffffffff168273ffffffffffffffffffffffffffffffffffffffff1614156130bb576040517f08c379a00000000000000000000000000000000000000000000000000000000081526004016130b29061482f565b60405180910390fd5b6000600260008573ffffffffffffffffffffffffffffffffffffffff1673ffffffffffffffffffffffffffffffffffffffff168152602001908152602001600020905060026005811115613112576131116141e9565b5b8160010160149054906101000a900460ff166005811115613136576131356141e9565b5b146131d15760028160010160146101000a81548160ff02191690836005811115613163576131626141e9565b5b0217905550806000016040516131799190614c04565b60405180910390208473ffffffffffffffffffffffffffffffffffffffff167f8011544f5939f920af965d629972e4c6fc410156953fb0e4be4ae1ddf5e9636a60026040516131c89190614a88565b60405180910390a35b50505050565b60008282600081511415613220576040517f08c379a0000000000000000000000000000000000000000000000000000000008152600401613217906147c3565b60405180910390fd5b600073ffffffffffffffffffffffffffffffffffffffff168273ffffffffffffffffffffffffffffffffffffffff161415613290576040517f08c379a00000000000000000000000000000000000000000000000000000000081526004016132879061482f565b60405180910390fd5b6132d06040518060400160405280600e81526020017f496e707574733a2025732c2025730000000000000000000000000000000000008152508587613894565b6000600260008773ffffffffffffffffffffffffffffffffffffffff1673ffffffffffffffffffffffffffffffffffffffff1681526020019081526020016000206040518060a001604052908160008201805461332c90614b3e565b80601f016020809104026020016040519081016040528092919081815260200182805461335890614b3e565b80156133a55780601f1061337a576101008083540402835291602001916133a5565b820191906000526020600020905b81548152906001019060200180831161338857829003601f168201915b505050505081526020016001820160009054906101000a900473ffffffffffffffffffffffffffffffffffffffff1673ffffffffffffffffffffffffffffffffffffffff1673ffffffffffffffffffffffffffffffffffffffff1681526020016001820160149054906101000a900460ff166005811115613429576134286141e9565b5b600581111561343b5761343a6141e9565b5b81526020016002820154815260200160038201805461345990614b3e565b80601f016020809104026020016040519081016040528092919081815260200182805461348590614b3e565b80156134d25780601f106134a7576101008083540402835291602001916134d2565b820191906000526020600020905b8154815290600101906020018083116134b557829003601f168201915b50505050508152505090506134eb8160000151866126d8565b801561351f575060026005811115613506576135056141e9565b5b8160400151600581111561351d5761351c6141e9565b5b145b156135b857426301e1338063ffffffff16826060015161353f9190614907565b111561358d576135836040518060400160405280601481526020017f436f6e7472616374206973207665726966696564000000000000000000000000815250613737565b60019350506135df565b6135ae6040518060600160405280603c81526020016152d7603c9139613737565b60009350506135df565b6135d96040518060800160405280605f8152602001615278605f9139613737565b60009350505b505092915050565b6135ef6136b9565b60005b81518110156136315761361e828281518110613611576136106146d0565b5b6020026020010151612f32565b80806136299061472e565b9150506135f2565b5050565b61363d6136b9565b600073ffffffffffffffffffffffffffffffffffffffff168173ffffffffffffffffffffffffffffffffffffffff1614156136ad576040517f08c379a00000000000000000000000000000000000000000000000000000000081526004016136a490615113565b60405180910390fd5b6136b6816137d0565b50565b6136c1613c3b565b73ffffffffffffffffffffffffffffffffffffffff166136df611cea565b73ffffffffffffffffffffffffffffffffffffffff1614613735576040517f08c379a000000000000000000000000000000000000000000000000000000000815260040161372c9061517f565b60405180910390fd5b565b6137cd8160405160240161374b91906140e9565b6040516020818303038152906040527f41304fac000000000000000000000000000000000000000000000000000000007bffffffffffffffffffffffffffffffffffffffffffffffffffffffff19166020820180517bffffffffffffffffffffffffffffffffffffffffffffffffffffffff8381831617835250505050613c43565b50565b60008060009054906101000a900473ffffffffffffffffffffffffffffffffffffffff169050816000806101000a81548173ffffffffffffffffffffffffffffffffffffffff021916908373ffffffffffffffffffffffffffffffffffffffff1602179055508173ffffffffffffffffffffffffffffffffffffffff168173ffffffffffffffffffffffffffffffffffffffff167f8be0079c531659141344cd1fd0a4f28419497f9722a3daafe3b4186f6b6457e060405160405180910390a35050565b61392e8383836040516024016138ac9392919061519f565b6040516020818303038152906040527f95ed0195000000000000000000000000000000000000000000000000000000007bffffffffffffffffffffffffffffffffffffffffffffffffffffffff19166020820180517bffffffffffffffffffffffffffffffffffffffffffffffffffffffff8381831617835250505050613c43565b505050565b6000600160008373ffffffffffffffffffffffffffffffffffffffff1673ffffffffffffffffffffffffffffffffffffffff168152602001908152602001600020905060005b8180549050811015613afd578373ffffffffffffffffffffffffffffffffffffffff168282815481106139af576139ae6146d0565b5b9060005260206000200160009054906101000a900473ffffffffffffffffffffffffffffffffffffffff1673ffffffffffffffffffffffffffffffffffffffff161415613aea578160018380549050613a0891906151e4565b81548110613a1957613a186146d0565b5b9060005260206000200160009054906101000a900473ffffffffffffffffffffffffffffffffffffffff16828281548110613a5757613a566146d0565b5b9060005260206000200160006101000a81548173ffffffffffffffffffffffffffffffffffffffff021916908373ffffffffffffffffffffffffffffffffffffffff16021790555081805480613ab057613aaf615218565b5b6001900381819060005260206000200160006101000a81549073ffffffffffffffffffffffffffffffffffffffff02191690559055613afd565b8080613af59061472e565b915050613979565b50505050565b613b9b8282604051602401613b1992919061506a565b6040516020818303038152906040527f4b5c4277000000000000000000000000000000000000000000000000000000007bffffffffffffffffffffffffffffffffffffffffffffffffffffffff19166020820180517bffffffffffffffffffffffffffffffffffffffffffffffffffffffff8381831617835250505050613c43565b5050565b613c378282604051602401613bb5929190615247565b6040516020818303038152906040527f319af333000000000000000000000000000000000000000000000000000000007bffffffffffffffffffffffffffffffffffffffffffffffffffffffff19166020820180517bffffffffffffffffffffffffffffffffffffffffffffffffffffffff8381831617835250505050613c43565b5050565b600033905090565b60008151905060006a636f6e736f6c652e6c6f679050602083016000808483855afa5050505050565b828054613c7890614b3e565b90600052602060002090601f016020900481019282613c9a5760008555613ce1565b82601f10613cb357805160ff1916838001178555613ce1565b82800160010185558215613ce1579182015b82811115613ce0578251825591602001919060010190613cc5565b5b509050613cee9190613cf2565b5090565b5b80821115613d0b576000816000905550600101613cf3565b5090565b6000604051905090565b600080fd5b600080fd5b600080fd5b6000601f19601f8301169050919050565b7f4e487b7100000000000000000000000000000000000000000000000000000000600052604160045260246000fd5b613d7182613d28565b810181811067ffffffffffffffff82111715613d9057613d8f613d39565b5b80604052505050565b6000613da3613d0f565b9050613daf8282613d68565b919050565b600067ffffffffffffffff821115613dcf57613dce613d39565b5b602082029050602081019050919050565b600080fd5b600073ffffffffffffffffffffffffffffffffffffffff82169050919050565b6000613e1082613de5565b9050919050565b613e2081613e05565b8114613e2b57600080fd5b50565b600081359050613e3d81613e17565b92915050565b6000613e56613e5184613db4565b613d99565b90508083825260208201905060208402830185811115613e7957613e78613de0565b5b835b81811015613ea25780613e8e8882613e2e565b845260208401935050602081019050613e7b565b5050509392505050565b600082601f830112613ec157613ec0613d23565b5b8135613ed1848260208601613e43565b91505092915050565b600060208284031215613ef057613eef613d19565b5b600082013567ffffffffffffffff811115613f0e57613f0d613d1e565b5b613f1a84828501613eac565b91505092915050565b600080fd5b600067ffffffffffffffff821115613f4357613f42613d39565b5b613f4c82613d28565b9050602081019050919050565b82818337600083830152505050565b6000613f7b613f7684613f28565b613d99565b905082815260208101848484011115613f9757613f96613f23565b5b613fa2848285613f59565b509392505050565b600082601f830112613fbf57613fbe613d23565b5b8135613fcf848260208601613f68565b91505092915050565b60008060408385031215613fef57613fee613d19565b5b6000613ffd85828601613e2e565b925050602083013567ffffffffffffffff81111561401e5761401d613d1e565b5b61402a85828601613faa565b9150509250929050565b60006020828403121561404a57614049613d19565b5b600061405884828501613e2e565b91505092915050565b600081519050919050565b600082825260208201905092915050565b60005b8381101561409b578082015181840152602081019050614080565b838111156140aa576000848401525b50505050565b60006140bb82614061565b6140c5818561406c565b93506140d581856020860161407d565b6140de81613d28565b840191505092915050565b6000602082019050818103600083015261410381846140b0565b905092915050565b600067ffffffffffffffff82169050919050565b6141288161410b565b82525050565b6000602082019050614143600083018461411f565b92915050565b6000819050919050565b61415c81614149565b811461416757600080fd5b50565b60008135905061417981614153565b92915050565b6000806040838503121561419657614195613d19565b5b60006141a485828601613e2e565b92505060206141b58582860161416a565b9150509250929050565b6141c881613e05565b82525050565b60006020820190506141e360008301846141bf565b92915050565b7f4e487b7100000000000000000000000000000000000000000000000000000000600052602160045260246000fd5b60068110614229576142286141e9565b5b50565b600081905061423a82614218565b919050565b600061424a8261422c565b9050919050565b61425a8161423f565b82525050565b61426981614149565b82525050565b600060a082019050818103600083015261428981886140b0565b905061429860208301876141bf565b6142a56040830186614251565b6142b26060830185614260565b81810360808301526142c481846140b0565b90509695505050505050565b6000806000606084860312156142e9576142e8613d19565b5b60006142f786828701613e2e565b935050602084013567ffffffffffffffff81111561431857614317613d1e565b5b61432486828701613faa565b925050604084013567ffffffffffffffff81111561434557614344613d1e565b5b61435186828701613faa565b9150509250925092565b600060a082019050818103600083015261437581886140b0565b905061438460208301876141bf565b818103604083015261439681866140b0565b90506143a56060830185614260565b81810360808301526143b781846140b0565b90509695505050505050565b600081519050919050565b600082825260208201905092915050565b6000819050602082019050919050565b6143f881613e05565b82525050565b600061440a83836143ef565b60208301905092915050565b6000602082019050919050565b600061442e826143c3565b61443881856143ce565b9350614443836143df565b8060005b8381101561447457815161445b88826143fe565b975061446683614416565b925050600181019050614447565b5085935050505092915050565b6000602082019050818103600083015261449b8184614423565b905092915050565b600080604083850312156144ba576144b9613d19565b5b60006144c885828601613e2e565b92505060206144d985828601613e2e565b9150509250929050565b600080604083850312156144fa576144f9613d19565b5b600083013567ffffffffffffffff81111561451857614517613d1e565b5b61452485828601613faa565b925050602083013567ffffffffffffffff81111561454557614544613d1e565b5b61455185828601613faa565b9150509250929050565b60008115159050919050565b6145708161455b565b82525050565b600060208201905061458b6000830184614567565b92915050565b600063ffffffff82169050919050565b6145aa81614591565b82525050565b60006020820190506145c560008301846145a1565b92915050565b600681106145d857600080fd5b50565b6000813590506145ea816145cb565b92915050565b60006020828403121561460657614605613d19565b5b6000614614848285016145db565b91505092915050565b600080600080600060a0868803121561463957614638613d19565b5b600061464788828901613e2e565b955050602061465888828901613e2e565b9450506040614669888289016145db565b935050606086013567ffffffffffffffff81111561468a57614689613d1e565b5b61469688828901613faa565b925050608086013567ffffffffffffffff8111156146b7576146b6613d1e565b5b6146c388828901613faa565b9150509295509295909350565b7f4e487b7100000000000000000000000000000000000000000000000000000000600052603260045260246000fd5b7f4e487b7100000000000000000000000000000000000000000000000000000000600052601160045260246000fd5b600061473982614149565b91507fffffffffffffffffffffffffffffffffffffffffffffffffffffffffffffffff82141561476c5761476b6146ff565b5b600182019050919050565b7f446f6d61696e206e616d6520697320656d707479000000000000000000000000600082015250565b60006147ad60148361406c565b91506147b882614777565b602082019050919050565b600060208201905081810360008301526147dc816147a0565b9050919050565b7f436f6e7472616374206164647265737320697320656d70747900000000000000600082015250565b600061481960198361406c565b9150614824826147e3565b602082019050919050565b600060208201905081810360008301526148488161480c565b9050919050565b7f4f6e6c7920746865206f776e6572206f662074686520636f6e7472616374206f60008201527f722044414f2063616e2072656e65772074686520646f6d61696e206d6170706960208201527f6e672e0000000000000000000000000000000000000000000000000000000000604082015250565b60006148d160438361406c565b91506148dc8261484f565b606082019050919050565b60006020820190508181036000830152614900816148c4565b9050919050565b600061491282614149565b915061491d83614149565b9250827fffffffffffffffffffffffffffffffffffffffffffffffffffffffffffffffff03821115614952576149516146ff565b5b828201905092915050565b7f506c656173652073656e6420302e303520657468657220746f2072656e65772060008201527f74686520646f6d61696e2e000000000000000000000000000000000000000000602082015250565b60006149b9602b8361406c565b91506149c48261495d565b604082019050919050565b600060208201905081810360008301526149e8816149ac565b9050919050565b600081905092915050565b50565b6000614a0a6000836149ef565b9150614a15826149fa565b600082019050919050565b6000614a2b826149fd565b9150819050919050565b600081905092915050565b6000614a4b82614061565b614a558185614a35565b9350614a6581856020860161407d565b80840191505092915050565b6000614a7d8284614a40565b915081905092915050565b6000602082019050614a9d6000830184614251565b92915050565b7f4661696c656420746f2073656e64204574686572210000000000000000000000600082015250565b6000614ad960158361406c565b9150614ae482614aa3565b602082019050919050565b60006020820190508181036000830152614b0881614acc565b9050919050565b7f4e487b7100000000000000000000000000000000000000000000000000000000600052602260045260246000fd5b60006002820490506001821680614b5657607f821691505b60208210811415614b6a57614b69614b0f565b5b50919050565b60008190508160005260206000209050919050565b60008154614b9281614b3e565b614b9c8186614a35565b94506001821660008114614bb75760018114614bc857614bfb565b60ff19831686528186019350614bfb565b614bd185614b70565b60005b83811015614bf357815481890152600182019150602081019050614bd4565b838801955050505b50505092915050565b6000614c108284614b85565b915081905092915050565b7f506c656173652073656e6420302e303520657468657220746f2073746172742060008201527f7468652076616c69646174696f6e2070726f636573732e000000000000000000602082015250565b6000614c7760378361406c565b9150614c8282614c1b565b604082019050919050565b60006020820190508181036000830152614ca681614c6a565b9050919050565b7f436f6e7472616374206164647265737320616c7265616479206861732061206460008201527f6f6d61696e207265676973746572656420696e20746865207374727563742e00602082015250565b6000614d09603f8361406c565b9150614d1482614cad565b604082019050919050565b60006020820190508181036000830152614d3881614cfc565b9050919050565b6000614d4a8261410b565b915067ffffffffffffffff821415614d6557614d646146ff565b5b600182019050919050565b7f436f6e7472616374207265766f6b65642062792044414f000000000000000000600082015250565b6000614da660178361406c565b9150614db182614d70565b602082019050919050565b60006020820190508181036000830152614dd581614d99565b9050919050565b7f4f6e6c7920746865206f776e6572206f662074686520646f6d61696e2063616e60008201527f2075706461746520746865206f776e6572000000000000000000000000000000602082015250565b6000614e3860318361406c565b9150614e4382614ddc565b604082019050919050565b60006020820190508181036000830152614e6781614e2b565b9050919050565b7f7570646174654f776e65722072657175696572657320302e3035206574686572600082015250565b6000614ea460208361406c565b9150614eaf82614e6e565b602082019050919050565b60006020820190508181036000830152614ed381614e97565b9050919050565b7f596f7520617265206e6f7420746865206f776e6572206f662074686520636f6e60008201527f747261637420746f207472616e7366657220646f6d61696e732e000000000000602082015250565b6000614f36603a8361406c565b9150614f4182614eda565b604082019050919050565b60006020820190508181036000830152614f6581614f29565b9050919050565b7f436f6e7472616374206973206e6f7420617070726f7665642e00000000000000600082015250565b6000614fa260198361406c565b9150614fad82614f6c565b602082019050919050565b60006020820190508181036000830152614fd181614f95565b9050919050565b7f506c656173652073656e6420302e303520657468657220746f2073746172742060008201527f7472616e73666572436f6e74726163742070726f636573732e00000000000000602082015250565b600061503460398361406c565b915061503f82614fd8565b604082019050919050565b6000602082019050818103600083015261506381615027565b9050919050565b6000604082019050818103600083015261508481856140b0565b9050818103602083015261509881846140b0565b90509392505050565b7f4f776e61626c653a206e6577206f776e657220697320746865207a65726f206160008201527f6464726573730000000000000000000000000000000000000000000000000000602082015250565b60006150fd60268361406c565b9150615108826150a1565b604082019050919050565b6000602082019050818103600083015261512c816150f0565b9050919050565b7f4f776e61626c653a2063616c6c6572206973206e6f7420746865206f776e6572600082015250565b600061516960208361406c565b915061517482615133565b602082019050919050565b600060208201905081810360008301526151988161515c565b9050919050565b600060608201905081810360008301526151b981866140b0565b905081810360208301526151cd81856140b0565b90506151dc60408301846141bf565b949350505050565b60006151ef82614149565b91506151fa83614149565b92508282101561520d5761520c6146ff565b5b828203905092915050565b7f4e487b7100000000000000000000000000000000000000000000000000000000600052603160045260246000fd5b6000604082019050818103600083015261526181856140b0565b905061527060208301846141bf565b939250505056fe446f6d61696e206e616d6520616e6420636f6e7472616374206164647265737320646f206e6f74206d61746368206f7220636f6e7472616374206973206e6f7420617070726f7665642e20436865636b20636f6e7472616374207374617465446f6d61696e206e616d6520616e6420636f6e74726163742061646472657373206d617463682062757420646f6d61696e2069732065787069726564a2646970667358221220a04557b76ef1e1b5088ff65854ac1462fb1f9415e09091b6ea70d120fbbefb6e64736f6c63430008090033",
  "linkReferences": {},
  "deployedLinkReferences": {}
}