{
  "_format": "hh-sol-artifact-1",
  "contractName": "CertDao",
  "sourceName": "contracts/CertDao.sol",
  "abi": [
    {
      "inputs": [],
      "stateMutability": "nonpayable",
      "type": "constructor"
    },
    {
      "anonymous": false,
      "inputs": [
        {
          "indexed": true,
          "internalType": "address",
          "name": "contractAddress",
          "type": "address"
        },
        {
          "indexed": true,
          "internalType": "string",
          "name": "domainName",
          "type": "string"
        },
        {
          "indexed": false,
          "internalType": "enum ICertDao.DomainStatus",
          "name": "status",
          "type": "uint8"
        }
      ],
      "name": "ContractApproved",
      "type": "event"
    },
    {
      "anonymous": false,
      "inputs": [
        {
          "indexed": true,
          "internalType": "address",
          "name": "contractAddress",
          "type": "address"
        },
        {
          "indexed": true,
          "internalType": "string",
          "name": "domainName",
          "type": "string"
        },
        {
          "indexed": false,
          "internalType": "string",
          "name": "description",
          "type": "string"
        }
      ],
      "name": "ContractExpired",
      "type": "event"
    },
    {
      "anonymous": false,
      "inputs": [
        {
          "indexed": true,
          "internalType": "address",
          "name": "contractAddress",
          "type": "address"
        },
        {
          "indexed": true,
          "internalType": "string",
          "name": "domainName",
          "type": "string"
        },
        {
          "indexed": false,
          "internalType": "string",
          "name": "description",
          "type": "string"
        }
      ],
      "name": "ContractManuallyFlag",
      "type": "event"
    },
    {
      "anonymous": false,
      "inputs": [
        {
          "indexed": true,
          "internalType": "address",
          "name": "contractAddress",
          "type": "address"
        },
        {
          "indexed": true,
          "internalType": "string",
          "name": "domainName",
          "type": "string"
        },
        {
          "indexed": false,
          "internalType": "string",
          "name": "description",
          "type": "string"
        }
      ],
      "name": "ContractRejected",
      "type": "event"
    },
    {
      "anonymous": false,
      "inputs": [
        {
          "indexed": true,
          "internalType": "address",
          "name": "contractAddress",
          "type": "address"
        },
        {
          "indexed": true,
          "internalType": "string",
          "name": "domainName",
          "type": "string"
        },
        {
          "indexed": false,
          "internalType": "enum ICertDao.DomainStatus",
          "name": "status",
          "type": "uint8"
        }
      ],
      "name": "ContractRenewed",
      "type": "event"
    },
    {
      "anonymous": false,
      "inputs": [
        {
          "indexed": true,
          "internalType": "address",
          "name": "contractAddress",
          "type": "address"
        },
        {
          "indexed": true,
          "internalType": "string",
          "name": "domainName",
          "type": "string"
        },
        {
          "indexed": false,
          "internalType": "string",
          "name": "description",
          "type": "string"
        }
      ],
      "name": "ContractRevoked",
      "type": "event"
    },
    {
      "anonymous": false,
      "inputs": [
        {
          "indexed": true,
          "internalType": "address",
          "name": "contractAddress",
          "type": "address"
        },
        {
          "indexed": true,
          "internalType": "string",
          "name": "domainName",
          "type": "string"
        }
      ],
      "name": "ContractSubmittedForValidation",
      "type": "event"
    },
    {
      "anonymous": false,
      "inputs": [
        {
          "indexed": true,
          "internalType": "address",
          "name": "contractAddress",
          "type": "address"
        },
        {
          "indexed": true,
          "internalType": "address",
          "name": "owner",
          "type": "address"
        },
        {
          "indexed": true,
          "internalType": "string",
          "name": "domainName",
          "type": "string"
        },
        {
          "indexed": false,
          "internalType": "string",
          "name": "domainStatus",
          "type": "string"
        },
        {
          "indexed": false,
          "internalType": "string",
          "name": "description",
          "type": "string"
        }
      ],
      "name": "OwnerCreated",
      "type": "event"
    },
    {
      "anonymous": false,
      "inputs": [
        {
          "indexed": true,
          "internalType": "address",
          "name": "previousOwner",
          "type": "address"
        },
        {
          "indexed": true,
          "internalType": "address",
          "name": "newOwner",
          "type": "address"
        }
      ],
      "name": "OwnershipTransferred",
      "type": "event"
    },
    {
      "inputs": [],
      "name": "CERTDAO_DOMAIN",
      "outputs": [
        {
          "internalType": "string",
          "name": "",
          "type": "string"
        }
      ],
      "stateMutability": "view",
      "type": "function"
    },
    {
      "inputs": [
        {
          "internalType": "enum ICertDao.DomainStatus",
          "name": "status",
          "type": "uint8"
        }
      ],
      "name": "DomainStatusToString",
      "outputs": [
        {
          "internalType": "string",
          "name": "",
          "type": "string"
        }
      ],
      "stateMutability": "pure",
      "type": "function"
    },
    {
      "inputs": [],
      "name": "EXPIRATION_PERIOD",
      "outputs": [
        {
          "internalType": "uint32",
          "name": "",
          "type": "uint32"
        }
      ],
      "stateMutability": "view",
      "type": "function"
    },
    {
      "inputs": [],
      "name": "PAY_AMOUNT",
      "outputs": [
        {
          "internalType": "uint64",
          "name": "",
          "type": "uint64"
        }
      ],
      "stateMutability": "view",
      "type": "function"
    },
    {
      "inputs": [
        {
          "internalType": "address",
          "name": "contractAddress",
          "type": "address"
        }
      ],
      "name": "approve",
      "outputs": [],
      "stateMutability": "nonpayable",
      "type": "function"
    },
    {
      "inputs": [
        {
          "internalType": "address[]",
          "name": "contractAddresses",
          "type": "address[]"
        }
      ],
      "name": "batchApprove",
      "outputs": [],
      "stateMutability": "nonpayable",
      "type": "function"
    },
    {
      "inputs": [
        {
          "internalType": "address[]",
          "name": "contractAddresses",
          "type": "address[]"
        }
      ],
      "name": "batchRevoke",
      "outputs": [],
      "stateMutability": "nonpayable",
      "type": "function"
    },
    {
      "inputs": [
        {
          "internalType": "string",
          "name": "a",
          "type": "string"
        },
        {
          "internalType": "string",
          "name": "b",
          "type": "string"
        }
      ],
      "name": "compareStrings",
      "outputs": [
        {
          "internalType": "bool",
          "name": "",
          "type": "bool"
        }
      ],
      "stateMutability": "pure",
      "type": "function"
    },
    {
      "inputs": [
        {
          "internalType": "address",
          "name": "",
          "type": "address"
        }
      ],
      "name": "contractAddressToDomainOwner",
      "outputs": [
        {
          "internalType": "string",
          "name": "domainName",
          "type": "string"
        },
        {
          "internalType": "address",
          "name": "ownerAddress",
          "type": "address"
        },
        {
          "internalType": "enum ICertDao.DomainStatus",
          "name": "status",
          "type": "uint8"
        },
        {
          "internalType": "uint256",
          "name": "timestamp",
          "type": "uint256"
        },
        {
          "internalType": "string",
          "name": "description",
          "type": "string"
        }
      ],
      "stateMutability": "view",
      "type": "function"
    },
    {
      "inputs": [
        {
          "internalType": "uint256",
          "name": "",
          "type": "uint256"
        }
      ],
      "name": "contractAddresses",
      "outputs": [
        {
          "internalType": "address",
          "name": "",
          "type": "address"
        }
      ],
      "stateMutability": "view",
      "type": "function"
    },
    {
      "inputs": [],
      "name": "getAllContracts",
      "outputs": [
        {
          "internalType": "address[]",
          "name": "",
          "type": "address[]"
        }
      ],
      "stateMutability": "view",
      "type": "function"
    },
    {
      "inputs": [
        {
          "internalType": "enum ICertDao.DomainStatus",
          "name": "status",
          "type": "uint8"
        }
      ],
      "name": "getAllContractsWithStatus",
      "outputs": [
        {
          "internalType": "address[]",
          "name": "",
          "type": "address[]"
        }
      ],
      "stateMutability": "view",
      "type": "function"
    },
    {
      "inputs": [
        {
          "internalType": "address",
          "name": "_ownerAddress",
          "type": "address"
        }
      ],
      "name": "getContractAddress",
      "outputs": [
        {
          "internalType": "address[]",
          "name": "",
          "type": "address[]"
        }
      ],
      "stateMutability": "view",
      "type": "function"
    },
    {
      "inputs": [
        {
          "internalType": "address",
          "name": "contractAddress",
          "type": "address"
        }
      ],
      "name": "getDomainDescription",
      "outputs": [
        {
          "internalType": "string",
          "name": "",
          "type": "string"
        }
      ],
      "stateMutability": "view",
      "type": "function"
    },
    {
      "inputs": [
        {
          "internalType": "address",
          "name": "contractAddress",
          "type": "address"
        }
      ],
      "name": "getDomainExpirationTime",
      "outputs": [
        {
          "internalType": "uint256",
          "name": "",
          "type": "uint256"
        }
      ],
      "stateMutability": "view",
      "type": "function"
    },
    {
      "inputs": [
        {
          "internalType": "address",
          "name": "contractAddress",
          "type": "address"
        }
      ],
      "name": "getDomainName",
      "outputs": [
        {
          "internalType": "string",
          "name": "",
          "type": "string"
        }
      ],
      "stateMutability": "view",
      "type": "function"
    },
    {
      "inputs": [
        {
          "internalType": "address",
          "name": "contractAddress",
          "type": "address"
        }
      ],
      "name": "getDomainOwner",
      "outputs": [
        {
          "internalType": "address",
          "name": "",
          "type": "address"
        }
      ],
      "stateMutability": "view",
      "type": "function"
    },
    {
      "inputs": [
        {
          "internalType": "address",
          "name": "contractAddress",
          "type": "address"
        }
      ],
      "name": "getDomainRegistrationTime",
      "outputs": [
        {
          "internalType": "uint256",
          "name": "",
          "type": "uint256"
        }
      ],
      "stateMutability": "view",
      "type": "function"
    },
    {
      "inputs": [
        {
          "internalType": "address",
          "name": "contractAddress",
          "type": "address"
        }
      ],
      "name": "getDomainStatus",
      "outputs": [
        {
          "internalType": "string",
          "name": "",
          "type": "string"
        }
      ],
      "stateMutability": "view",
      "type": "function"
    },
    {
      "inputs": [],
      "name": "getTotalContractCount",
      "outputs": [
        {
          "internalType": "uint256",
          "name": "",
          "type": "uint256"
        }
      ],
      "stateMutability": "view",
      "type": "function"
    },
    {
      "inputs": [
        {
          "internalType": "address",
          "name": "contractAddress",
          "type": "address"
        },
        {
          "internalType": "string",
          "name": "domainName",
          "type": "string"
        },
        {
          "internalType": "string",
          "name": "description",
          "type": "string"
        }
      ],
      "name": "manualFlag",
      "outputs": [],
      "stateMutability": "nonpayable",
      "type": "function"
    },
    {
      "inputs": [],
      "name": "owner",
      "outputs": [
        {
          "internalType": "address",
          "name": "",
          "type": "address"
        }
      ],
      "stateMutability": "view",
      "type": "function"
    },
    {
      "inputs": [
        {
          "internalType": "address",
          "name": "contractAddress",
          "type": "address"
        },
        {
          "internalType": "address",
          "name": "owner",
          "type": "address"
        },
        {
          "internalType": "enum ICertDao.DomainStatus",
          "name": "status",
          "type": "uint8"
        },
        {
          "internalType": "string",
          "name": "domainName",
          "type": "string"
        },
        {
          "internalType": "string",
          "name": "description",
          "type": "string"
        }
      ],
      "name": "ownerCreation",
      "outputs": [],
      "stateMutability": "nonpayable",
      "type": "function"
    },
    {
      "inputs": [
        {
          "internalType": "address",
          "name": "",
          "type": "address"
        },
        {
          "internalType": "uint256",
          "name": "",
          "type": "uint256"
        }
      ],
      "name": "ownerToContractAddresses",
      "outputs": [
        {
          "internalType": "address",
          "name": "",
          "type": "address"
        }
      ],
      "stateMutability": "view",
      "type": "function"
    },
    {
      "inputs": [
        {
          "internalType": "address",
          "name": "contractAddress",
          "type": "address"
        },
        {
          "internalType": "string",
          "name": "domainName",
          "type": "string"
        }
      ],
      "name": "renew",
      "outputs": [],
      "stateMutability": "payable",
      "type": "function"
    },
    {
      "inputs": [],
      "name": "renounceOwnership",
      "outputs": [],
      "stateMutability": "nonpayable",
      "type": "function"
    },
    {
      "inputs": [
        {
          "internalType": "address",
          "name": "contractAddress",
          "type": "address"
        }
      ],
      "name": "returnAllContractInfo",
      "outputs": [
        {
          "internalType": "string",
          "name": "",
          "type": "string"
        },
        {
          "internalType": "address",
          "name": "",
          "type": "address"
        },
        {
          "internalType": "string",
          "name": "",
          "type": "string"
        },
        {
          "internalType": "uint256",
          "name": "",
          "type": "uint256"
        },
        {
          "internalType": "string",
          "name": "",
          "type": "string"
        }
      ],
      "stateMutability": "view",
      "type": "function"
    },
    {
      "inputs": [
        {
          "internalType": "address",
          "name": "contractAddress",
          "type": "address"
        }
      ],
      "name": "revoke",
      "outputs": [],
      "stateMutability": "nonpayable",
      "type": "function"
    },
    {
      "inputs": [
        {
          "internalType": "address",
          "name": "contractAddress",
          "type": "address"
        },
        {
          "internalType": "string",
          "name": "domainName",
          "type": "string"
        },
        {
          "internalType": "string",
          "name": "description",
          "type": "string"
        }
      ],
      "name": "submitForValidation",
      "outputs": [],
      "stateMutability": "payable",
      "type": "function"
    },
    {
      "inputs": [],
      "name": "totalContractAddressMappings",
      "outputs": [
        {
          "internalType": "uint256",
          "name": "",
          "type": "uint256"
        }
      ],
      "stateMutability": "view",
      "type": "function"
    },
    {
      "inputs": [],
      "name": "totalContractAddresses",
      "outputs": [
        {
          "internalType": "uint256",
          "name": "",
          "type": "uint256"
        }
      ],
      "stateMutability": "view",
      "type": "function"
    },
    {
      "inputs": [
        {
          "internalType": "address",
          "name": "newContractAddress",
          "type": "address"
        },
        {
          "internalType": "string",
          "name": "domainOwner",
          "type": "string"
        }
      ],
      "name": "transferContractToNewDomain",
      "outputs": [],
      "stateMutability": "payable",
      "type": "function"
    },
    {
      "inputs": [
        {
          "internalType": "address",
          "name": "newOwner",
          "type": "address"
        }
      ],
      "name": "transferOwnership",
      "outputs": [],
      "stateMutability": "nonpayable",
      "type": "function"
    },
    {
      "inputs": [
        {
          "internalType": "address",
          "name": "_contractAddress",
          "type": "address"
        },
        {
          "internalType": "address",
          "name": "_newDomainOwner",
          "type": "address"
        }
      ],
      "name": "updateOwner",
      "outputs": [],
      "stateMutability": "payable",
      "type": "function"
    },
    {
      "inputs": [
        {
          "internalType": "address",
          "name": "contractAddress",
          "type": "address"
        },
        {
          "internalType": "string",
          "name": "domainName",
          "type": "string"
        }
      ],
      "name": "verify",
      "outputs": [
        {
          "internalType": "bool",
          "name": "",
          "type": "bool"
        }
      ],
      "stateMutability": "view",
      "type": "function"
    }
  ],
  "bytecode": "0x60806040523480156200001157600080fd5b5062000032620000266200029c60201b60201c565b620002a460201b60201c565b60006040518060a001604052806040518060400160405280600b81526020017f6365727464616f2e6e657400000000000000000000000000000000000000000081525081526020016200008a6200036860201b60201c565b73ffffffffffffffffffffffffffffffffffffffff16815260200160026005811115620000bc57620000bb62000441565b5b815260200163bc19138042620000d39190620004a9565b81526020016040518060400160405280601581526020017f4365727444616f204f776e65722067656e657369730000000000000000000000815250815250905080600260003073ffffffffffffffffffffffffffffffffffffffff1673ffffffffffffffffffffffffffffffffffffffff16815260200190815260200160002060008201518160000190805190602001906200017192919062000391565b5060208201518160010160006101000a81548173ffffffffffffffffffffffffffffffffffffffff021916908373ffffffffffffffffffffffffffffffffffffffff16021790555060408201518160010160146101000a81548160ff02191690836005811115620001e757620001e662000441565b5b02179055506060820151816002015560808201518160030190805190602001906200021492919062000391565b509050506004309080600181540180825580915050600190039060005260206000200160009091909190916101000a81548173ffffffffffffffffffffffffffffffffffffffff021916908373ffffffffffffffffffffffffffffffffffffffff16021790555060056000815480929190620002909062000506565b919050555050620005b9565b600033905090565b60008060009054906101000a900473ffffffffffffffffffffffffffffffffffffffff169050816000806101000a81548173ffffffffffffffffffffffffffffffffffffffff021916908373ffffffffffffffffffffffffffffffffffffffff1602179055508173ffffffffffffffffffffffffffffffffffffffff168173ffffffffffffffffffffffffffffffffffffffff167f8be0079c531659141344cd1fd0a4f28419497f9722a3daafe3b4186f6b6457e060405160405180910390a35050565b60008060009054906101000a900473ffffffffffffffffffffffffffffffffffffffff16905090565b8280546200039f9062000583565b90600052602060002090601f016020900481019282620003c357600085556200040f565b82601f10620003de57805160ff19168380011785556200040f565b828001600101855582156200040f579182015b828111156200040e578251825591602001919060010190620003f1565b5b5090506200041e919062000422565b5090565b5b808211156200043d57600081600090555060010162000423565b5090565b7f4e487b7100000000000000000000000000000000000000000000000000000000600052602160045260246000fd5b6000819050919050565b7f4e487b7100000000000000000000000000000000000000000000000000000000600052601160045260246000fd5b6000620004b68262000470565b9150620004c38362000470565b9250827fffffffffffffffffffffffffffffffffffffffffffffffffffffffffffffffff03821115620004fb57620004fa6200047a565b5b828201905092915050565b6000620005138262000470565b91507fffffffffffffffffffffffffffffffffffffffffffffffffffffffffffffffff8214156200054957620005486200047a565b5b600182019050919050565b7f4e487b7100000000000000000000000000000000000000000000000000000000600052602260045260246000fd5b600060028204905060018216806200059c57607f821691505b60208210811415620005b357620005b262000554565b5b50919050565b6157b980620005c96000396000f3fe6080604052600436106102045760003560e01c8063751f592b11610118578063ca75960b116100a0578063daea85c51161006f578063daea85c5146107ad578063e21d7c4c146107d6578063e8fc927314610813578063ea5ed3db14610850578063f2fde38b1461087957610204565b8063ca75960b146106f1578063ce93dceb1461071c578063cec3e31714610759578063d8647d131461078457610204565b8063945507cb116100e7578063945507cb14610614578063990065001461063f578063a6348c801461067c578063bc61839114610698578063bed34bba146106b457610204565b8063751f592b146105445780637e3638b51461056f5780638da5cb5b146105ac5780638e7d5a68146105d757610204565b80632d1b31741161019b57806354c2b8091161016a57806354c2b8091461046a578063622bc90e146104ab578063715018a6146104e857806372b0a7ed146104ff57806374a8f1031461051b57610204565b80632d1b31741461039c5780633263b545146103d95780633e22687b146104165780635036598f1461044157610204565b8063180e5c21116101d7578063180e5c21146102b657806318d3ce96146102f3578063219671191461031e57806329b17f7d1461035b57610204565b8063011002df14610209578063043c6de3146102325780630694340e1461024e5780630a0d92471461028b575b600080fd5b34801561021557600080fd5b50610230600480360381019061022b9190614364565b6108a2565b005b61024c60048036038101906102479190614462565b6108f0565b005b34801561025a57600080fd5b50610275600480360381019061027091906144be565b610da6565b6040516102829190614573565b60405180910390f35b34801561029757600080fd5b506102a0610eea565b6040516102ad91906145b8565b60405180910390f35b3480156102c257600080fd5b506102dd60048036038101906102d89190614609565b610ef5565b6040516102ea9190614658565b60405180910390f35b3480156102ff57600080fd5b50610308610f43565b6040516103159190614731565b60405180910390f35b34801561032a57600080fd5b50610345600480360381019061034091906144be565b610fd1565b6040516103529190614762565b60405180910390f35b34801561036757600080fd5b50610382600480360381019061037d91906144be565b6110a1565b6040516103939594939291906147f4565b60405180910390f35b3480156103a857600080fd5b506103c360048036038101906103be91906144be565b611214565b6040516103d09190614762565b60405180910390f35b3480156103e557600080fd5b5061040060048036038101906103fb9190614855565b6112cf565b60405161040d9190614658565b60405180910390f35b34801561042257600080fd5b5061042b61130e565b6040516104389190614762565b60405180910390f35b34801561044d57600080fd5b5061046860048036038101906104639190614882565b611314565b005b34801561047657600080fd5b50610491600480360381019061048c91906144be565b6114af565b6040516104a295949392919061490d565b60405180910390f35b3480156104b757600080fd5b506104d260048036038101906104cd91906144be565b611674565b6040516104df9190614731565b60405180910390f35b3480156104f457600080fd5b506104fd611741565b005b61051960048036038101906105149190614882565b611755565b005b34801561052757600080fd5b50610542600480360381019061053d91906144be565b611d2f565b005b34801561055057600080fd5b50610559611fd1565b6040516105669190614762565b60405180910390f35b34801561057b57600080fd5b50610596600480360381019061059191906144be565b611fdb565b6040516105a39190614573565b60405180910390f35b3480156105b857600080fd5b506105c161211f565b6040516105ce9190614658565b60405180910390f35b3480156105e357600080fd5b506105fe60048036038101906105f991906144be565b612148565b60405161060b9190614573565b60405180910390f35b34801561062057600080fd5b50610629612410565b6040516106369190614573565b60405180910390f35b34801561064b57600080fd5b50610666600480360381019061066191906144be565b612449565b6040516106739190614658565b60405180910390f35b61069660048036038101906106919190614975565b6124b5565b005b6106b260048036038101906106ad9190614462565b612877565b005b3480156106c057600080fd5b506106db60048036038101906106d691906149b5565b612b0d565b6040516106e89190614a48565b60405180910390f35b3480156106fd57600080fd5b50610706612b66565b6040516107139190614a82565b60405180910390f35b34801561072857600080fd5b50610743600480360381019061073e9190614ac2565b612b6e565b6040516107509190614573565b60405180910390f35b34801561076557600080fd5b5061076e612e29565b60405161077b9190614762565b60405180910390f35b34801561079057600080fd5b506107ab60048036038101906107a69190614aef565b612e2f565b005b3480156107b957600080fd5b506107d460048036038101906107cf91906144be565b613323565b005b3480156107e257600080fd5b506107fd60048036038101906107f89190614ac2565b6135c8565b60405161080a9190614731565b60405180910390f35b34801561081f57600080fd5b5061083a60048036038101906108359190614462565b613799565b6040516108479190614a48565b60405180910390f35b34801561085c57600080fd5b5061087760048036038101906108729190614364565b613ba9565b005b34801561088557600080fd5b506108a0600480360381019061089b91906144be565b613bf7565b005b6108aa613c7b565b60005b81518110156108ec576108d98282815181106108cc576108cb614ba2565b5b6020026020010151611d2f565b80806108e490614c00565b9150506108ad565b5050565b8181600081511415610937576040517f08c379a000000000000000000000000000000000000000000000000000000000815260040161092e90614c95565b60405180910390fd5b600073ffffffffffffffffffffffffffffffffffffffff168273ffffffffffffffffffffffffffffffffffffffff1614156109a7576040517f08c379a000000000000000000000000000000000000000000000000000000000815260040161099e90614d01565b60405180910390fd5b600260008573ffffffffffffffffffffffffffffffffffffffff1673ffffffffffffffffffffffffffffffffffffffff16815260200190815260200160002060010160009054906101000a900473ffffffffffffffffffffffffffffffffffffffff1673ffffffffffffffffffffffffffffffffffffffff163373ffffffffffffffffffffffffffffffffffffffff161480610a755750610a4661211f565b73ffffffffffffffffffffffffffffffffffffffff163373ffffffffffffffffffffffffffffffffffffffff16145b610ab4576040517f08c379a0000000000000000000000000000000000000000000000000000000008152600401610aab90614db9565b60405180910390fd5b60026005811115610ac857610ac761477d565b5b600260008673ffffffffffffffffffffffffffffffffffffffff1673ffffffffffffffffffffffffffffffffffffffff16815260200190815260200160002060010160149054906101000a900460ff166005811115610b2a57610b2961477d565b5b1415610d9f57426301e1338063ffffffff16600260008773ffffffffffffffffffffffffffffffffffffffff1673ffffffffffffffffffffffffffffffffffffffff16815260200190815260200160002060020154610b899190614dd9565b1015610d5b5766b1a2bc2ec5000067ffffffffffffffff163414610be2576040517f08c379a0000000000000000000000000000000000000000000000000000000008152600401610bd990614ea1565b60405180910390fd5b42600260008673ffffffffffffffffffffffffffffffffffffffff1673ffffffffffffffffffffffffffffffffffffffff16815260200190815260200160002060020181905550600080610c3461211f565b73ffffffffffffffffffffffffffffffffffffffff1666b1a2bc2ec5000067ffffffffffffffff16604051610c6890614ef2565b60006040518083038185875af1925050503d8060008114610ca5576040519150601f19603f3d011682016040523d82523d6000602084013e610caa565b606091505b509150915084604051610cbd9190614f43565b60405180910390208673ffffffffffffffffffffffffffffffffffffffff167fd9229190af804fd9bd07bfdc0d8e7c2d91d5f3173cc97b9ef1d6bbcbce817c5b6002604051610d0c9190614f5a565b60405180910390a381610d54576040517f08c379a0000000000000000000000000000000000000000000000000000000008152600401610d4b90614fc1565b60405180910390fd5b5050610d9e565b610d996040518060400160405280601a81526020017f446f6d61696e206973206e6f742065787069726564207965742e000000000000815250613cf9565b610da0565b5b5b50505050565b6060600073ffffffffffffffffffffffffffffffffffffffff168273ffffffffffffffffffffffffffffffffffffffff161415610e18576040517f08c379a0000000000000000000000000000000000000000000000000000000008152600401610e0f90614d01565b60405180910390fd5b600260008373ffffffffffffffffffffffffffffffffffffffff1673ffffffffffffffffffffffffffffffffffffffff1681526020019081526020016000206003018054610e6590615010565b80601f0160208091040260200160405190810160405280929190818152602001828054610e9190615010565b8015610ede5780601f10610eb357610100808354040283529160200191610ede565b820191906000526020600020905b815481529060010190602001808311610ec157829003601f168201915b50505050509050919050565b66b1a2bc2ec5000081565b60016020528160005260406000208181548110610f1157600080fd5b906000526020600020016000915091509054906101000a900473ffffffffffffffffffffffffffffffffffffffff1681565b60606004805480602002602001604051908101604052809291908181526020018280548015610fc757602002820191906000526020600020905b8160009054906101000a900473ffffffffffffffffffffffffffffffffffffffff1673ffffffffffffffffffffffffffffffffffffffff1681526020019060010190808311610f7d575b5050505050905090565b60008073ffffffffffffffffffffffffffffffffffffffff168273ffffffffffffffffffffffffffffffffffffffff161415611042576040517f08c379a000000000000000000000000000000000000000000000000000000000815260040161103990614d01565b60405180910390fd5b6301e1338063ffffffff16600260008473ffffffffffffffffffffffffffffffffffffffff1673ffffffffffffffffffffffffffffffffffffffff1681526020019081526020016000206002015461109a9190614dd9565b9050919050565b60026020528060005260406000206000915090508060000180546110c490615010565b80601f01602080910402602001604051908101604052809291908181526020018280546110f090615010565b801561113d5780601f106111125761010080835404028352916020019161113d565b820191906000526020600020905b81548152906001019060200180831161112057829003601f168201915b5050505050908060010160009054906101000a900473ffffffffffffffffffffffffffffffffffffffff16908060010160149054906101000a900460ff169080600201549080600301805461119190615010565b80601f01602080910402602001604051908101604052809291908181526020018280546111bd90615010565b801561120a5780601f106111df5761010080835404028352916020019161120a565b820191906000526020600020905b8154815290600101906020018083116111ed57829003601f168201915b5050505050905085565b60008073ffffffffffffffffffffffffffffffffffffffff168273ffffffffffffffffffffffffffffffffffffffff161415611285576040517f08c379a000000000000000000000000000000000000000000000000000000000815260040161127c90614d01565b60405180910390fd5b600260008373ffffffffffffffffffffffffffffffffffffffff1673ffffffffffffffffffffffffffffffffffffffff168152602001908152602001600020600201549050919050565b600481815481106112df57600080fd5b906000526020600020016000915054906101000a900473ffffffffffffffffffffffffffffffffffffffff1681565b60055481565b61131c613c7b565b600073ffffffffffffffffffffffffffffffffffffffff168373ffffffffffffffffffffffffffffffffffffffff16141561138c576040517f08c379a000000000000000000000000000000000000000000000000000000000815260040161138390614d01565b60405180910390fd5b6000600260008573ffffffffffffffffffffffffffffffffffffffff1673ffffffffffffffffffffffffffffffffffffffff168152602001908152602001600020905060058160010160146101000a81548160ff021916908360058111156113f7576113f661477d565b5b0217905550600083511461141f578281600001908051906020019061141d9291906140f6565b505b600082511461144257818160030190805190602001906114409291906140f6565b505b8060000160405161145391906150d6565b60405180910390208473ffffffffffffffffffffffffffffffffffffffff167f333fcfe85110a1e880e493c16a2a2c2eb62ab038f109ca7467d26d641bb5699d846040516114a19190614573565b60405180910390a350505050565b606060006060600060606000600260008873ffffffffffffffffffffffffffffffffffffffff1673ffffffffffffffffffffffffffffffffffffffff1681526020019081526020016000209050806000018160010160009054906101000a900473ffffffffffffffffffffffffffffffffffffffff1661153f8360010160149054906101000a900460ff16612b6e565b83600201548460030184805461155490615010565b80601f016020809104026020016040519081016040528092919081815260200182805461158090615010565b80156115cd5780601f106115a2576101008083540402835291602001916115cd565b820191906000526020600020905b8154815290600101906020018083116115b057829003601f168201915b505050505094508080546115e090615010565b80601f016020809104026020016040519081016040528092919081815260200182805461160c90615010565b80156116595780601f1061162e57610100808354040283529160200191611659565b820191906000526020600020905b81548152906001019060200180831161163c57829003601f168201915b50505050509050955095509550955095505091939590929450565b6060600160008373ffffffffffffffffffffffffffffffffffffffff1673ffffffffffffffffffffffffffffffffffffffff16815260200190815260200160002080548060200260200160405190810160405280929190818152602001828054801561173557602002820191906000526020600020905b8160009054906101000a900473ffffffffffffffffffffffffffffffffffffffff1673ffffffffffffffffffffffffffffffffffffffff16815260200190600101908083116116eb575b50505050509050919050565b611749613c7b565b6117536000613d92565b565b828260008151141561179c576040517f08c379a000000000000000000000000000000000000000000000000000000000815260040161179390614c95565b60405180910390fd5b600073ffffffffffffffffffffffffffffffffffffffff168273ffffffffffffffffffffffffffffffffffffffff16141561180c576040517f08c379a000000000000000000000000000000000000000000000000000000000815260040161180390614d01565b60405180910390fd5b66b1a2bc2ec5000067ffffffffffffffff16341461185f576040517f08c379a00000000000000000000000000000000000000000000000000000000081526004016118569061515f565b60405180910390fd5b611942600260008773ffffffffffffffffffffffffffffffffffffffff1673ffffffffffffffffffffffffffffffffffffffff16815260200190815260200160002060000180546118af90615010565b80601f01602080910402602001604051908101604052809291908181526020018280546118db90615010565b80156119285780601f106118fd57610100808354040283529160200191611928565b820191906000526020600020905b81548152906001019060200180831161190b57829003601f168201915b505050505060405180602001604052806000815250612b0d565b611981576040517f08c379a0000000000000000000000000000000000000000000000000000000008152600401611978906151f1565b60405180910390fd5b60006040518060a001604052808681526020013373ffffffffffffffffffffffffffffffffffffffff168152602001600060058111156119c4576119c361477d565b5b815260200142815260200185815250905080600260008873ffffffffffffffffffffffffffffffffffffffff1673ffffffffffffffffffffffffffffffffffffffff1681526020019081526020016000206000820151816000019080519060200190611a319291906140f6565b5060208201518160010160006101000a81548173ffffffffffffffffffffffffffffffffffffffff021916908373ffffffffffffffffffffffffffffffffffffffff16021790555060408201518160010160146101000a81548160ff02191690836005811115611aa457611aa361477d565b5b0217905550606082015181600201556080820151816003019080519060200190611acf9291906140f6565b50905050600160003373ffffffffffffffffffffffffffffffffffffffff1673ffffffffffffffffffffffffffffffffffffffff168152602001908152602001600020869080600181540180825580915050600190039060005260206000200160009091909190916101000a81548173ffffffffffffffffffffffffffffffffffffffff021916908373ffffffffffffffffffffffffffffffffffffffff16021790555060036000815480929190611b8690614c00565b91905055506004869080600181540180825580915050600190039060005260206000200160009091909190916101000a81548173ffffffffffffffffffffffffffffffffffffffff021916908373ffffffffffffffffffffffffffffffffffffffff16021790555060056000815480929190611c0190614c00565b9190505550600080611c1161211f565b73ffffffffffffffffffffffffffffffffffffffff1666b1a2bc2ec5000067ffffffffffffffff16604051611c4590614ef2565b60006040518083038185875af1925050503d8060008114611c82576040519150601f19603f3d011682016040523d82523d6000602084013e611c87565b606091505b509150915081611ccc576040517f08c379a0000000000000000000000000000000000000000000000000000000008152600401611cc390614fc1565b60405180910390fd5b86604051611cda9190614f43565b60405180910390208873ffffffffffffffffffffffffffffffffffffffff167fe56a1dcfd351f0a9dc4f9bda49d191d54001ff53db4f795b8e146cf12660d13960405160405180910390a35050505050505050565b611d37613c7b565b80600260008373ffffffffffffffffffffffffffffffffffffffff1673ffffffffffffffffffffffffffffffffffffffff1681526020019081526020016000206000018054611d8590615010565b80601f0160208091040260200160405190810160405280929190818152602001828054611db190615010565b8015611dfe5780601f10611dd357610100808354040283529160200191611dfe565b820191906000526020600020905b815481529060010190602001808311611de157829003601f168201915b5050505050600081511415611e48576040517f08c379a0000000000000000000000000000000000000000000000000000000008152600401611e3f90614c95565b60405180910390fd5b600073ffffffffffffffffffffffffffffffffffffffff168273ffffffffffffffffffffffffffffffffffffffff161415611eb8576040517f08c379a0000000000000000000000000000000000000000000000000000000008152600401611eaf90614d01565b60405180910390fd5b6000600260008573ffffffffffffffffffffffffffffffffffffffff1673ffffffffffffffffffffffffffffffffffffffff168152602001908152602001600020905060046005811115611f0f57611f0e61477d565b5b8160010160149054906101000a900460ff166005811115611f3357611f3261477d565b5b14611fcb5760048160010160146101000a81548160ff02191690836005811115611f6057611f5f61477d565b5b021790555080600001604051611f7691906150d6565b60405180910390208473ffffffffffffffffffffffffffffffffffffffff167fcf5a73a37bc6f798de8cf5a014571f0f3005949c4f8911c44ec304ee24941a78604051611fc29061525d565b60405180910390a35b50505050565b6000600554905090565b6060600073ffffffffffffffffffffffffffffffffffffffff168273ffffffffffffffffffffffffffffffffffffffff16141561204d576040517f08c379a000000000000000000000000000000000000000000000000000000000815260040161204490614d01565b60405180910390fd5b600260008373ffffffffffffffffffffffffffffffffffffffff1673ffffffffffffffffffffffffffffffffffffffff168152602001908152602001600020600001805461209a90615010565b80601f01602080910402602001604051908101604052809291908181526020018280546120c690615010565b80156121135780601f106120e857610100808354040283529160200191612113565b820191906000526020600020905b8154815290600101906020018083116120f657829003601f168201915b50505050509050919050565b60008060009054906101000a900473ffffffffffffffffffffffffffffffffffffffff16905090565b6060600073ffffffffffffffffffffffffffffffffffffffff168273ffffffffffffffffffffffffffffffffffffffff1614156121ba576040517f08c379a00000000000000000000000000000000000000000000000000000000081526004016121b190614d01565b60405180910390fd5b6000600260008473ffffffffffffffffffffffffffffffffffffffff1673ffffffffffffffffffffffffffffffffffffffff1681526020019081526020016000206040518060a001604052908160008201805461221690615010565b80601f016020809104026020016040519081016040528092919081815260200182805461224290615010565b801561228f5780601f106122645761010080835404028352916020019161228f565b820191906000526020600020905b81548152906001019060200180831161227257829003601f168201915b505050505081526020016001820160009054906101000a900473ffffffffffffffffffffffffffffffffffffffff1673ffffffffffffffffffffffffffffffffffffffff1673ffffffffffffffffffffffffffffffffffffffff1681526020016001820160149054906101000a900460ff1660058111156123135761231261477d565b5b60058111156123255761232461477d565b5b81526020016002820154815260200160038201805461234390615010565b80601f016020809104026020016040519081016040528092919081815260200182805461236f90615010565b80156123bc5780601f10612391576101008083540402835291602001916123bc565b820191906000526020600020905b81548152906001019060200180831161239f57829003601f168201915b5050505050815250509050426301e1338063ffffffff1682606001516123e29190614dd9565b10156123fa576123f26001612b6e565b91505061240b565b6124078160400151612b6e565b9150505b919050565b6040518060400160405280600b81526020017f6365727464616f2e6e657400000000000000000000000000000000000000000081525081565b6000600260008373ffffffffffffffffffffffffffffffffffffffff1673ffffffffffffffffffffffffffffffffffffffff16815260200190815260200160002060010160009054906101000a900473ffffffffffffffffffffffffffffffffffffffff169050919050565b6000600260008473ffffffffffffffffffffffffffffffffffffffff1673ffffffffffffffffffffffffffffffffffffffff16815260200190815260200160002090508060010160009054906101000a900473ffffffffffffffffffffffffffffffffffffffff1673ffffffffffffffffffffffffffffffffffffffff163373ffffffffffffffffffffffffffffffffffffffff161461258a576040517f08c379a0000000000000000000000000000000000000000000000000000000008152600401612581906152ef565b60405180910390fd5b600073ffffffffffffffffffffffffffffffffffffffff168373ffffffffffffffffffffffffffffffffffffffff1614156125fa576040517f08c379a00000000000000000000000000000000000000000000000000000000081526004016125f190614d01565b60405180910390fd5b600073ffffffffffffffffffffffffffffffffffffffff168273ffffffffffffffffffffffffffffffffffffffff16141561266a576040517f08c379a000000000000000000000000000000000000000000000000000000000815260040161266190614c95565b60405180910390fd5b66b1a2bc2ec5000067ffffffffffffffff1634146126bd576040517f08c379a00000000000000000000000000000000000000000000000000000000081526004016126b49061535b565b60405180910390fd5b818160010160006101000a81548173ffffffffffffffffffffffffffffffffffffffff021916908373ffffffffffffffffffffffffffffffffffffffff160217905550600160008373ffffffffffffffffffffffffffffffffffffffff1673ffffffffffffffffffffffffffffffffffffffff168152602001908152602001600020839080600181540180825580915050600190039060005260206000200160009091909190916101000a81548173ffffffffffffffffffffffffffffffffffffffff021916908373ffffffffffffffffffffffffffffffffffffffff1602179055506127aa8333613e56565b6000806127b561211f565b73ffffffffffffffffffffffffffffffffffffffff1666b1a2bc2ec5000067ffffffffffffffff166040516127e990614ef2565b60006040518083038185875af1925050503d8060008114612826576040519150601f19603f3d011682016040523d82523d6000602084013e61282b565b606091505b509150915081612870576040517f08c379a000000000000000000000000000000000000000000000000000000000815260040161286790614fc1565b60405180910390fd5b5050505050565b81816000815114156128be576040517f08c379a00000000000000000000000000000000000000000000000000000000081526004016128b590614c95565b60405180910390fd5b600073ffffffffffffffffffffffffffffffffffffffff168273ffffffffffffffffffffffffffffffffffffffff16141561292e576040517f08c379a000000000000000000000000000000000000000000000000000000000815260040161292590614d01565b60405180910390fd5b600260008573ffffffffffffffffffffffffffffffffffffffff1673ffffffffffffffffffffffffffffffffffffffff16815260200190815260200160002060010160009054906101000a900473ffffffffffffffffffffffffffffffffffffffff1673ffffffffffffffffffffffffffffffffffffffff163373ffffffffffffffffffffffffffffffffffffffff16146129fe576040517f08c379a00000000000000000000000000000000000000000000000000000000081526004016129f5906153ed565b60405180910390fd5b60026005811115612a1257612a1161477d565b5b600260008673ffffffffffffffffffffffffffffffffffffffff1673ffffffffffffffffffffffffffffffffffffffff16815260200190815260200160002060010160149054906101000a900460ff166005811115612a7457612a7361477d565b5b14612ab4576040517f08c379a0000000000000000000000000000000000000000000000000000000008152600401612aab90615459565b60405180910390fd5b66b1a2bc2ec5000067ffffffffffffffff163414612b07576040517f08c379a0000000000000000000000000000000000000000000000000000000008152600401612afe906154eb565b60405180910390fd5b50505050565b600081604051602001612b209190614f43565b6040516020818303038152906040528051906020012083604051602001612b479190614f43565b6040516020818303038152906040528051906020012014905092915050565b6301e1338081565b606060006005811115612b8457612b8361477d565b5b826005811115612b9757612b9661477d565b5b1415612bda576040518060400160405280600781526020017f70656e64696e67000000000000000000000000000000000000000000000000008152509050612e24565b60016005811115612bee57612bed61477d565b5b826005811115612c0157612c0061477d565b5b1415612c44576040518060400160405280600781526020017f65787069726564000000000000000000000000000000000000000000000000008152509050612e24565b60026005811115612c5857612c5761477d565b5b826005811115612c6b57612c6a61477d565b5b1415612cae576040518060400160405280600881526020017f617070726f7665640000000000000000000000000000000000000000000000008152509050612e24565b60036005811115612cc257612cc161477d565b5b826005811115612cd557612cd461477d565b5b1415612d18576040518060400160405280600881526020017f72656a65637465640000000000000000000000000000000000000000000000008152509050612e24565b60046005811115612d2c57612d2b61477d565b5b826005811115612d3f57612d3e61477d565b5b1415612d82576040518060400160405280600781526020017f7265766f6b6564000000000000000000000000000000000000000000000000008152509050612e24565b600580811115612d9557612d9461477d565b5b826005811115612da857612da761477d565b5b1415612deb576040518060400160405280600a81526020017f6d616e75616c466c6167000000000000000000000000000000000000000000008152509050612e24565b6040518060400160405280600781526020017f756e6b6e6f776e0000000000000000000000000000000000000000000000000081525090505b919050565b60035481565b612e37613c7b565b8482600081511415612e7e576040517f08c379a0000000000000000000000000000000000000000000000000000000008152600401612e7590614c95565b60405180910390fd5b600073ffffffffffffffffffffffffffffffffffffffff168273ffffffffffffffffffffffffffffffffffffffff161415612eee576040517f08c379a0000000000000000000000000000000000000000000000000000000008152600401612ee590614d01565b60405180910390fd5b612fd1600260008973ffffffffffffffffffffffffffffffffffffffff1673ffffffffffffffffffffffffffffffffffffffff1681526020019081526020016000206000018054612f3e90615010565b80601f0160208091040260200160405190810160405280929190818152602001828054612f6a90615010565b8015612fb75780601f10612f8c57610100808354040283529160200191612fb7565b820191906000526020600020905b815481529060010190602001808311612f9a57829003601f168201915b505050505060405180602001604052806000815250612b0d565b613010576040517f08c379a0000000000000000000000000000000000000000000000000000000008152600401613007906151f1565b60405180910390fd5b60006040518060a001604052808681526020018873ffffffffffffffffffffffffffffffffffffffff1681526020018760058111156130525761305161477d565b5b815260200142815260200185815250905080600260008a73ffffffffffffffffffffffffffffffffffffffff1673ffffffffffffffffffffffffffffffffffffffff16815260200190815260200160002060008201518160000190805190602001906130bf9291906140f6565b5060208201518160010160006101000a81548173ffffffffffffffffffffffffffffffffffffffff021916908373ffffffffffffffffffffffffffffffffffffffff16021790555060408201518160010160146101000a81548160ff021916908360058111156131325761313161477d565b5b021790555060608201518160020155608082015181600301908051906020019061315d9291906140f6565b50905050600160008873ffffffffffffffffffffffffffffffffffffffff1673ffffffffffffffffffffffffffffffffffffffff168152602001908152602001600020889080600181540180825580915050600190039060005260206000200160009091909190916101000a81548173ffffffffffffffffffffffffffffffffffffffff021916908373ffffffffffffffffffffffffffffffffffffffff1602179055506003600081548092919061321490614c00565b91905055506004889080600181540180825580915050600190039060005260206000200160009091909190916101000a81548173ffffffffffffffffffffffffffffffffffffffff021916908373ffffffffffffffffffffffffffffffffffffffff1602179055506005600081548092919061328f90614c00565b9190505550846040516132a29190614f43565b60405180910390208773ffffffffffffffffffffffffffffffffffffffff168973ffffffffffffffffffffffffffffffffffffffff167fb5b21f160e8e8af9f530962e08d73661bc3e3e6c1aecbbefee590e3fdb3781076133028a612b6e565b8860405161331192919061550b565b60405180910390a45050505050505050565b61332b613c7b565b80600260008373ffffffffffffffffffffffffffffffffffffffff1673ffffffffffffffffffffffffffffffffffffffff168152602001908152602001600020600001805461337990615010565b80601f01602080910402602001604051908101604052809291908181526020018280546133a590615010565b80156133f25780601f106133c7576101008083540402835291602001916133f2565b820191906000526020600020905b8154815290600101906020018083116133d557829003601f168201915b505050505060008151141561343c576040517f08c379a000000000000000000000000000000000000000000000000000000000815260040161343390614c95565b60405180910390fd5b600073ffffffffffffffffffffffffffffffffffffffff168273ffffffffffffffffffffffffffffffffffffffff1614156134ac576040517f08c379a00000000000000000000000000000000000000000000000000000000081526004016134a390614d01565b60405180910390fd5b6000600260008573ffffffffffffffffffffffffffffffffffffffff1673ffffffffffffffffffffffffffffffffffffffff1681526020019081526020016000209050600260058111156135035761350261477d565b5b8160010160149054906101000a900460ff1660058111156135275761352661477d565b5b146135c25760028160010160146101000a81548160ff021916908360058111156135545761355361477d565b5b02179055508060000160405161356a91906150d6565b60405180910390208473ffffffffffffffffffffffffffffffffffffffff167f8011544f5939f920af965d629972e4c6fc410156953fb0e4be4ae1ddf5e9636a60026040516135b99190614f5a565b60405180910390a35b50505050565b6060600060055467ffffffffffffffff8111156135e8576135e76141c3565b5b6040519080825280602002602001820160405280156136165781602001602082028036833780820191505090505b5090506000805b60055481101561378e5784600581111561363a5761363961477d565b5b600260006004848154811061365257613651614ba2565b5b9060005260206000200160009054906101000a900473ffffffffffffffffffffffffffffffffffffffff1673ffffffffffffffffffffffffffffffffffffffff1673ffffffffffffffffffffffffffffffffffffffff16815260200190815260200160002060010160149054906101000a900460ff1660058111156136da576136d961477d565b5b141561377b57600481815481106136f4576136f3614ba2565b5b9060005260206000200160009054906101000a900473ffffffffffffffffffffffffffffffffffffffff1683838151811061373257613731614ba2565b5b602002602001019073ffffffffffffffffffffffffffffffffffffffff16908173ffffffffffffffffffffffffffffffffffffffff1681525050818061377790614c00565b9250505b808061378690614c00565b91505061361d565b508192505050919050565b600082826000815114156137e2576040517f08c379a00000000000000000000000000000000000000000000000000000000081526004016137d990614c95565b60405180910390fd5b600073ffffffffffffffffffffffffffffffffffffffff168273ffffffffffffffffffffffffffffffffffffffff161415613852576040517f08c379a000000000000000000000000000000000000000000000000000000000815260040161384990614d01565b60405180910390fd5b6138926040518060400160405280600e81526020017f496e707574733a2025732c2025730000000000000000000000000000000000008152508587614026565b6000600260008773ffffffffffffffffffffffffffffffffffffffff1673ffffffffffffffffffffffffffffffffffffffff1681526020019081526020016000206040518060a00160405290816000820180546138ee90615010565b80601f016020809104026020016040519081016040528092919081815260200182805461391a90615010565b80156139675780601f1061393c57610100808354040283529160200191613967565b820191906000526020600020905b81548152906001019060200180831161394a57829003601f168201915b505050505081526020016001820160009054906101000a900473ffffffffffffffffffffffffffffffffffffffff1673ffffffffffffffffffffffffffffffffffffffff1673ffffffffffffffffffffffffffffffffffffffff1681526020016001820160149054906101000a900460ff1660058111156139eb576139ea61477d565b5b60058111156139fd576139fc61477d565b5b815260200160028201548152602001600382018054613a1b90615010565b80601f0160208091040260200160405190810160405280929190818152602001828054613a4790615010565b8015613a945780601f10613a6957610100808354040283529160200191613a94565b820191906000526020600020905b815481529060010190602001808311613a7757829003601f168201915b5050505050815250509050613aad816000015186612b0d565b8015613ae1575060026005811115613ac857613ac761477d565b5b81604001516005811115613adf57613ade61477d565b5b145b15613b7a57426301e1338063ffffffff168260600151613b019190614dd9565b1115613b4f57613b456040518060400160405280601481526020017f436f6e7472616374206973207665726966696564000000000000000000000000815250613cf9565b6001935050613ba1565b613b706040518060600160405280603c8152602001615748603c9139613cf9565b6000935050613ba1565b613b9b6040518060800160405280605f81526020016156e9605f9139613cf9565b60009350505b505092915050565b613bb1613c7b565b60005b8151811015613bf357613be0828281518110613bd357613bd2614ba2565b5b6020026020010151613323565b8080613beb90614c00565b915050613bb4565b5050565b613bff613c7b565b600073ffffffffffffffffffffffffffffffffffffffff168173ffffffffffffffffffffffffffffffffffffffff161415613c6f576040517f08c379a0000000000000000000000000000000000000000000000000000000008152600401613c66906155b4565b60405180910390fd5b613c7881613d92565b50565b613c836140c5565b73ffffffffffffffffffffffffffffffffffffffff16613ca161211f565b73ffffffffffffffffffffffffffffffffffffffff1614613cf7576040517f08c379a0000000000000000000000000000000000000000000000000000000008152600401613cee90615620565b60405180910390fd5b565b613d8f81604051602401613d0d9190614573565b6040516020818303038152906040527f41304fac000000000000000000000000000000000000000000000000000000007bffffffffffffffffffffffffffffffffffffffffffffffffffffffff19166020820180517bffffffffffffffffffffffffffffffffffffffffffffffffffffffff83818316178352505050506140cd565b50565b60008060009054906101000a900473ffffffffffffffffffffffffffffffffffffffff169050816000806101000a81548173ffffffffffffffffffffffffffffffffffffffff021916908373ffffffffffffffffffffffffffffffffffffffff1602179055508173ffffffffffffffffffffffffffffffffffffffff168173ffffffffffffffffffffffffffffffffffffffff167f8be0079c531659141344cd1fd0a4f28419497f9722a3daafe3b4186f6b6457e060405160405180910390a35050565b6000600160008373ffffffffffffffffffffffffffffffffffffffff1673ffffffffffffffffffffffffffffffffffffffff168152602001908152602001600020905060005b8180549050811015614020578373ffffffffffffffffffffffffffffffffffffffff16828281548110613ed257613ed1614ba2565b5b9060005260206000200160009054906101000a900473ffffffffffffffffffffffffffffffffffffffff1673ffffffffffffffffffffffffffffffffffffffff16141561400d578160018380549050613f2b9190615640565b81548110613f3c57613f3b614ba2565b5b9060005260206000200160009054906101000a900473ffffffffffffffffffffffffffffffffffffffff16828281548110613f7a57613f79614ba2565b5b9060005260206000200160006101000a81548173ffffffffffffffffffffffffffffffffffffffff021916908373ffffffffffffffffffffffffffffffffffffffff16021790555081805480613fd357613fd2615674565b5b6001900381819060005260206000200160006101000a81549073ffffffffffffffffffffffffffffffffffffffff02191690559055614020565b808061401890614c00565b915050613e9c565b50505050565b6140c083838360405160240161403e939291906156a3565b6040516020818303038152906040527f95ed0195000000000000000000000000000000000000000000000000000000007bffffffffffffffffffffffffffffffffffffffffffffffffffffffff19166020820180517bffffffffffffffffffffffffffffffffffffffffffffffffffffffff83818316178352505050506140cd565b505050565b600033905090565b60008151905060006a636f6e736f6c652e6c6f679050602083016000808483855afa5050505050565b82805461410290615010565b90600052602060002090601f016020900481019282614124576000855561416b565b82601f1061413d57805160ff191683800117855561416b565b8280016001018555821561416b579182015b8281111561416a57825182559160200191906001019061414f565b5b509050614178919061417c565b5090565b5b8082111561419557600081600090555060010161417d565b5090565b6000604051905090565b600080fd5b600080fd5b600080fd5b6000601f19601f8301169050919050565b7f4e487b7100000000000000000000000000000000000000000000000000000000600052604160045260246000fd5b6141fb826141b2565b810181811067ffffffffffffffff8211171561421a576142196141c3565b5b80604052505050565b600061422d614199565b905061423982826141f2565b919050565b600067ffffffffffffffff821115614259576142586141c3565b5b602082029050602081019050919050565b600080fd5b600073ffffffffffffffffffffffffffffffffffffffff82169050919050565b600061429a8261426f565b9050919050565b6142aa8161428f565b81146142b557600080fd5b50565b6000813590506142c7816142a1565b92915050565b60006142e06142db8461423e565b614223565b905080838252602082019050602084028301858111156143035761430261426a565b5b835b8181101561432c578061431888826142b8565b845260208401935050602081019050614305565b5050509392505050565b600082601f83011261434b5761434a6141ad565b5b813561435b8482602086016142cd565b91505092915050565b60006020828403121561437a576143796141a3565b5b600082013567ffffffffffffffff811115614398576143976141a8565b5b6143a484828501614336565b91505092915050565b600080fd5b600067ffffffffffffffff8211156143cd576143cc6141c3565b5b6143d6826141b2565b9050602081019050919050565b82818337600083830152505050565b6000614405614400846143b2565b614223565b905082815260208101848484011115614421576144206143ad565b5b61442c8482856143e3565b509392505050565b600082601f830112614449576144486141ad565b5b81356144598482602086016143f2565b91505092915050565b60008060408385031215614479576144786141a3565b5b6000614487858286016142b8565b925050602083013567ffffffffffffffff8111156144a8576144a76141a8565b5b6144b485828601614434565b9150509250929050565b6000602082840312156144d4576144d36141a3565b5b60006144e2848285016142b8565b91505092915050565b600081519050919050565b600082825260208201905092915050565b60005b8381101561452557808201518184015260208101905061450a565b83811115614534576000848401525b50505050565b6000614545826144eb565b61454f81856144f6565b935061455f818560208601614507565b614568816141b2565b840191505092915050565b6000602082019050818103600083015261458d818461453a565b905092915050565b600067ffffffffffffffff82169050919050565b6145b281614595565b82525050565b60006020820190506145cd60008301846145a9565b92915050565b6000819050919050565b6145e6816145d3565b81146145f157600080fd5b50565b600081359050614603816145dd565b92915050565b600080604083850312156146205761461f6141a3565b5b600061462e858286016142b8565b925050602061463f858286016145f4565b9150509250929050565b6146528161428f565b82525050565b600060208201905061466d6000830184614649565b92915050565b600081519050919050565b600082825260208201905092915050565b6000819050602082019050919050565b6146a88161428f565b82525050565b60006146ba838361469f565b60208301905092915050565b6000602082019050919050565b60006146de82614673565b6146e8818561467e565b93506146f38361468f565b8060005b8381101561472457815161470b88826146ae565b9750614716836146c6565b9250506001810190506146f7565b5085935050505092915050565b6000602082019050818103600083015261474b81846146d3565b905092915050565b61475c816145d3565b82525050565b60006020820190506147776000830184614753565b92915050565b7f4e487b7100000000000000000000000000000000000000000000000000000000600052602160045260246000fd5b600681106147bd576147bc61477d565b5b50565b60008190506147ce826147ac565b919050565b60006147de826147c0565b9050919050565b6147ee816147d3565b82525050565b600060a082019050818103600083015261480e818861453a565b905061481d6020830187614649565b61482a60408301866147e5565b6148376060830185614753565b8181036080830152614849818461453a565b90509695505050505050565b60006020828403121561486b5761486a6141a3565b5b6000614879848285016145f4565b91505092915050565b60008060006060848603121561489b5761489a6141a3565b5b60006148a9868287016142b8565b935050602084013567ffffffffffffffff8111156148ca576148c96141a8565b5b6148d686828701614434565b925050604084013567ffffffffffffffff8111156148f7576148f66141a8565b5b61490386828701614434565b9150509250925092565b600060a0820190508181036000830152614927818861453a565b90506149366020830187614649565b8181036040830152614948818661453a565b90506149576060830185614753565b8181036080830152614969818461453a565b90509695505050505050565b6000806040838503121561498c5761498b6141a3565b5b600061499a858286016142b8565b92505060206149ab858286016142b8565b9150509250929050565b600080604083850312156149cc576149cb6141a3565b5b600083013567ffffffffffffffff8111156149ea576149e96141a8565b5b6149f685828601614434565b925050602083013567ffffffffffffffff811115614a1757614a166141a8565b5b614a2385828601614434565b9150509250929050565b60008115159050919050565b614a4281614a2d565b82525050565b6000602082019050614a5d6000830184614a39565b92915050565b600063ffffffff82169050919050565b614a7c81614a63565b82525050565b6000602082019050614a976000830184614a73565b92915050565b60068110614aaa57600080fd5b50565b600081359050614abc81614a9d565b92915050565b600060208284031215614ad857614ad76141a3565b5b6000614ae684828501614aad565b91505092915050565b600080600080600060a08688031215614b0b57614b0a6141a3565b5b6000614b19888289016142b8565b9550506020614b2a888289016142b8565b9450506040614b3b88828901614aad565b935050606086013567ffffffffffffffff811115614b5c57614b5b6141a8565b5b614b6888828901614434565b925050608086013567ffffffffffffffff811115614b8957614b886141a8565b5b614b9588828901614434565b9150509295509295909350565b7f4e487b7100000000000000000000000000000000000000000000000000000000600052603260045260246000fd5b7f4e487b7100000000000000000000000000000000000000000000000000000000600052601160045260246000fd5b6000614c0b826145d3565b91507fffffffffffffffffffffffffffffffffffffffffffffffffffffffffffffffff821415614c3e57614c3d614bd1565b5b600182019050919050565b7f446f6d61696e206e616d6520697320656d707479000000000000000000000000600082015250565b6000614c7f6014836144f6565b9150614c8a82614c49565b602082019050919050565b60006020820190508181036000830152614cae81614c72565b9050919050565b7f436f6e7472616374206164647265737320697320656d70747900000000000000600082015250565b6000614ceb6019836144f6565b9150614cf682614cb5565b602082019050919050565b60006020820190508181036000830152614d1a81614cde565b9050919050565b7f4f6e6c7920746865206f776e6572206f662074686520636f6e7472616374206f60008201527f722044414f2063616e2072656e65772074686520646f6d61696e206d6170706960208201527f6e672e0000000000000000000000000000000000000000000000000000000000604082015250565b6000614da36043836144f6565b9150614dae82614d21565b606082019050919050565b60006020820190508181036000830152614dd281614d96565b9050919050565b6000614de4826145d3565b9150614def836145d3565b9250827fffffffffffffffffffffffffffffffffffffffffffffffffffffffffffffffff03821115614e2457614e23614bd1565b5b828201905092915050565b7f506c656173652073656e6420302e303520657468657220746f2072656e65772060008201527f74686520646f6d61696e2e000000000000000000000000000000000000000000602082015250565b6000614e8b602b836144f6565b9150614e9682614e2f565b604082019050919050565b60006020820190508181036000830152614eba81614e7e565b9050919050565b600081905092915050565b50565b6000614edc600083614ec1565b9150614ee782614ecc565b600082019050919050565b6000614efd82614ecf565b9150819050919050565b600081905092915050565b6000614f1d826144eb565b614f278185614f07565b9350614f37818560208601614507565b80840191505092915050565b6000614f4f8284614f12565b915081905092915050565b6000602082019050614f6f60008301846147e5565b92915050565b7f4661696c656420746f2073656e64204574686572210000000000000000000000600082015250565b6000614fab6015836144f6565b9150614fb682614f75565b602082019050919050565b60006020820190508181036000830152614fda81614f9e565b9050919050565b7f4e487b7100000000000000000000000000000000000000000000000000000000600052602260045260246000fd5b6000600282049050600182168061502857607f821691505b6020821081141561503c5761503b614fe1565b5b50919050565b60008190508160005260206000209050919050565b6000815461506481615010565b61506e8186614f07565b94506001821660008114615089576001811461509a576150cd565b60ff198316865281860193506150cd565b6150a385615042565b60005b838110156150c5578154818901526001820191506020810190506150a6565b838801955050505b50505092915050565b60006150e28284615057565b915081905092915050565b7f506c656173652073656e6420302e303520657468657220746f2073746172742060008201527f7468652076616c69646174696f6e2070726f636573732e000000000000000000602082015250565b60006151496037836144f6565b9150615154826150ed565b604082019050919050565b600060208201905081810360008301526151788161513c565b9050919050565b7f436f6e7472616374206164647265737320616c7265616479206861732061206460008201527f6f6d61696e207265676973746572656420696e20746865207374727563742e00602082015250565b60006151db603f836144f6565b91506151e68261517f565b604082019050919050565b6000602082019050818103600083015261520a816151ce565b9050919050565b7f436f6e7472616374207265766f6b65642062792044414f000000000000000000600082015250565b60006152476017836144f6565b915061525282615211565b602082019050919050565b600060208201905081810360008301526152768161523a565b9050919050565b7f4f6e6c7920746865206f776e6572206f662074686520646f6d61696e2063616e60008201527f2075706461746520746865206f776e6572000000000000000000000000000000602082015250565b60006152d96031836144f6565b91506152e48261527d565b604082019050919050565b60006020820190508181036000830152615308816152cc565b9050919050565b7f7570646174654f776e65722072657175696572657320302e3035206574686572600082015250565b60006153456020836144f6565b91506153508261530f565b602082019050919050565b6000602082019050818103600083015261537481615338565b9050919050565b7f596f7520617265206e6f7420746865206f776e6572206f662074686520636f6e60008201527f747261637420746f207472616e7366657220646f6d61696e732e000000000000602082015250565b60006153d7603a836144f6565b91506153e28261537b565b604082019050919050565b60006020820190508181036000830152615406816153ca565b9050919050565b7f436f6e7472616374206973206e6f7420617070726f7665642e00000000000000600082015250565b60006154436019836144f6565b915061544e8261540d565b602082019050919050565b6000602082019050818103600083015261547281615436565b9050919050565b7f506c656173652073656e6420302e303520657468657220746f2073746172742060008201527f7472616e73666572436f6e74726163742070726f636573732e00000000000000602082015250565b60006154d56039836144f6565b91506154e082615479565b604082019050919050565b60006020820190508181036000830152615504816154c8565b9050919050565b60006040820190508181036000830152615525818561453a565b90508181036020830152615539818461453a565b90509392505050565b7f4f776e61626c653a206e6577206f776e657220697320746865207a65726f206160008201527f6464726573730000000000000000000000000000000000000000000000000000602082015250565b600061559e6026836144f6565b91506155a982615542565b604082019050919050565b600060208201905081810360008301526155cd81615591565b9050919050565b7f4f776e61626c653a2063616c6c6572206973206e6f7420746865206f776e6572600082015250565b600061560a6020836144f6565b9150615615826155d4565b602082019050919050565b60006020820190508181036000830152615639816155fd565b9050919050565b600061564b826145d3565b9150615656836145d3565b92508282101561566957615668614bd1565b5b828203905092915050565b7f4e487b7100000000000000000000000000000000000000000000000000000000600052603160045260246000fd5b600060608201905081810360008301526156bd818661453a565b905081810360208301526156d1818561453a565b90506156e06040830184614649565b94935050505056fe446f6d61696e206e616d6520616e6420636f6e7472616374206164647265737320646f206e6f74206d61746368206f7220636f6e7472616374206973206e6f7420617070726f7665642e20436865636b20636f6e7472616374207374617465446f6d61696e206e616d6520616e6420636f6e74726163742061646472657373206d617463682062757420646f6d61696e2069732065787069726564a2646970667358221220197666c959a1f200619346d96b1816b21e814f5fea9160c2a0f457ac858053c164736f6c63430008090033",
  "linkReferences": {},
  "deployedLinkReferences": {}
}